{
  "_format": "hh-sol-artifact-1",
  "contractName": "Entry",
  "sourceName": "contracts/Entry.sol",
  "abi": [
    {
      "inputs": [],
      "stateMutability": "nonpayable",
      "type": "constructor"
    },
    {
      "inputs": [
        {
          "internalType": "address",
          "name": "target",
          "type": "address"
        }
      ],
      "name": "AddressEmptyCode",
      "type": "error"
    },
    {
      "inputs": [
        {
          "internalType": "address",
          "name": "implementation",
          "type": "address"
        }
      ],
      "name": "ERC1967InvalidImplementation",
      "type": "error"
    },
    {
      "inputs": [],
      "name": "ERC1967NonPayable",
      "type": "error"
    },
    {
      "inputs": [],
      "name": "FailedCall",
      "type": "error"
    },
    {
      "inputs": [],
      "name": "InvalidInitialization",
      "type": "error"
    },
    {
      "inputs": [],
      "name": "NotInitializing",
      "type": "error"
    },
    {
      "inputs": [
        {
          "internalType": "address",
          "name": "owner",
          "type": "address"
        }
      ],
      "name": "OwnableInvalidOwner",
      "type": "error"
    },
    {
      "inputs": [
        {
          "internalType": "address",
          "name": "account",
          "type": "address"
        }
      ],
      "name": "OwnableUnauthorizedAccount",
      "type": "error"
    },
    {
      "inputs": [],
      "name": "UUPSUnauthorizedCallContext",
      "type": "error"
    },
    {
      "inputs": [
        {
          "internalType": "bytes32",
          "name": "slot",
          "type": "bytes32"
        }
      ],
      "name": "UUPSUnsupportedProxiableUUID",
      "type": "error"
    },
    {
      "anonymous": false,
      "inputs": [
        {
          "indexed": true,
          "internalType": "uint256",
          "name": "index",
          "type": "uint256"
        },
        {
          "indexed": true,
          "internalType": "address",
          "name": "fund",
          "type": "address"
        }
      ],
      "name": "FundCreated",
      "type": "event"
    },
    {
      "anonymous": false,
      "inputs": [
        {
          "indexed": false,
          "internalType": "uint64",
          "name": "version",
          "type": "uint64"
        }
      ],
      "name": "Initialized",
      "type": "event"
    },
    {
      "anonymous": false,
      "inputs": [
        {
          "indexed": true,
          "internalType": "address",
          "name": "previousOwner",
          "type": "address"
        },
        {
          "indexed": true,
          "internalType": "address",
          "name": "newOwner",
          "type": "address"
        }
      ],
      "name": "OwnershipTransferred",
      "type": "event"
    },
    {
      "anonymous": false,
      "inputs": [
        {
          "indexed": true,
          "internalType": "address",
          "name": "implementation",
          "type": "address"
        }
      ],
      "name": "Upgraded",
      "type": "event"
    },
    {
      "inputs": [],
      "name": "UPGRADE_INTERFACE_VERSION",
      "outputs": [
        {
          "internalType": "string",
          "name": "",
          "type": "string"
        }
      ],
      "stateMutability": "view",
      "type": "function"
    },
    {
      "inputs": [
        {
          "internalType": "address",
          "name": "fund",
          "type": "address"
        },
        {
          "internalType": "address",
          "name": "to",
          "type": "address"
        },
        {
          "internalType": "address",
          "name": "token",
          "type": "address"
        },
        {
          "internalType": "uint256",
          "name": "amount",
          "type": "uint256"
        },
        {
          "internalType": "bytes",
          "name": "data",
          "type": "bytes"
        }
      ],
      "name": "buyFund",
      "outputs": [
        {
          "internalType": "uint256",
          "name": "shares",
          "type": "uint256"
        }
      ],
      "stateMutability": "nonpayable",
      "type": "function"
    },
    {
      "inputs": [
        {
          "internalType": "address",
          "name": "fund",
          "type": "address"
        },
        {
          "internalType": "address",
          "name": "to",
          "type": "address"
        },
        {
          "internalType": "bytes",
          "name": "data",
          "type": "bytes"
        }
      ],
      "name": "buyFund",
      "outputs": [
        {
          "internalType": "uint256",
          "name": "shares",
          "type": "uint256"
        }
      ],
      "stateMutability": "payable",
      "type": "function"
    },
    {
      "inputs": [
        {
          "internalType": "address",
          "name": "fund",
          "type": "address"
        },
        {
          "internalType": "address",
          "name": "to",
          "type": "address"
        },
        {
          "internalType": "bytes",
          "name": "data",
          "type": "bytes"
        }
      ],
      "name": "claimFundProfit",
      "outputs": [
        {
          "internalType": "uint256",
          "name": "amount",
          "type": "uint256"
        }
      ],
      "stateMutability": "nonpayable",
      "type": "function"
    },
    {
      "inputs": [
        {
          "internalType": "bytes",
          "name": "code",
          "type": "bytes"
        }
      ],
      "name": "createFund",
      "outputs": [
        {
          "internalType": "uint256",
          "name": "index",
          "type": "uint256"
        },
        {
          "internalType": "address",
          "name": "fund",
          "type": "address"
        }
      ],
      "stateMutability": "nonpayable",
      "type": "function"
    },
    {
      "inputs": [
        {
          "internalType": "uint256",
          "name": "",
          "type": "uint256"
        }
      ],
      "name": "funds",
      "outputs": [
        {
          "internalType": "address",
          "name": "",
          "type": "address"
        }
      ],
      "stateMutability": "view",
      "type": "function"
    },
    {
      "inputs": [],
      "name": "fundsLength",
      "outputs": [
        {
          "internalType": "uint256",
          "name": "",
          "type": "uint256"
        }
      ],
      "stateMutability": "view",
      "type": "function"
    },
    {
      "inputs": [
        {
          "internalType": "address",
          "name": "fund",
          "type": "address"
        },
        {
          "internalType": "address",
          "name": "owner",
          "type": "address"
        }
      ],
      "name": "getFundAccount",
      "outputs": [
        {
          "internalType": "uint256",
          "name": "value",
          "type": "uint256"
        },
        {
          "internalType": "uint256",
          "name": "shares",
          "type": "uint256"
        }
      ],
      "stateMutability": "view",
      "type": "function"
    },
    {
      "inputs": [
        {
          "internalType": "address",
          "name": "fund",
          "type": "address"
        },
        {
          "internalType": "address",
          "name": "owner",
          "type": "address"
        }
      ],
      "name": "getFundProfit",
      "outputs": [
        {
          "internalType": "uint256",
          "name": "profit",
          "type": "uint256"
        }
      ],
      "stateMutability": "view",
      "type": "function"
    },
    {
      "inputs": [
        {
          "internalType": "address",
          "name": "fund",
          "type": "address"
        }
      ],
      "name": "getFundProperty",
      "outputs": [
        {
          "components": [
            {
              "internalType": "address",
              "name": "token",
              "type": "address"
            },
            {
              "internalType": "uint256",
              "name": "value",
              "type": "uint256"
            },
            {
              "internalType": "uint256",
              "name": "shares",
              "type": "uint256"
            },
            {
              "internalType": "uint256",
              "name": "netValue",
              "type": "uint256"
            },
            {
              "internalType": "address",
              "name": "entry",
              "type": "address"
            },
            {
              "internalType": "address",
              "name": "provider",
              "type": "address"
            }
          ],
          "internalType": "struct IFund.Property",
          "name": "property",
          "type": "tuple"
        }
      ],
      "stateMutability": "view",
      "type": "function"
    },
    {
      "inputs": [
        {
          "internalType": "address",
          "name": "initialOwner",
          "type": "address"
        }
      ],
      "name": "initialize",
      "outputs": [],
      "stateMutability": "nonpayable",
      "type": "function"
    },
    {
      "inputs": [],
      "name": "owner",
      "outputs": [
        {
          "internalType": "address",
          "name": "",
          "type": "address"
        }
      ],
      "stateMutability": "view",
      "type": "function"
    },
    {
      "inputs": [],
      "name": "proxiableUUID",
      "outputs": [
        {
          "internalType": "bytes32",
          "name": "",
          "type": "bytes32"
        }
      ],
      "stateMutability": "view",
      "type": "function"
    },
    {
      "inputs": [
        {
          "internalType": "address",
          "name": "fund",
          "type": "address"
        },
        {
          "internalType": "address",
          "name": "to",
          "type": "address"
        },
        {
          "internalType": "uint256",
          "name": "shares",
          "type": "uint256"
        },
        {
          "internalType": "bytes",
          "name": "data",
          "type": "bytes"
        }
      ],
      "name": "redeemFund",
      "outputs": [
        {
          "internalType": "uint256",
          "name": "amount",
          "type": "uint256"
        }
      ],
      "stateMutability": "nonpayable",
      "type": "function"
    },
    {
      "inputs": [
        {
          "internalType": "address",
          "name": "fund",
          "type": "address"
        },
        {
          "internalType": "bytes",
          "name": "data",
          "type": "bytes"
        }
      ],
      "name": "registerFund",
      "outputs": [
        {
          "internalType": "uint256",
          "name": "index",
          "type": "uint256"
        }
      ],
      "stateMutability": "nonpayable",
      "type": "function"
    },
    {
      "inputs": [],
      "name": "renounceOwnership",
      "outputs": [],
      "stateMutability": "nonpayable",
      "type": "function"
    },
    {
      "inputs": [
        {
          "internalType": "address",
          "name": "user",
          "type": "address"
        },
        {
          "internalType": "address",
          "name": "token",
          "type": "address"
        },
        {
          "internalType": "uint256",
          "name": "amount",
          "type": "uint256"
        },
        {
          "internalType": "uint256",
          "name": "outAmount",
          "type": "uint256"
        },
        {
          "internalType": "bytes",
          "name": "signature",
          "type": "bytes"
        }
      ],
      "name": "swapETH",
      "outputs": [],
      "stateMutability": "nonpayable",
      "type": "function"
    },
    {
      "inputs": [
        {
          "internalType": "address",
          "name": "newOwner",
          "type": "address"
        }
      ],
      "name": "transferOwnership",
      "outputs": [],
      "stateMutability": "nonpayable",
      "type": "function"
    },
    {
      "inputs": [
        {
          "internalType": "address",
          "name": "fund",
          "type": "address"
        }
      ],
      "name": "updateFundValue",
      "outputs": [
        {
          "internalType": "uint256",
          "name": "netValue",
          "type": "uint256"
        }
      ],
      "stateMutability": "nonpayable",
      "type": "function"
    },
    {
      "inputs": [
        {
          "internalType": "address",
          "name": "newImplementation",
          "type": "address"
        },
        {
          "internalType": "bytes",
          "name": "data",
          "type": "bytes"
        }
      ],
      "name": "upgradeToAndCall",
      "outputs": [],
      "stateMutability": "payable",
      "type": "function"
    }
  ],
  "bytecode": "0x60a06040523060805234801561001457600080fd5b5061001d610022565b6100d4565b7ff0c57e16840df040f15088dc2f81fe391c3923bec73e23a9662efc9c229c6a00805468010000000000000000900460ff16156100725760405163f92ee8a960e01b815260040160405180910390fd5b80546001600160401b03908116146100d15780546001600160401b0319166001600160401b0390811782556040519081527fc7f505b2f371ae2175ee4913f4499e1f2633a7b5936321eed1cdaeb6115181d29060200160405180910390a15b50565b6080516120066100fd6000396000818161120001528181611229015261144a01526120066000f3fe60806040526004361061015f5760003560e01c80639b8ec8ef116100c0578063c4d66de811610074578063eb1335e511610059578063eb1335e5146104ac578063ed7d4d4b146104cc578063f2fde38b146104ec57600080fd5b8063c4d66de81461046c578063dc3d3d871461048c57600080fd5b8063b185ce9f116100a5578063b185ce9f146103ef578063bb99abd61461040f578063c1c66f111461042257600080fd5b80639b8ec8ef146102eb578063ad3cb1cc1461039957600080fd5b806359a7293c116101175780637b8e8895116100fc5780637b8e8895146102275780638da5cb5b1461026c5780639782e1f8146102b657600080fd5b806359a7293c146101f2578063715018a61461021257600080fd5b80632742be2d116101485780632742be2d146101aa5780634f1ef286146101ca57806352d1902d146101dd57600080fd5b80630905c5a0146101645780631922232314610188575b600080fd5b34801561017057600080fd5b506000545b6040519081526020015b60405180910390f35b34801561019457600080fd5b506101a86101a33660046118d8565b61050c565b005b3480156101b657600080fd5b506101756101c5366004611a30565b610600565b6101a86101d8366004611aaf565b610745565b3480156101e957600080fd5b50610175610764565b3480156101fe57600080fd5b5061017561020d366004611aff565b610793565b34801561021e57600080fd5b506101a8610839565b34801561023357600080fd5b50610247610242366004611b61565b61084d565b60405173ffffffffffffffffffffffffffffffffffffffff909116815260200161017f565b34801561027857600080fd5b507f9016d09d72d40fdae2fd8ceac6b6234c7706214fd39c1cd1e609a0528c1993005473ffffffffffffffffffffffffffffffffffffffff16610247565b3480156102c257600080fd5b506102d66102d1366004611b7a565b610884565b6040805192835260208301919091520161017f565b3480156102f757600080fd5b5061030b610306366004611bb3565b610924565b60405161017f9190600060c08201905073ffffffffffffffffffffffffffffffffffffffff835116825260208301516020830152604083015160408301526060830151606083015273ffffffffffffffffffffffffffffffffffffffff608084015116608083015273ffffffffffffffffffffffffffffffffffffffff60a08401511660a083015292915050565b3480156103a557600080fd5b506103e26040518060400160405280600581526020017f352e302e3000000000000000000000000000000000000000000000000000000081525081565b60405161017f9190611c3e565b3480156103fb57600080fd5b5061017561040a366004611c51565b6109cb565b61017561041d366004611aff565b610c74565b34801561042e57600080fd5b5061044261043d366004611ca6565b610cf5565b6040805192835273ffffffffffffffffffffffffffffffffffffffff90911660208301520161017f565b34801561047857600080fd5b506101a8610487366004611bb3565b610db8565b34801561049857600080fd5b506101756104a7366004611bb3565b610f40565b3480156104b857600080fd5b506101756104c7366004611b7a565b610fbb565b3480156104d857600080fd5b506101756104e7366004611ce8565b61104f565b3480156104f857600080fd5b506101a8610507366004611bb3565b6110f6565b61051461115a565b6040517f23b872dd00000000000000000000000000000000000000000000000000000000815273ffffffffffffffffffffffffffffffffffffffff8781166004830152306024830152604482018690528616906323b872dd906064016020604051808303816000875af115801561058f573d6000803e3d6000fd5b505050506040513d601f19601f820116820180604052508101906105b39190611d54565b5060405173ffffffffffffffffffffffffffffffffffffffff87169084156108fc029085906000818181858888f193505050501580156105f7573d6000803e3d6000fd5b50505050505050565b6040517f23b872dd00000000000000000000000000000000000000000000000000000000815233600482015273ffffffffffffffffffffffffffffffffffffffff868116602483015260448201849052600091908516906323b872dd906064016020604051808303816000875af115801561067f573d6000803e3d6000fd5b505050506040513d601f19601f820116820180604052508101906106a39190611d54565b506040517fb510391f00000000000000000000000000000000000000000000000000000000815273ffffffffffffffffffffffffffffffffffffffff87169063b510391f906106f89088908690600401611d76565b6020604051808303816000875af1158015610717573d6000803e3d6000fd5b505050506040513d601f19601f8201168201806040525081019061073b9190611da5565b9695505050505050565b61074d6111e8565b610756826112ec565b61076082826112f4565b5050565b600061076e611432565b507f360894a13ba1a3210667c828492db98dca3e2076cc3735a920a3ca505d382bbc90565b6040517fbfa0d72000000000000000000000000000000000000000000000000000000000815260009073ffffffffffffffffffffffffffffffffffffffff85169063bfa0d720906107ec90339087908790600401611dbe565b6020604051808303816000875af115801561080b573d6000803e3d6000fd5b505050506040513d601f19601f8201168201806040525081019061082f9190611da5565b90505b9392505050565b61084161115a565b61084b60006114a1565b565b6000818154811061085d57600080fd5b60009182526020909120015473ffffffffffffffffffffffffffffffffffffffff16905081565b6040517ffbcbc0f100000000000000000000000000000000000000000000000000000000815273ffffffffffffffffffffffffffffffffffffffff8281166004830152600091829185169063fbcbc0f1906024016040805180830381865afa1580156108f4573d6000803e3d6000fd5b505050506040513d601f19601f820116820180604052508101906109189190611e09565b915091505b9250929050565b6040805160c081018252600080825260208201819052918101829052606081018290526080810182905260a08101919091528173ffffffffffffffffffffffffffffffffffffffff1663077510706040518163ffffffff1660e01b815260040160c060405180830381865afa1580156109a1573d6000803e3d6000fd5b505050506040513d601f19601f820116820180604052508101906109c59190611e2d565b92915050565b600073ffffffffffffffffffffffffffffffffffffffff8416610a4f576040517f08c379a000000000000000000000000000000000000000000000000000000000815260206004820152601460248201527f696e7661696c642066756e64206164647265737300000000000000000000000060448201526064015b60405180910390fd5b60005415610b3a5773ffffffffffffffffffffffffffffffffffffffff8416600090815260016020526040902054158015610ad457508373ffffffffffffffffffffffffffffffffffffffff1660008081548110610aaf57610aaf611eca565b60009182526020909120015473ffffffffffffffffffffffffffffffffffffffff1614155b610b3a576040517f08c379a000000000000000000000000000000000000000000000000000000000815260206004820152601260248201527f65786973742066756e64206164647265737300000000000000000000000000006044820152606401610a46565b6040517fd1f5789400000000000000000000000000000000000000000000000000000000815273ffffffffffffffffffffffffffffffffffffffff85169063d1f5789490610b9090309087908790600401611ef9565b600060405180830381600087803b158015610baa57600080fd5b505af1158015610bbe573d6000803e3d6000fd5b50506000805473ffffffffffffffffffffffffffffffffffffffff881680835260016020819052604080852084905590830184558380527f290decd9548b62a8d60345a988386fc84ba6bc95484008f6362f93160ef3e563830180547fffffffffffffffffffffffff000000000000000000000000000000000000000016831790555191955093508492507fb2717551cae9cbea884db7f3e7caba91bf864fefa32dc97702947780bb7d1dc29190a39392505050565b60008373ffffffffffffffffffffffffffffffffffffffff1663b510391f3485856040518463ffffffff1660e01b8152600401610cb2929190611d76565b60206040518083038185885af1158015610cd0573d6000803e3d6000fd5b50505050506040513d601f19601f8201168201806040525081019061082f9190611da5565b600080610d0061115a565b82846000f06000805473ffffffffffffffffffffffffffffffffffffffff831680835260016020819052604080852084905590830184558380527f290decd9548b62a8d60345a988386fc84ba6bc95484008f6362f93160ef3e563830180547fffffffffffffffffffffffff000000000000000000000000000000000000000016831790555191955092935084917fb2717551cae9cbea884db7f3e7caba91bf864fefa32dc97702947780bb7d1dc291a39250929050565b7ff0c57e16840df040f15088dc2f81fe391c3923bec73e23a9662efc9c229c6a00805468010000000000000000810460ff16159067ffffffffffffffff16600081158015610e035750825b905060008267ffffffffffffffff166001148015610e205750303b155b905081158015610e2e575080155b15610e65576040517ff92ee8a900000000000000000000000000000000000000000000000000000000815260040160405180910390fd5b84547fffffffffffffffffffffffffffffffffffffffffffffffff00000000000000001660011785558315610ec65784547fffffffffffffffffffffffffffffffffffffffffffffff00ffffffffffffffff16680100000000000000001785555b610ecf86611537565b610ed7611548565b8315610f385784547fffffffffffffffffffffffffffffffffffffffffffffff00ffffffffffffffff168555604051600181527fc7f505b2f371ae2175ee4913f4499e1f2633a7b5936321eed1cdaeb6115181d29060200160405180910390a15b505050505050565b6000610f4a61115a565b8173ffffffffffffffffffffffffffffffffffffffff1663e8bf9be56040518163ffffffff1660e01b81526004016020604051808303816000875af1158015610f97573d6000803e3d6000fd5b505050506040513d601f19601f820116820180604052508101906109c59190611da5565b6040517fc600e1dc00000000000000000000000000000000000000000000000000000000815273ffffffffffffffffffffffffffffffffffffffff82811660048301526000919084169063c600e1dc90602401602060405180830381865afa15801561102b573d6000803e3d6000fd5b505050506040513d601f19601f820116820180604052508101906108329190611da5565b6040517fd2fc555200000000000000000000000000000000000000000000000000000000815260009073ffffffffffffffffffffffffffffffffffffffff86169063d2fc5552906110aa903390889088908890600401611f63565b6020604051808303816000875af11580156110c9573d6000803e3d6000fd5b505050506040513d601f19601f820116820180604052508101906110ed9190611da5565b95945050505050565b6110fe61115a565b73ffffffffffffffffffffffffffffffffffffffff811661114e576040517f1e4fbdf700000000000000000000000000000000000000000000000000000000815260006004820152602401610a46565b611157816114a1565b50565b336111997f9016d09d72d40fdae2fd8ceac6b6234c7706214fd39c1cd1e609a0528c1993005473ffffffffffffffffffffffffffffffffffffffff1690565b73ffffffffffffffffffffffffffffffffffffffff161461084b576040517f118cdaa7000000000000000000000000000000000000000000000000000000008152336004820152602401610a46565b3073ffffffffffffffffffffffffffffffffffffffff7f00000000000000000000000000000000000000000000000000000000000000001614806112b557507f000000000000000000000000000000000000000000000000000000000000000073ffffffffffffffffffffffffffffffffffffffff1661129c7f360894a13ba1a3210667c828492db98dca3e2076cc3735a920a3ca505d382bbc5473ffffffffffffffffffffffffffffffffffffffff1690565b73ffffffffffffffffffffffffffffffffffffffff1614155b1561084b576040517fe07c8dba00000000000000000000000000000000000000000000000000000000815260040160405180910390fd5b61115761115a565b8173ffffffffffffffffffffffffffffffffffffffff166352d1902d6040518163ffffffff1660e01b8152600401602060405180830381865afa925050508015611379575060408051601f3d9081017fffffffffffffffffffffffffffffffffffffffffffffffffffffffffffffffe016820190925261137691810190611da5565b60015b6113c7576040517f4c9c8ce300000000000000000000000000000000000000000000000000000000815273ffffffffffffffffffffffffffffffffffffffff83166004820152602401610a46565b7f360894a13ba1a3210667c828492db98dca3e2076cc3735a920a3ca505d382bbc8114611423576040517faa1d49a400000000000000000000000000000000000000000000000000000000815260048101829052602401610a46565b61142d8383611550565b505050565b3073ffffffffffffffffffffffffffffffffffffffff7f0000000000000000000000000000000000000000000000000000000000000000161461084b576040517fe07c8dba00000000000000000000000000000000000000000000000000000000815260040160405180910390fd5b7f9016d09d72d40fdae2fd8ceac6b6234c7706214fd39c1cd1e609a0528c19930080547fffffffffffffffffffffffff0000000000000000000000000000000000000000811673ffffffffffffffffffffffffffffffffffffffff848116918217845560405192169182907f8be0079c531659141344cd1fd0a4f28419497f9722a3daafe3b4186f6b6457e090600090a3505050565b61153f6115b3565b6111578161161a565b61084b6115b3565b61155982611622565b60405173ffffffffffffffffffffffffffffffffffffffff8316907fbc7cd75a20ee27fd9adebab32041f755214dbc6bffa90cc0225b39da2e5c2d3b90600090a28051156115ab5761142d82826116f1565b61076061176b565b7ff0c57e16840df040f15088dc2f81fe391c3923bec73e23a9662efc9c229c6a005468010000000000000000900460ff1661084b576040517fd7e6bcf800000000000000000000000000000000000000000000000000000000815260040160405180910390fd5b6110fe6115b3565b8073ffffffffffffffffffffffffffffffffffffffff163b60000361168b576040517f4c9c8ce300000000000000000000000000000000000000000000000000000000815273ffffffffffffffffffffffffffffffffffffffff82166004820152602401610a46565b7f360894a13ba1a3210667c828492db98dca3e2076cc3735a920a3ca505d382bbc80547fffffffffffffffffffffffff00000000000000000000000000000000000000001673ffffffffffffffffffffffffffffffffffffffff92909216919091179055565b60606000808473ffffffffffffffffffffffffffffffffffffffff168460405161171b9190611fb4565b600060405180830381855af49150503d8060008114611756576040519150601f19603f3d011682016040523d82523d6000602084013e61175b565b606091505b50915091506110ed8583836117a3565b341561084b576040517fb398979f00000000000000000000000000000000000000000000000000000000815260040160405180910390fd5b6060826117b8576117b382611832565b610832565b81511580156117dc575073ffffffffffffffffffffffffffffffffffffffff84163b155b1561182b576040517f9996b31500000000000000000000000000000000000000000000000000000000815273ffffffffffffffffffffffffffffffffffffffff85166004820152602401610a46565b5080610832565b8051156118425780518082602001fd5b6040517fd6bda27500000000000000000000000000000000000000000000000000000000815260040160405180910390fd5b73ffffffffffffffffffffffffffffffffffffffff8116811461115757600080fd5b60008083601f8401126118a857600080fd5b50813567ffffffffffffffff8111156118c057600080fd5b60208301915083602082850101111561091d57600080fd5b60008060008060008060a087890312156118f157600080fd5b86356118fc81611874565b9550602087013561190c81611874565b94506040870135935060608701359250608087013567ffffffffffffffff81111561193657600080fd5b61194289828a01611896565b979a9699509497509295939492505050565b7f4e487b7100000000000000000000000000000000000000000000000000000000600052604160045260246000fd5b600082601f83011261199457600080fd5b813567ffffffffffffffff8111156119ae576119ae611954565b604051601f82017fffffffffffffffffffffffffffffffffffffffffffffffffffffffffffffffe0908116603f0116810167ffffffffffffffff811182821017156119fb576119fb611954565b604052818152838201602001851015611a1357600080fd5b816020850160208301376000918101602001919091529392505050565b600080600080600060a08688031215611a4857600080fd5b8535611a5381611874565b94506020860135611a6381611874565b93506040860135611a7381611874565b925060608601359150608086013567ffffffffffffffff811115611a9657600080fd5b611aa288828901611983565b9150509295509295909350565b60008060408385031215611ac257600080fd5b8235611acd81611874565b9150602083013567ffffffffffffffff811115611ae957600080fd5b611af585828601611983565b9150509250929050565b600080600060608486031215611b1457600080fd5b8335611b1f81611874565b92506020840135611b2f81611874565b9150604084013567ffffffffffffffff811115611b4b57600080fd5b611b5786828701611983565b9150509250925092565b600060208284031215611b7357600080fd5b5035919050565b60008060408385031215611b8d57600080fd5b8235611b9881611874565b91506020830135611ba881611874565b809150509250929050565b600060208284031215611bc557600080fd5b813561083281611874565b60005b83811015611beb578181015183820152602001611bd3565b50506000910152565b60008151808452611c0c816020860160208601611bd0565b601f017fffffffffffffffffffffffffffffffffffffffffffffffffffffffffffffffe0169290920160200192915050565b6020815260006108326020830184611bf4565b600080600060408486031215611c6657600080fd5b8335611c7181611874565b9250602084013567ffffffffffffffff811115611c8d57600080fd5b611c9986828701611896565b9497909650939450505050565b60008060208385031215611cb957600080fd5b823567ffffffffffffffff811115611cd057600080fd5b611cdc85828601611896565b90969095509350505050565b60008060008060808587031215611cfe57600080fd5b8435611d0981611874565b93506020850135611d1981611874565b925060408501359150606085013567ffffffffffffffff811115611d3c57600080fd5b611d4887828801611983565b91505092959194509250565b600060208284031215611d6657600080fd5b8151801515811461083257600080fd5b73ffffffffffffffffffffffffffffffffffffffff8316815260406020820152600061082f6040830184611bf4565b600060208284031215611db757600080fd5b5051919050565b73ffffffffffffffffffffffffffffffffffffffff8416815273ffffffffffffffffffffffffffffffffffffffff831660208201526060604082015260006110ed6060830184611bf4565b60008060408385031215611e1c57600080fd5b505080516020909101519092909150565b600060c0828403128015611e4057600080fd5b5060405160009060c0810167ffffffffffffffff81118282101715611e6757611e67611954565b6040528351611e7581611874565b815260208481015190820152604080850151908201526060808501519082015260808401519150611ea582611874565b81608082015260a08401519150611ebb82611874565b60a08101919091529392505050565b7f4e487b7100000000000000000000000000000000000000000000000000000000600052603260045260246000fd5b73ffffffffffffffffffffffffffffffffffffffff8416815260406020820152816040820152818360608301376000818301606090810191909152601f9092017fffffffffffffffffffffffffffffffffffffffffffffffffffffffffffffffe016010192915050565b73ffffffffffffffffffffffffffffffffffffffff8516815273ffffffffffffffffffffffffffffffffffffffff8416602082015282604082015260806060820152600061073b6080830184611bf4565b60008251611fc6818460208701611bd0565b919091019291505056fea2646970667358221220b3b8d4a866795fc5d8c8f583d2512a8e46b462591e27ea4c2295882a2d21631164736f6c634300081c0033",
  "linkReferences": {},
  "deployedLinkReferences": {}
}