{
  "_format": "hh-sol-artifact-1",
  "contractName": "Entry",
  "sourceName": "contracts/Entry.sol",
  "abi": [
    {
      "inputs": [],
      "stateMutability": "nonpayable",
      "type": "constructor"
    },
    {
      "inputs": [
        {
          "internalType": "address",
          "name": "target",
          "type": "address"
        }
      ],
      "name": "AddressEmptyCode",
      "type": "error"
    },
    {
      "inputs": [],
      "name": "ECDSAInvalidSignature",
      "type": "error"
    },
    {
      "inputs": [
        {
          "internalType": "uint256",
          "name": "length",
          "type": "uint256"
        }
      ],
      "name": "ECDSAInvalidSignatureLength",
      "type": "error"
    },
    {
      "inputs": [
        {
          "internalType": "bytes32",
          "name": "s",
          "type": "bytes32"
        }
      ],
      "name": "ECDSAInvalidSignatureS",
      "type": "error"
    },
    {
      "inputs": [
        {
          "internalType": "address",
          "name": "implementation",
          "type": "address"
        }
      ],
      "name": "ERC1967InvalidImplementation",
      "type": "error"
    },
    {
      "inputs": [],
      "name": "ERC1967NonPayable",
      "type": "error"
    },
    {
      "inputs": [],
      "name": "FailedCall",
      "type": "error"
    },
    {
      "inputs": [
        {
          "internalType": "address",
          "name": "account",
          "type": "address"
        },
        {
          "internalType": "uint256",
          "name": "currentNonce",
          "type": "uint256"
        }
      ],
      "name": "InvalidAccountNonce",
      "type": "error"
    },
    {
      "inputs": [],
      "name": "InvalidInitialization",
      "type": "error"
    },
    {
      "inputs": [],
      "name": "NotInitializing",
      "type": "error"
    },
    {
      "inputs": [
        {
          "internalType": "address",
          "name": "owner",
          "type": "address"
        }
      ],
      "name": "OwnableInvalidOwner",
      "type": "error"
    },
    {
      "inputs": [
        {
          "internalType": "address",
          "name": "account",
          "type": "address"
        }
      ],
      "name": "OwnableUnauthorizedAccount",
      "type": "error"
    },
    {
      "inputs": [],
      "name": "UUPSUnauthorizedCallContext",
      "type": "error"
    },
    {
      "inputs": [
        {
          "internalType": "bytes32",
          "name": "slot",
          "type": "bytes32"
        }
      ],
      "name": "UUPSUnsupportedProxiableUUID",
      "type": "error"
    },
    {
      "anonymous": false,
      "inputs": [],
      "name": "EIP712DomainChanged",
      "type": "event"
    },
    {
      "anonymous": false,
      "inputs": [
        {
          "indexed": true,
          "internalType": "uint256",
          "name": "index",
          "type": "uint256"
        },
        {
          "indexed": true,
          "internalType": "address",
          "name": "fund",
          "type": "address"
        }
      ],
      "name": "FundCreated",
      "type": "event"
    },
    {
      "anonymous": false,
      "inputs": [
        {
          "indexed": false,
          "internalType": "uint64",
          "name": "version",
          "type": "uint64"
        }
      ],
      "name": "Initialized",
      "type": "event"
    },
    {
      "anonymous": false,
      "inputs": [
        {
          "indexed": true,
          "internalType": "address",
          "name": "previousOwner",
          "type": "address"
        },
        {
          "indexed": true,
          "internalType": "address",
          "name": "newOwner",
          "type": "address"
        }
      ],
      "name": "OwnershipTransferred",
      "type": "event"
    },
    {
      "anonymous": false,
      "inputs": [
        {
          "indexed": true,
          "internalType": "address",
          "name": "owner",
          "type": "address"
        },
        {
          "indexed": true,
          "internalType": "address",
          "name": "token",
          "type": "address"
        },
        {
          "indexed": false,
          "internalType": "uint256",
          "name": "amountIn",
          "type": "uint256"
        },
        {
          "indexed": false,
          "internalType": "uint256",
          "name": "amountOut",
          "type": "uint256"
        }
      ],
      "name": "SwapETH",
      "type": "event"
    },
    {
      "anonymous": false,
      "inputs": [
        {
          "indexed": true,
          "internalType": "address",
          "name": "implementation",
          "type": "address"
        }
      ],
      "name": "Upgraded",
      "type": "event"
    },
    {
      "inputs": [],
      "name": "DOMAIN_SEPARATOR",
      "outputs": [
        {
          "internalType": "bytes32",
          "name": "",
          "type": "bytes32"
        }
      ],
      "stateMutability": "view",
      "type": "function"
    },
    {
      "inputs": [],
      "name": "UPGRADE_INTERFACE_VERSION",
      "outputs": [
        {
          "internalType": "string",
          "name": "",
          "type": "string"
        }
      ],
      "stateMutability": "view",
      "type": "function"
    },
    {
      "inputs": [
        {
          "internalType": "address",
          "name": "fund",
          "type": "address"
        },
        {
          "internalType": "address",
          "name": "to",
          "type": "address"
        },
        {
          "internalType": "address",
          "name": "token",
          "type": "address"
        },
        {
          "internalType": "uint256",
          "name": "amount",
          "type": "uint256"
        },
        {
          "internalType": "bytes",
          "name": "data",
          "type": "bytes"
        }
      ],
      "name": "buyFund",
      "outputs": [
        {
          "internalType": "uint256",
          "name": "shares",
          "type": "uint256"
        }
      ],
      "stateMutability": "nonpayable",
      "type": "function"
    },
    {
      "inputs": [
        {
          "internalType": "address",
          "name": "fund",
          "type": "address"
        },
        {
          "internalType": "address",
          "name": "to",
          "type": "address"
        },
        {
          "internalType": "bytes",
          "name": "data",
          "type": "bytes"
        }
      ],
      "name": "buyFund",
      "outputs": [
        {
          "internalType": "uint256",
          "name": "shares",
          "type": "uint256"
        }
      ],
      "stateMutability": "payable",
      "type": "function"
    },
    {
      "inputs": [
        {
          "internalType": "bytes",
          "name": "code",
          "type": "bytes"
        }
      ],
      "name": "createFund",
      "outputs": [
        {
          "internalType": "uint256",
          "name": "index",
          "type": "uint256"
        },
        {
          "internalType": "address",
          "name": "fund",
          "type": "address"
        }
      ],
      "stateMutability": "nonpayable",
      "type": "function"
    },
    {
      "inputs": [],
      "name": "eip712Domain",
      "outputs": [
        {
          "internalType": "bytes1",
          "name": "fields",
          "type": "bytes1"
        },
        {
          "internalType": "string",
          "name": "name",
          "type": "string"
        },
        {
          "internalType": "string",
          "name": "version",
          "type": "string"
        },
        {
          "internalType": "uint256",
          "name": "chainId",
          "type": "uint256"
        },
        {
          "internalType": "address",
          "name": "verifyingContract",
          "type": "address"
        },
        {
          "internalType": "bytes32",
          "name": "salt",
          "type": "bytes32"
        },
        {
          "internalType": "uint256[]",
          "name": "extensions",
          "type": "uint256[]"
        }
      ],
      "stateMutability": "view",
      "type": "function"
    },
    {
      "inputs": [
        {
          "internalType": "uint256",
          "name": "",
          "type": "uint256"
        }
      ],
      "name": "funds",
      "outputs": [
        {
          "internalType": "address",
          "name": "",
          "type": "address"
        }
      ],
      "stateMutability": "view",
      "type": "function"
    },
    {
      "inputs": [],
      "name": "fundsLength",
      "outputs": [
        {
          "internalType": "uint256",
          "name": "",
          "type": "uint256"
        }
      ],
      "stateMutability": "view",
      "type": "function"
    },
    {
      "inputs": [
        {
          "internalType": "address",
          "name": "fund",
          "type": "address"
        },
        {
          "internalType": "address",
          "name": "owner",
          "type": "address"
        }
      ],
      "name": "getFundAccount",
      "outputs": [
        {
          "internalType": "uint256",
          "name": "shares",
          "type": "uint256"
        },
        {
          "internalType": "uint256",
          "name": "value",
          "type": "uint256"
        },
        {
          "internalType": "uint256",
          "name": "cost",
          "type": "uint256"
        }
      ],
      "stateMutability": "view",
      "type": "function"
    },
    {
      "inputs": [
        {
          "internalType": "address",
          "name": "fund",
          "type": "address"
        }
      ],
      "name": "getFundProperty",
      "outputs": [
        {
          "components": [
            {
              "internalType": "address",
              "name": "token",
              "type": "address"
            },
            {
              "internalType": "uint256",
              "name": "value",
              "type": "uint256"
            },
            {
              "internalType": "uint256",
              "name": "shares",
              "type": "uint256"
            },
            {
              "internalType": "uint256",
              "name": "netValue",
              "type": "uint256"
            },
            {
              "internalType": "address",
              "name": "entry",
              "type": "address"
            },
            {
              "internalType": "address",
              "name": "provider",
              "type": "address"
            }
          ],
          "internalType": "struct IFund.Property",
          "name": "property",
          "type": "tuple"
        }
      ],
      "stateMutability": "view",
      "type": "function"
    },
    {
      "inputs": [
        {
          "internalType": "address",
          "name": "fund",
          "type": "address"
        }
      ],
      "name": "indexOf",
      "outputs": [
        {
          "internalType": "uint256",
          "name": "",
          "type": "uint256"
        }
      ],
      "stateMutability": "view",
      "type": "function"
    },
    {
      "inputs": [
        {
          "internalType": "address",
          "name": "initialOwner",
          "type": "address"
        }
      ],
      "name": "initialize",
      "outputs": [],
      "stateMutability": "nonpayable",
      "type": "function"
    },
    {
      "inputs": [
        {
          "internalType": "address",
          "name": "owner",
          "type": "address"
        }
      ],
      "name": "nonces",
      "outputs": [
        {
          "internalType": "uint256",
          "name": "",
          "type": "uint256"
        }
      ],
      "stateMutability": "view",
      "type": "function"
    },
    {
      "inputs": [],
      "name": "owner",
      "outputs": [
        {
          "internalType": "address",
          "name": "",
          "type": "address"
        }
      ],
      "stateMutability": "view",
      "type": "function"
    },
    {
      "inputs": [],
      "name": "proxiableUUID",
      "outputs": [
        {
          "internalType": "bytes32",
          "name": "",
          "type": "bytes32"
        }
      ],
      "stateMutability": "view",
      "type": "function"
    },
    {
      "inputs": [
        {
          "internalType": "address",
          "name": "fund",
          "type": "address"
        },
        {
          "internalType": "address",
          "name": "to",
          "type": "address"
        },
        {
          "internalType": "uint256",
          "name": "shares",
          "type": "uint256"
        },
        {
          "internalType": "bytes",
          "name": "data",
          "type": "bytes"
        }
      ],
      "name": "redeemFund",
      "outputs": [
        {
          "internalType": "uint256",
          "name": "amount",
          "type": "uint256"
        }
      ],
      "stateMutability": "nonpayable",
      "type": "function"
    },
    {
      "inputs": [
        {
          "internalType": "address",
          "name": "fund",
          "type": "address"
        },
        {
          "internalType": "bytes",
          "name": "data",
          "type": "bytes"
        }
      ],
      "name": "registerFund",
      "outputs": [
        {
          "internalType": "uint256",
          "name": "index",
          "type": "uint256"
        }
      ],
      "stateMutability": "nonpayable",
      "type": "function"
    },
    {
      "inputs": [],
      "name": "renounceOwnership",
      "outputs": [],
      "stateMutability": "nonpayable",
      "type": "function"
    },
    {
      "inputs": [
        {
          "internalType": "address",
          "name": "owner",
          "type": "address"
        },
        {
          "internalType": "address",
          "name": "token",
          "type": "address"
        },
        {
          "internalType": "uint256",
          "name": "amountIn",
          "type": "uint256"
        },
        {
          "internalType": "uint256",
          "name": "amountOut",
          "type": "uint256"
        },
        {
          "internalType": "bytes",
          "name": "signature",
          "type": "bytes"
        }
      ],
      "name": "swapETH",
      "outputs": [],
      "stateMutability": "nonpayable",
      "type": "function"
    },
    {
      "inputs": [
        {
          "internalType": "address",
          "name": "newOwner",
          "type": "address"
        }
      ],
      "name": "transferOwnership",
      "outputs": [],
      "stateMutability": "nonpayable",
      "type": "function"
    },
    {
      "inputs": [
        {
          "internalType": "address",
          "name": "fund",
          "type": "address"
        }
      ],
      "name": "updateFundValue",
      "outputs": [
        {
          "internalType": "uint256",
          "name": "netValue",
          "type": "uint256"
        }
      ],
      "stateMutability": "nonpayable",
      "type": "function"
    },
    {
      "inputs": [
        {
          "internalType": "address",
          "name": "newImplementation",
          "type": "address"
        },
        {
          "internalType": "bytes",
          "name": "data",
          "type": "bytes"
        }
      ],
      "name": "upgradeToAndCall",
      "outputs": [],
      "stateMutability": "payable",
      "type": "function"
    },
    {
      "inputs": [
        {
          "internalType": "uint256",
          "name": "amount",
          "type": "uint256"
        }
      ],
      "name": "withdraw",
      "outputs": [],
      "stateMutability": "nonpayable",
      "type": "function"
    },
    {
      "inputs": [
        {
          "internalType": "address",
          "name": "token",
          "type": "address"
        },
        {
          "internalType": "uint256",
          "name": "amount",
          "type": "uint256"
        }
      ],
      "name": "withdraw",
      "outputs": [],
      "stateMutability": "nonpayable",
      "type": "function"
    },
    {
      "stateMutability": "payable",
      "type": "receive"
    }
  ],
  "bytecode": "0x60a06040523060805234801561001457600080fd5b5061001d610022565b6100d4565b7ff0c57e16840df040f15088dc2f81fe391c3923bec73e23a9662efc9c229c6a00805468010000000000000000900460ff16156100725760405163f92ee8a960e01b815260040160405180910390fd5b80546001600160401b03908116146100d15780546001600160401b0319166001600160401b0390811782556040519081527fc7f505b2f371ae2175ee4913f4499e1f2633a7b5936321eed1cdaeb6115181d29060200160405180910390a15b50565b608051612db66100fd600039600081816117ef015281816118180152611a340152612db66000f3fe60806040526004361061018f5760003560e01c80639782e1f8116100d6578063c4d66de81161007f578063f2fde38b11610059578063f2fde38b14610566578063f3fef3a314610586578063fd6aad25146105a657600080fd5b8063c4d66de814610506578063dc3d3d8714610526578063ed7d4d4b1461054657600080fd5b8063b185ce9f116100b0578063b185ce9f14610489578063bb99abd6146104a9578063c1c66f11146104bc57600080fd5b80639782e1f81461034a5780639b8ec8ef14610385578063ad3cb1cc1461043357600080fd5b806352d1902d116101385780637ecebe00116101125780637ecebe00146102b857806384b0196e146102d85780638da5cb5b1461030057600080fd5b806352d1902d14610249578063715018a61461025e5780637b8e88951461027357600080fd5b80632e1a7d4d116101695780632e1a7d4d146102015780633644e515146102215780634f1ef2861461023657600080fd5b80630905c5a01461019b57806319222323146101bf5780632742be2d146101e157600080fd5b3661019657005b600080fd5b3480156101a757600080fd5b506000545b6040519081526020015b60405180910390f35b3480156101cb57600080fd5b506101df6101da3660046123f3565b6105c6565b005b3480156101ed57600080fd5b506101ac6101fc36600461254b565b6108ed565b34801561020d57600080fd5b506101df61021c3660046125ca565b610a32565b34801561022d57600080fd5b506101ac610a6b565b6101df6102443660046125e3565b610a7a565b34801561025557600080fd5b506101ac610a95565b34801561026a57600080fd5b506101df610ac4565b34801561027f57600080fd5b5061029361028e3660046125ca565b610ad8565b60405173ffffffffffffffffffffffffffffffffffffffff90911681526020016101b6565b3480156102c457600080fd5b506101ac6102d3366004612633565b610b0f565b3480156102e457600080fd5b506102ed610b5b565b6040516101b697969594939291906126be565b34801561030c57600080fd5b507f9016d09d72d40fdae2fd8ceac6b6234c7706214fd39c1cd1e609a0528c1993005473ffffffffffffffffffffffffffffffffffffffff16610293565b34801561035657600080fd5b5061036a61036536600461277f565b610c57565b604080519384526020840192909252908201526060016101b6565b34801561039157600080fd5b506103a56103a0366004612633565b610cfd565b6040516101b69190600060c08201905073ffffffffffffffffffffffffffffffffffffffff835116825260208301516020830152604083015160408301526060830151606083015273ffffffffffffffffffffffffffffffffffffffff608084015116608083015273ffffffffffffffffffffffffffffffffffffffff60a08401511660a083015292915050565b34801561043f57600080fd5b5061047c6040518060400160405280600581526020017f352e302e3000000000000000000000000000000000000000000000000000000081525081565b6040516101b691906127b8565b34801561049557600080fd5b506101ac6104a43660046127cb565b610d9e565b6101ac6104b7366004612820565b611044565b3480156104c857600080fd5b506104dc6104d7366004612882565b6110cd565b6040805192835273ffffffffffffffffffffffffffffffffffffffff9091166020830152016101b6565b34801561051257600080fd5b506101df610521366004612633565b611190565b34801561053257600080fd5b506101ac610541366004612633565b61138c565b34801561055257600080fd5b506101ac6105613660046128c4565b611407565b34801561057257600080fd5b506101df610581366004612633565b6114ae565b34801561059257600080fd5b506101df6105a1366004612930565b611512565b3480156105b257600080fd5b506101ac6105c1366004612633565b6115b6565b6105ce6116cd565b60007f8cae5326ca7e7918e7703094db9c21b53d6b22ee7696679f2893d42745e3a360878787876106488c73ffffffffffffffffffffffffffffffffffffffff1660009081527f5ab42ced628888259c08ac98db1eb0cf702fc1501344311d8b100cd1bfe4bb006020526040902080546001810190915590565b60408051602081019790975273ffffffffffffffffffffffffffffffffffffffff95861690870152939092166060850152608084015260a083015260c082015260e00160405160208183030381529060405280519060200120905060006106ae8261175b565b905060006106f28286868080601f0160208091040260200160405190810160405280939291908181526020018383808284376000920191909152506117a392505050565b90508073ffffffffffffffffffffffffffffffffffffffff168973ffffffffffffffffffffffffffffffffffffffff161461078e576040517f08c379a000000000000000000000000000000000000000000000000000000000815260206004820152601160248201527f696e76616c6964207369676e617475726500000000000000000000000000000060448201526064015b60405180910390fd5b6040517f23b872dd00000000000000000000000000000000000000000000000000000000815273ffffffffffffffffffffffffffffffffffffffff8a81166004830152306024830152604482018990528916906323b872dd906064016020604051808303816000875af1158015610809573d6000803e3d6000fd5b505050506040513d601f19601f8201168201806040525081019061082d919061295c565b5060405173ffffffffffffffffffffffffffffffffffffffff8a169087156108fc029088906000818181858888f19350505050158015610871573d6000803e3d6000fd5b508773ffffffffffffffffffffffffffffffffffffffff168973ffffffffffffffffffffffffffffffffffffffff167f9173a42b413c615faa9b1be56906b5d7f45ee241043462388b06dc7d417132b589896040516108da929190918252602082015260400190565b60405180910390a3505050505050505050565b6040517f23b872dd00000000000000000000000000000000000000000000000000000000815233600482015273ffffffffffffffffffffffffffffffffffffffff868116602483015260448201849052600091908516906323b872dd906064016020604051808303816000875af115801561096c573d6000803e3d6000fd5b505050506040513d601f19601f82011682018060405250810190610990919061295c565b506040517fb510391f00000000000000000000000000000000000000000000000000000000815273ffffffffffffffffffffffffffffffffffffffff87169063b510391f906109e5908890869060040161297e565b6020604051808303816000875af1158015610a04573d6000803e3d6000fd5b505050506040513d601f19601f82011682018060405250810190610a2891906129ad565b9695505050505050565b610a3a6116cd565b604051339082156108fc029083906000818181858888f19350505050158015610a67573d6000803e3d6000fd5b5050565b6000610a756117cd565b905090565b610a826117d7565b610a8b826118db565b610a6782826118e3565b6000610a9f611a1c565b507f360894a13ba1a3210667c828492db98dca3e2076cc3735a920a3ca505d382bbc90565b610acc6116cd565b610ad66000611a8b565b565b60008181548110610ae857600080fd5b60009182526020909120015473ffffffffffffffffffffffffffffffffffffffff16905081565b73ffffffffffffffffffffffffffffffffffffffff811660009081527f5ab42ced628888259c08ac98db1eb0cf702fc1501344311d8b100cd1bfe4bb0060205260408120545b92915050565b600060608082808083817fa16a46d94261c7517cc8ff89f61c0ce93598e3c849801011dee649a6a557d1008054909150158015610b9a57506001810154155b610c00576040517f08c379a000000000000000000000000000000000000000000000000000000000815260206004820152601560248201527f4549503731323a20556e696e697469616c697a656400000000000000000000006044820152606401610785565b610c08611b21565b610c10611bf6565b604080516000808252602082019092527f0f000000000000000000000000000000000000000000000000000000000000009c939b5091995046985030975095509350915050565b6040517ffbcbc0f100000000000000000000000000000000000000000000000000000000815273ffffffffffffffffffffffffffffffffffffffff8281166004830152600091829182919086169063fbcbc0f190602401606060405180830381865afa158015610ccb573d6000803e3d6000fd5b505050506040513d601f19601f82011682018060405250810190610cef91906129c6565b9250925092505b9250925092565b6040805160c081018252600080825260208201819052918101829052606081018290526080810182905260a08101919091528173ffffffffffffffffffffffffffffffffffffffff1663077510706040518163ffffffff1660e01b815260040160c060405180830381865afa158015610d7a573d6000803e3d6000fd5b505050506040513d601f19601f82011682018060405250810190610b5591906129f4565b600073ffffffffffffffffffffffffffffffffffffffff8416610e1d576040517f08c379a000000000000000000000000000000000000000000000000000000000815260206004820152601460248201527f696e7661696c642066756e6420616464726573730000000000000000000000006044820152606401610785565b6000541580610ea4575073ffffffffffffffffffffffffffffffffffffffff8416600090815260016020526040902054158015610ea457508373ffffffffffffffffffffffffffffffffffffffff1660008081548110610e7f57610e7f612a91565b60009182526020909120015473ffffffffffffffffffffffffffffffffffffffff1614155b610f0a576040517f08c379a000000000000000000000000000000000000000000000000000000000815260206004820152600e60248201527f6578697374207468652066756e640000000000000000000000000000000000006044820152606401610785565b6040517fd1f5789400000000000000000000000000000000000000000000000000000000815273ffffffffffffffffffffffffffffffffffffffff85169063d1f5789490610f6090309087908790600401612ac0565b600060405180830381600087803b158015610f7a57600080fd5b505af1158015610f8e573d6000803e3d6000fd5b50506000805473ffffffffffffffffffffffffffffffffffffffff881680835260016020819052604080852084905590830184558380527f290decd9548b62a8d60345a988386fc84ba6bc95484008f6362f93160ef3e563830180547fffffffffffffffffffffffff000000000000000000000000000000000000000016831790555191955093508492507fb2717551cae9cbea884db7f3e7caba91bf864fefa32dc97702947780bb7d1dc29190a39392505050565b60008373ffffffffffffffffffffffffffffffffffffffff1663b510391f3485856040518463ffffffff1660e01b815260040161108292919061297e565b60206040518083038185885af11580156110a0573d6000803e3d6000fd5b50505050506040513d601f19601f820116820180604052508101906110c591906129ad565b949350505050565b6000806110d86116cd565b82846000f06000805473ffffffffffffffffffffffffffffffffffffffff831680835260016020819052604080852084905590830184558380527f290decd9548b62a8d60345a988386fc84ba6bc95484008f6362f93160ef3e563830180547fffffffffffffffffffffffff000000000000000000000000000000000000000016831790555191955092935084917fb2717551cae9cbea884db7f3e7caba91bf864fefa32dc97702947780bb7d1dc291a39250929050565b7ff0c57e16840df040f15088dc2f81fe391c3923bec73e23a9662efc9c229c6a00805468010000000000000000810460ff16159067ffffffffffffffff166000811580156111db5750825b905060008267ffffffffffffffff1660011480156111f85750303b155b905081158015611206575080155b1561123d576040517ff92ee8a900000000000000000000000000000000000000000000000000000000815260040160405180910390fd5b84547fffffffffffffffffffffffffffffffffffffffffffffffff0000000000000000166001178555831561129e5784547fffffffffffffffffffffffffffffffffffffffffffffff00ffffffffffffffff16680100000000000000001785555b6112a786611c47565b6112af611c58565b6113236040518060400160405280600581526020017f656e7472790000000000000000000000000000000000000000000000000000008152506040518060400160405280600181526020017f3100000000000000000000000000000000000000000000000000000000000000815250611c60565b83156113845784547fffffffffffffffffffffffffffffffffffffffffffffff00ffffffffffffffff168555604051600181527fc7f505b2f371ae2175ee4913f4499e1f2633a7b5936321eed1cdaeb6115181d29060200160405180910390a15b505050505050565b60006113966116cd565b8173ffffffffffffffffffffffffffffffffffffffff1663e8bf9be56040518163ffffffff1660e01b81526004016020604051808303816000875af11580156113e3573d6000803e3d6000fd5b505050506040513d601f19601f82011682018060405250810190610b5591906129ad565b6040517fd2fc555200000000000000000000000000000000000000000000000000000000815260009073ffffffffffffffffffffffffffffffffffffffff86169063d2fc555290611462903390889088908890600401612b2a565b6020604051808303816000875af1158015611481573d6000803e3d6000fd5b505050506040513d601f19601f820116820180604052508101906114a591906129ad565b95945050505050565b6114b66116cd565b73ffffffffffffffffffffffffffffffffffffffff8116611506576040517f1e4fbdf700000000000000000000000000000000000000000000000000000000815260006004820152602401610785565b61150f81611a8b565b50565b61151a6116cd565b6040517fa9059cbb0000000000000000000000000000000000000000000000000000000081523360048201526024810182905273ffffffffffffffffffffffffffffffffffffffff83169063a9059cbb906044016020604051808303816000875af115801561158d573d6000803e3d6000fd5b505050506040513d601f19601f820116820180604052508101906115b1919061295c565b505050565b73ffffffffffffffffffffffffffffffffffffffff811660009081526001602052604081205415158061163e57506000541580159061163e57508173ffffffffffffffffffffffffffffffffffffffff166000808154811061161a5761161a612a91565b60009182526020909120015473ffffffffffffffffffffffffffffffffffffffff16145b6116a4576040517f08c379a000000000000000000000000000000000000000000000000000000000815260206004820152601260248201527f6e6f74206578697374207468652066756e6400000000000000000000000000006044820152606401610785565b5073ffffffffffffffffffffffffffffffffffffffff1660009081526001602052604090205490565b3361170c7f9016d09d72d40fdae2fd8ceac6b6234c7706214fd39c1cd1e609a0528c1993005473ffffffffffffffffffffffffffffffffffffffff1690565b73ffffffffffffffffffffffffffffffffffffffff1614610ad6576040517f118cdaa7000000000000000000000000000000000000000000000000000000008152336004820152602401610785565b6000610b556117686117cd565b836040517f19010000000000000000000000000000000000000000000000000000000000008152600281019290925260228201526042902090565b6000806000806117b38686611cd3565b9250925092506117c38282611d1d565b5090949350505050565b6000610a75611e21565b3073ffffffffffffffffffffffffffffffffffffffff7f00000000000000000000000000000000000000000000000000000000000000001614806118a457507f000000000000000000000000000000000000000000000000000000000000000073ffffffffffffffffffffffffffffffffffffffff1661188b7f360894a13ba1a3210667c828492db98dca3e2076cc3735a920a3ca505d382bbc5473ffffffffffffffffffffffffffffffffffffffff1690565b73ffffffffffffffffffffffffffffffffffffffff1614155b15610ad6576040517fe07c8dba00000000000000000000000000000000000000000000000000000000815260040160405180910390fd5b61150f6116cd565b8173ffffffffffffffffffffffffffffffffffffffff166352d1902d6040518163ffffffff1660e01b8152600401602060405180830381865afa925050508015611968575060408051601f3d9081017fffffffffffffffffffffffffffffffffffffffffffffffffffffffffffffffe0168201909252611965918101906129ad565b60015b6119b6576040517f4c9c8ce300000000000000000000000000000000000000000000000000000000815273ffffffffffffffffffffffffffffffffffffffff83166004820152602401610785565b7f360894a13ba1a3210667c828492db98dca3e2076cc3735a920a3ca505d382bbc8114611a12576040517faa1d49a400000000000000000000000000000000000000000000000000000000815260048101829052602401610785565b6115b18383611e95565b3073ffffffffffffffffffffffffffffffffffffffff7f00000000000000000000000000000000000000000000000000000000000000001614610ad6576040517fe07c8dba00000000000000000000000000000000000000000000000000000000815260040160405180910390fd5b7f9016d09d72d40fdae2fd8ceac6b6234c7706214fd39c1cd1e609a0528c19930080547fffffffffffffffffffffffff0000000000000000000000000000000000000000811673ffffffffffffffffffffffffffffffffffffffff848116918217845560405192169182907f8be0079c531659141344cd1fd0a4f28419497f9722a3daafe3b4186f6b6457e090600090a3505050565b7fa16a46d94261c7517cc8ff89f61c0ce93598e3c849801011dee649a6a557d10280546060917fa16a46d94261c7517cc8ff89f61c0ce93598e3c849801011dee649a6a557d10091611b7290612b7b565b80601f0160208091040260200160405190810160405280929190818152602001828054611b9e90612b7b565b8015611beb5780601f10611bc057610100808354040283529160200191611beb565b820191906000526020600020905b815481529060010190602001808311611bce57829003601f168201915b505050505091505090565b7fa16a46d94261c7517cc8ff89f61c0ce93598e3c849801011dee649a6a557d10380546060917fa16a46d94261c7517cc8ff89f61c0ce93598e3c849801011dee649a6a557d10091611b7290612b7b565b611c4f611ef8565b61150f81611f5f565b610ad6611ef8565b611c68611ef8565b7fa16a46d94261c7517cc8ff89f61c0ce93598e3c849801011dee649a6a557d1007fa16a46d94261c7517cc8ff89f61c0ce93598e3c849801011dee649a6a557d102611cb48482612c1c565b5060038101611cc38382612c1c565b5060008082556001909101555050565b60008060008351604103611d0d5760208401516040850151606086015160001a611cff88828585611f67565b955095509550505050610cf6565b5050815160009150600290610cf6565b6000826003811115611d3157611d31612d35565b03611d3a575050565b6001826003811115611d4e57611d4e612d35565b03611d85576040517ff645eedf00000000000000000000000000000000000000000000000000000000815260040160405180910390fd5b6002826003811115611d9957611d99612d35565b03611dd3576040517ffce698f700000000000000000000000000000000000000000000000000000000815260048101829052602401610785565b6003826003811115611de757611de7612d35565b03610a67576040517fd78bce0c00000000000000000000000000000000000000000000000000000000815260048101829052602401610785565b60007f8b73c3c69bb8fe3d512ecc4cf759cc79239f7b179b0ffacaa9a75d522b39400f611e4c612061565b611e546120dd565b60408051602081019490945283019190915260608201524660808201523060a082015260c00160405160208183030381529060405280519060200120905090565b611e9e82612133565b60405173ffffffffffffffffffffffffffffffffffffffff8316907fbc7cd75a20ee27fd9adebab32041f755214dbc6bffa90cc0225b39da2e5c2d3b90600090a2805115611ef0576115b18282612202565b610a6761227c565b7ff0c57e16840df040f15088dc2f81fe391c3923bec73e23a9662efc9c229c6a005468010000000000000000900460ff16610ad6576040517fd7e6bcf800000000000000000000000000000000000000000000000000000000815260040160405180910390fd5b6114b6611ef8565b600080807f7fffffffffffffffffffffffffffffff5d576e7357a4501ddfe92f46681b20a0841115611fa25750600091506003905082612057565b604080516000808252602082018084528a905260ff891692820192909252606081018790526080810186905260019060a0016020604051602081039080840390855afa158015611ff6573d6000803e3d6000fd5b50506040517fffffffffffffffffffffffffffffffffffffffffffffffffffffffffffffffe0015191505073ffffffffffffffffffffffffffffffffffffffff811661204d57506000925060019150829050612057565b9250600091508190505b9450945094915050565b60007fa16a46d94261c7517cc8ff89f61c0ce93598e3c849801011dee649a6a557d1008161208d611b21565b8051909150156120a557805160209091012092915050565b815480156120b4579392505050565b7fc5d2460186f7233c927e7db2dcc703c0e500b653ca82273b7bfad8045d85a470935050505090565b60007fa16a46d94261c7517cc8ff89f61c0ce93598e3c849801011dee649a6a557d10081612109611bf6565b80519091501561212157805160209091012092915050565b600182015480156120b4579392505050565b8073ffffffffffffffffffffffffffffffffffffffff163b60000361219c576040517f4c9c8ce300000000000000000000000000000000000000000000000000000000815273ffffffffffffffffffffffffffffffffffffffff82166004820152602401610785565b7f360894a13ba1a3210667c828492db98dca3e2076cc3735a920a3ca505d382bbc80547fffffffffffffffffffffffff00000000000000000000000000000000000000001673ffffffffffffffffffffffffffffffffffffffff92909216919091179055565b60606000808473ffffffffffffffffffffffffffffffffffffffff168460405161222c9190612d64565b600060405180830381855af49150503d8060008114612267576040519150601f19603f3d011682016040523d82523d6000602084013e61226c565b606091505b50915091506114a58583836122b4565b3415610ad6576040517fb398979f00000000000000000000000000000000000000000000000000000000815260040160405180910390fd5b6060826122c9576122c482612346565b61233f565b81511580156122ed575073ffffffffffffffffffffffffffffffffffffffff84163b155b1561233c576040517f9996b31500000000000000000000000000000000000000000000000000000000815273ffffffffffffffffffffffffffffffffffffffff85166004820152602401610785565b50805b9392505050565b8051156123565780518082602001fd5b6040517fd6bda27500000000000000000000000000000000000000000000000000000000815260040160405180910390fd5b73ffffffffffffffffffffffffffffffffffffffff8116811461150f57600080fd5b60008083601f8401126123bc57600080fd5b50813567ffffffffffffffff8111156123d457600080fd5b6020830191508360208285010111156123ec57600080fd5b9250929050565b60008060008060008060a0878903121561240c57600080fd5b863561241781612388565b9550602087013561242781612388565b94506040870135935060608701359250608087013567ffffffffffffffff81111561245157600080fd5b61245d89828a016123aa565b979a9699509497509295939492505050565b7f4e487b7100000000000000000000000000000000000000000000000000000000600052604160045260246000fd5b600082601f8301126124af57600080fd5b813567ffffffffffffffff8111156124c9576124c961246f565b604051601f82017fffffffffffffffffffffffffffffffffffffffffffffffffffffffffffffffe0908116603f0116810167ffffffffffffffff811182821017156125165761251661246f565b60405281815283820160200185101561252e57600080fd5b816020850160208301376000918101602001919091529392505050565b600080600080600060a0868803121561256357600080fd5b853561256e81612388565b9450602086013561257e81612388565b9350604086013561258e81612388565b925060608601359150608086013567ffffffffffffffff8111156125b157600080fd5b6125bd8882890161249e565b9150509295509295909350565b6000602082840312156125dc57600080fd5b5035919050565b600080604083850312156125f657600080fd5b823561260181612388565b9150602083013567ffffffffffffffff81111561261d57600080fd5b6126298582860161249e565b9150509250929050565b60006020828403121561264557600080fd5b813561233f81612388565b60005b8381101561266b578181015183820152602001612653565b50506000910152565b6000815180845261268c816020860160208601612650565b601f017fffffffffffffffffffffffffffffffffffffffffffffffffffffffffffffffe0169290920160200192915050565b7fff000000000000000000000000000000000000000000000000000000000000008816815260e0602082015260006126f960e0830189612674565b828103604084015261270b8189612674565b6060840188905273ffffffffffffffffffffffffffffffffffffffff8716608085015260a0840186905283810360c08501528451808252602080870193509091019060005b8181101561276e578351835260209384019390920191600101612750565b50909b9a5050505050505050505050565b6000806040838503121561279257600080fd5b823561279d81612388565b915060208301356127ad81612388565b809150509250929050565b60208152600061233f6020830184612674565b6000806000604084860312156127e057600080fd5b83356127eb81612388565b9250602084013567ffffffffffffffff81111561280757600080fd5b612813868287016123aa565b9497909650939450505050565b60008060006060848603121561283557600080fd5b833561284081612388565b9250602084013561285081612388565b9150604084013567ffffffffffffffff81111561286c57600080fd5b6128788682870161249e565b9150509250925092565b6000806020838503121561289557600080fd5b823567ffffffffffffffff8111156128ac57600080fd5b6128b8858286016123aa565b90969095509350505050565b600080600080608085870312156128da57600080fd5b84356128e581612388565b935060208501356128f581612388565b925060408501359150606085013567ffffffffffffffff81111561291857600080fd5b6129248782880161249e565b91505092959194509250565b6000806040838503121561294357600080fd5b823561294e81612388565b946020939093013593505050565b60006020828403121561296e57600080fd5b8151801515811461233f57600080fd5b73ffffffffffffffffffffffffffffffffffffffff831681526040602082015260006110c56040830184612674565b6000602082840312156129bf57600080fd5b5051919050565b6000806000606084860312156129db57600080fd5b5050815160208301516040909301519094929350919050565b600060c0828403128015612a0757600080fd5b5060405160009060c0810167ffffffffffffffff81118282101715612a2e57612a2e61246f565b6040528351612a3c81612388565b815260208481015190820152604080850151908201526060808501519082015260808401519150612a6c82612388565b81608082015260a08401519150612a8282612388565b60a08101919091529392505050565b7f4e487b7100000000000000000000000000000000000000000000000000000000600052603260045260246000fd5b73ffffffffffffffffffffffffffffffffffffffff8416815260406020820152816040820152818360608301376000818301606090810191909152601f9092017fffffffffffffffffffffffffffffffffffffffffffffffffffffffffffffffe016010192915050565b73ffffffffffffffffffffffffffffffffffffffff8516815273ffffffffffffffffffffffffffffffffffffffff84166020820152826040820152608060608201526000610a286080830184612674565b600181811c90821680612b8f57607f821691505b602082108103612bc8577f4e487b7100000000000000000000000000000000000000000000000000000000600052602260045260246000fd5b50919050565b601f8211156115b157806000526020600020601f840160051c81016020851015612bf55750805b601f840160051c820191505b81811015612c155760008155600101612c01565b5050505050565b815167ffffffffffffffff811115612c3657612c3661246f565b612c4a81612c448454612b7b565b84612bce565b6020601f821160018114612c9c5760008315612c665750848201515b7fffffffffffffffffffffffffffffffffffffffffffffffffffffffffffffffff600385901b1c1916600184901b178455612c15565b6000848152602081207fffffffffffffffffffffffffffffffffffffffffffffffffffffffffffffffe08516915b82811015612cea5787850151825560209485019460019092019101612cca565b5084821015612d2657868401517fffffffffffffffffffffffffffffffffffffffffffffffffffffffffffffffff600387901b60f8161c191681555b50505050600190811b01905550565b7f4e487b7100000000000000000000000000000000000000000000000000000000600052602160045260246000fd5b60008251612d76818460208701612650565b919091019291505056fea2646970667358221220bf69a8a3b846a07ff1ca50a0d2b179e4911695c842f8a2693bffb2b90b4d5cf864736f6c634300081c0033",
  "linkReferences": {},
  "deployedLinkReferences": {}
}