{
  "_format": "hh-sol-artifact-1",
  "contractName": "Entry",
  "sourceName": "contracts/Entry.sol",
  "abi": [
    {
      "inputs": [],
      "stateMutability": "nonpayable",
      "type": "constructor"
    },
    {
      "inputs": [
        {
          "internalType": "address",
          "name": "target",
          "type": "address"
        }
      ],
      "name": "AddressEmptyCode",
      "type": "error"
    },
    {
      "inputs": [],
      "name": "ECDSAInvalidSignature",
      "type": "error"
    },
    {
      "inputs": [
        {
          "internalType": "uint256",
          "name": "length",
          "type": "uint256"
        }
      ],
      "name": "ECDSAInvalidSignatureLength",
      "type": "error"
    },
    {
      "inputs": [
        {
          "internalType": "bytes32",
          "name": "s",
          "type": "bytes32"
        }
      ],
      "name": "ECDSAInvalidSignatureS",
      "type": "error"
    },
    {
      "inputs": [
        {
          "internalType": "address",
          "name": "implementation",
          "type": "address"
        }
      ],
      "name": "ERC1967InvalidImplementation",
      "type": "error"
    },
    {
      "inputs": [],
      "name": "ERC1967NonPayable",
      "type": "error"
    },
    {
      "inputs": [],
      "name": "FailedCall",
      "type": "error"
    },
    {
      "inputs": [
        {
          "internalType": "address",
          "name": "account",
          "type": "address"
        },
        {
          "internalType": "uint256",
          "name": "currentNonce",
          "type": "uint256"
        }
      ],
      "name": "InvalidAccountNonce",
      "type": "error"
    },
    {
      "inputs": [],
      "name": "InvalidInitialization",
      "type": "error"
    },
    {
      "inputs": [],
      "name": "NotInitializing",
      "type": "error"
    },
    {
      "inputs": [
        {
          "internalType": "address",
          "name": "owner",
          "type": "address"
        }
      ],
      "name": "OwnableInvalidOwner",
      "type": "error"
    },
    {
      "inputs": [
        {
          "internalType": "address",
          "name": "account",
          "type": "address"
        }
      ],
      "name": "OwnableUnauthorizedAccount",
      "type": "error"
    },
    {
      "inputs": [],
      "name": "UUPSUnauthorizedCallContext",
      "type": "error"
    },
    {
      "inputs": [
        {
          "internalType": "bytes32",
          "name": "slot",
          "type": "bytes32"
        }
      ],
      "name": "UUPSUnsupportedProxiableUUID",
      "type": "error"
    },
    {
      "anonymous": false,
      "inputs": [],
      "name": "EIP712DomainChanged",
      "type": "event"
    },
    {
      "anonymous": false,
      "inputs": [
        {
          "indexed": true,
          "internalType": "uint256",
          "name": "index",
          "type": "uint256"
        },
        {
          "indexed": true,
          "internalType": "address",
          "name": "fund",
          "type": "address"
        }
      ],
      "name": "FundCreated",
      "type": "event"
    },
    {
      "anonymous": false,
      "inputs": [
        {
          "indexed": false,
          "internalType": "uint64",
          "name": "version",
          "type": "uint64"
        }
      ],
      "name": "Initialized",
      "type": "event"
    },
    {
      "anonymous": false,
      "inputs": [
        {
          "indexed": true,
          "internalType": "address",
          "name": "previousOwner",
          "type": "address"
        },
        {
          "indexed": true,
          "internalType": "address",
          "name": "newOwner",
          "type": "address"
        }
      ],
      "name": "OwnershipTransferred",
      "type": "event"
    },
    {
      "anonymous": false,
      "inputs": [
        {
          "indexed": true,
          "internalType": "address",
          "name": "owner",
          "type": "address"
        },
        {
          "indexed": true,
          "internalType": "address",
          "name": "token",
          "type": "address"
        },
        {
          "indexed": false,
          "internalType": "uint256",
          "name": "amountIn",
          "type": "uint256"
        },
        {
          "indexed": false,
          "internalType": "uint256",
          "name": "amountOut",
          "type": "uint256"
        }
      ],
      "name": "SwapETH",
      "type": "event"
    },
    {
      "anonymous": false,
      "inputs": [
        {
          "indexed": true,
          "internalType": "address",
          "name": "implementation",
          "type": "address"
        }
      ],
      "name": "Upgraded",
      "type": "event"
    },
    {
      "inputs": [],
      "name": "DOMAIN_SEPARATOR",
      "outputs": [
        {
          "internalType": "bytes32",
          "name": "",
          "type": "bytes32"
        }
      ],
      "stateMutability": "view",
      "type": "function"
    },
    {
      "inputs": [],
      "name": "UPGRADE_INTERFACE_VERSION",
      "outputs": [
        {
          "internalType": "string",
          "name": "",
          "type": "string"
        }
      ],
      "stateMutability": "view",
      "type": "function"
    },
    {
      "inputs": [
        {
          "internalType": "address",
          "name": "fund",
          "type": "address"
        },
        {
          "internalType": "address",
          "name": "to",
          "type": "address"
        },
        {
          "internalType": "address",
          "name": "token",
          "type": "address"
        },
        {
          "internalType": "uint256",
          "name": "amount",
          "type": "uint256"
        }
      ],
      "name": "buyFund",
      "outputs": [
        {
          "internalType": "uint256",
          "name": "shares",
          "type": "uint256"
        },
        {
          "internalType": "uint256",
          "name": "value",
          "type": "uint256"
        }
      ],
      "stateMutability": "nonpayable",
      "type": "function"
    },
    {
      "inputs": [
        {
          "internalType": "address",
          "name": "fund",
          "type": "address"
        },
        {
          "internalType": "address",
          "name": "to",
          "type": "address"
        },
        {
          "internalType": "address",
          "name": "token",
          "type": "address"
        },
        {
          "internalType": "uint256",
          "name": "amount",
          "type": "uint256"
        },
        {
          "internalType": "uint256",
          "name": "deadline",
          "type": "uint256"
        },
        {
          "internalType": "bytes",
          "name": "permit",
          "type": "bytes"
        }
      ],
      "name": "buyFund",
      "outputs": [
        {
          "internalType": "uint256",
          "name": "shares",
          "type": "uint256"
        },
        {
          "internalType": "uint256",
          "name": "value",
          "type": "uint256"
        }
      ],
      "stateMutability": "nonpayable",
      "type": "function"
    },
    {
      "inputs": [
        {
          "internalType": "address",
          "name": "fund",
          "type": "address"
        },
        {
          "internalType": "address",
          "name": "to",
          "type": "address"
        }
      ],
      "name": "buyFund",
      "outputs": [
        {
          "internalType": "uint256",
          "name": "shares",
          "type": "uint256"
        },
        {
          "internalType": "uint256",
          "name": "value",
          "type": "uint256"
        }
      ],
      "stateMutability": "payable",
      "type": "function"
    },
    {
      "inputs": [
        {
          "internalType": "bytes",
          "name": "code",
          "type": "bytes"
        }
      ],
      "name": "createFund",
      "outputs": [
        {
          "internalType": "uint256",
          "name": "index",
          "type": "uint256"
        },
        {
          "internalType": "address",
          "name": "fund",
          "type": "address"
        }
      ],
      "stateMutability": "nonpayable",
      "type": "function"
    },
    {
      "inputs": [],
      "name": "eip712Domain",
      "outputs": [
        {
          "internalType": "bytes1",
          "name": "fields",
          "type": "bytes1"
        },
        {
          "internalType": "string",
          "name": "name",
          "type": "string"
        },
        {
          "internalType": "string",
          "name": "version",
          "type": "string"
        },
        {
          "internalType": "uint256",
          "name": "chainId",
          "type": "uint256"
        },
        {
          "internalType": "address",
          "name": "verifyingContract",
          "type": "address"
        },
        {
          "internalType": "bytes32",
          "name": "salt",
          "type": "bytes32"
        },
        {
          "internalType": "uint256[]",
          "name": "extensions",
          "type": "uint256[]"
        }
      ],
      "stateMutability": "view",
      "type": "function"
    },
    {
      "inputs": [],
      "name": "feeTo",
      "outputs": [
        {
          "internalType": "address",
          "name": "",
          "type": "address"
        }
      ],
      "stateMutability": "view",
      "type": "function"
    },
    {
      "inputs": [
        {
          "internalType": "uint256",
          "name": "",
          "type": "uint256"
        }
      ],
      "name": "funds",
      "outputs": [
        {
          "internalType": "address",
          "name": "",
          "type": "address"
        }
      ],
      "stateMutability": "view",
      "type": "function"
    },
    {
      "inputs": [],
      "name": "fundsLength",
      "outputs": [
        {
          "internalType": "uint256",
          "name": "",
          "type": "uint256"
        }
      ],
      "stateMutability": "view",
      "type": "function"
    },
    {
      "inputs": [
        {
          "internalType": "address",
          "name": "fund",
          "type": "address"
        },
        {
          "internalType": "address",
          "name": "owner",
          "type": "address"
        }
      ],
      "name": "getFundAccount",
      "outputs": [
        {
          "internalType": "uint256",
          "name": "shares",
          "type": "uint256"
        },
        {
          "internalType": "uint256",
          "name": "value",
          "type": "uint256"
        },
        {
          "internalType": "uint256",
          "name": "cost",
          "type": "uint256"
        }
      ],
      "stateMutability": "view",
      "type": "function"
    },
    {
      "inputs": [
        {
          "internalType": "address",
          "name": "fund",
          "type": "address"
        }
      ],
      "name": "getFundProperty",
      "outputs": [
        {
          "components": [
            {
              "internalType": "address",
              "name": "token",
              "type": "address"
            },
            {
              "internalType": "uint256",
              "name": "value",
              "type": "uint256"
            },
            {
              "internalType": "uint256",
              "name": "shares",
              "type": "uint256"
            },
            {
              "internalType": "address",
              "name": "entry",
              "type": "address"
            },
            {
              "internalType": "address",
              "name": "provider",
              "type": "address"
            },
            {
              "internalType": "uint256",
              "name": "maxAPR",
              "type": "uint256"
            }
          ],
          "internalType": "struct IFund.Property",
          "name": "",
          "type": "tuple"
        }
      ],
      "stateMutability": "view",
      "type": "function"
    },
    {
      "inputs": [
        {
          "internalType": "address",
          "name": "",
          "type": "address"
        }
      ],
      "name": "getFundToken",
      "outputs": [
        {
          "internalType": "address",
          "name": "",
          "type": "address"
        }
      ],
      "stateMutability": "view",
      "type": "function"
    },
    {
      "inputs": [
        {
          "internalType": "address",
          "name": "initialOwner",
          "type": "address"
        }
      ],
      "name": "initialize",
      "outputs": [],
      "stateMutability": "nonpayable",
      "type": "function"
    },
    {
      "inputs": [
        {
          "internalType": "address",
          "name": "owner",
          "type": "address"
        }
      ],
      "name": "nonces",
      "outputs": [
        {
          "internalType": "uint256",
          "name": "",
          "type": "uint256"
        }
      ],
      "stateMutability": "view",
      "type": "function"
    },
    {
      "inputs": [],
      "name": "owner",
      "outputs": [
        {
          "internalType": "address",
          "name": "",
          "type": "address"
        }
      ],
      "stateMutability": "view",
      "type": "function"
    },
    {
      "inputs": [],
      "name": "proxiableUUID",
      "outputs": [
        {
          "internalType": "bytes32",
          "name": "",
          "type": "bytes32"
        }
      ],
      "stateMutability": "view",
      "type": "function"
    },
    {
      "inputs": [
        {
          "internalType": "address",
          "name": "fund",
          "type": "address"
        },
        {
          "internalType": "address",
          "name": "to",
          "type": "address"
        },
        {
          "internalType": "uint256",
          "name": "shares",
          "type": "uint256"
        }
      ],
      "name": "redeemFund",
      "outputs": [
        {
          "internalType": "uint256",
          "name": "amount",
          "type": "uint256"
        }
      ],
      "stateMutability": "nonpayable",
      "type": "function"
    },
    {
      "inputs": [
        {
          "internalType": "address",
          "name": "fund",
          "type": "address"
        }
      ],
      "name": "registerFund",
      "outputs": [
        {
          "internalType": "uint256",
          "name": "index",
          "type": "uint256"
        }
      ],
      "stateMutability": "nonpayable",
      "type": "function"
    },
    {
      "inputs": [],
      "name": "renounceOwnership",
      "outputs": [],
      "stateMutability": "nonpayable",
      "type": "function"
    },
    {
      "inputs": [
        {
          "internalType": "address",
          "name": "fund",
          "type": "address"
        },
        {
          "internalType": "uint256",
          "name": "newAPR",
          "type": "uint256"
        }
      ],
      "name": "setFundMaxAPR",
      "outputs": [],
      "stateMutability": "nonpayable",
      "type": "function"
    },
    {
      "inputs": [
        {
          "internalType": "address",
          "name": "owner",
          "type": "address"
        },
        {
          "internalType": "address",
          "name": "token",
          "type": "address"
        },
        {
          "internalType": "uint256",
          "name": "amountIn",
          "type": "uint256"
        },
        {
          "internalType": "uint256",
          "name": "amountOut",
          "type": "uint256"
        },
        {
          "internalType": "uint256",
          "name": "deadline",
          "type": "uint256"
        },
        {
          "internalType": "bytes",
          "name": "signature",
          "type": "bytes"
        }
      ],
      "name": "swapETH",
      "outputs": [],
      "stateMutability": "payable",
      "type": "function"
    },
    {
      "inputs": [
        {
          "internalType": "address",
          "name": "owner",
          "type": "address"
        },
        {
          "internalType": "address",
          "name": "token",
          "type": "address"
        },
        {
          "internalType": "uint256",
          "name": "amountIn",
          "type": "uint256"
        },
        {
          "internalType": "uint256",
          "name": "amountOut",
          "type": "uint256"
        },
        {
          "internalType": "uint256",
          "name": "deadline",
          "type": "uint256"
        },
        {
          "internalType": "bytes",
          "name": "signature",
          "type": "bytes"
        },
        {
          "internalType": "bytes",
          "name": "permit",
          "type": "bytes"
        }
      ],
      "name": "swapETH",
      "outputs": [],
      "stateMutability": "payable",
      "type": "function"
    },
    {
      "inputs": [
        {
          "internalType": "address",
          "name": "newOwner",
          "type": "address"
        }
      ],
      "name": "transferOwnership",
      "outputs": [],
      "stateMutability": "nonpayable",
      "type": "function"
    },
    {
      "inputs": [
        {
          "internalType": "address",
          "name": "fund",
          "type": "address"
        },
        {
          "internalType": "bytes",
          "name": "data",
          "type": "bytes"
        }
      ],
      "name": "updateFundValue",
      "outputs": [
        {
          "internalType": "uint256",
          "name": "value",
          "type": "uint256"
        }
      ],
      "stateMutability": "payable",
      "type": "function"
    },
    {
      "inputs": [
        {
          "internalType": "address",
          "name": "newImplementation",
          "type": "address"
        },
        {
          "internalType": "bytes",
          "name": "data",
          "type": "bytes"
        }
      ],
      "name": "upgradeToAndCall",
      "outputs": [],
      "stateMutability": "payable",
      "type": "function"
    },
    {
      "inputs": [
        {
          "internalType": "address",
          "name": "to",
          "type": "address"
        },
        {
          "internalType": "uint256",
          "name": "amount",
          "type": "uint256"
        }
      ],
      "name": "withdrawTo",
      "outputs": [],
      "stateMutability": "nonpayable",
      "type": "function"
    },
    {
      "inputs": [
        {
          "internalType": "address",
          "name": "to",
          "type": "address"
        },
        {
          "internalType": "address",
          "name": "token",
          "type": "address"
        },
        {
          "internalType": "uint256",
          "name": "amount",
          "type": "uint256"
        }
      ],
      "name": "withdrawTo",
      "outputs": [],
      "stateMutability": "nonpayable",
      "type": "function"
    },
    {
      "stateMutability": "payable",
      "type": "receive"
    }
  ],
  "bytecode": "0x60a06040523060805234801561001457600080fd5b5061001d610022565b6100d4565b7ff0c57e16840df040f15088dc2f81fe391c3923bec73e23a9662efc9c229c6a00805468010000000000000000900460ff16156100725760405163f92ee8a960e01b815260040160405180910390fd5b80546001600160401b03908116146100d15780546001600160401b0319166001600160401b0390811782556040519081527fc7f505b2f371ae2175ee4913f4499e1f2633a7b5936321eed1cdaeb6115181d29060200160405180910390a15b50565b6080516131a96100fd600039600081816118710152818161189a0152611ab601526131a96000f3fe6080604052600436106101bb5760003560e01c80637ecebe00116100ec578063c3b35a7e1161008a578063d08fb78f11610064578063d08fb78f146105ef578063ea8f386a14610602578063f2fde38b14610645578063fe0652801461066557600080fd5b8063c3b35a7e1461058f578063c4d66de8146105af578063c65b3ef8146105cf57600080fd5b80639782e1f8116100c65780639782e1f8146104065780639b8ec8ef14610441578063ad3cb1cc146104ef578063c1c66f111461054557600080fd5b80637ecebe001461037457806384b0196e146103945780638da5cb5b146103bc57600080fd5b8063422daa7311610159578063623bfc2a11610133578063623bfc2a1461030c5780636ce43f761461032c578063715018a61461033f5780637b8e88951461035457600080fd5b8063422daa73146102d15780634f1ef286146102e457806352d1902d146102f757600080fd5b8063205c287811610195578063205c28781461025a57806328e64e311461027c5780632c8fe1d71461029c5780633644e515146102bc57600080fd5b8063017e7e58146101c75780630241d979146102065780630905c5a01461023b57600080fd5b366101c257005b600080fd5b3480156101d357600080fd5b506101dc610678565b60405173ffffffffffffffffffffffffffffffffffffffff90911681526020015b60405180910390f35b34801561021257600080fd5b50610226610221366004612791565b6106bd565b604080519283526020830191909152016101fd565b34801561024757600080fd5b506000545b6040519081526020016101fd565b34801561026657600080fd5b5061027a6102753660046127e2565b610800565b005b34801561028857600080fd5b5061027a6102973660046127e2565b610850565b3480156102a857600080fd5b506102266102b7366004612850565b6108dc565b3480156102c857600080fd5b5061024c610a2e565b61027a6102df3660046128df565b610a38565b61027a6102f2366004612a22565b610a58565b34801561030357600080fd5b5061024c610a77565b34801561031857600080fd5b5061024c610327366004612a72565b610aa6565b61027a61033a366004612ab3565b610b53565b34801561034b57600080fd5b5061027a610b83565b34801561036057600080fd5b506101dc61036f366004612b6c565b610b97565b34801561038057600080fd5b5061024c61038f366004612b85565b610bce565b3480156103a057600080fd5b506103a9610c1a565b6040516101fd9796959493929190612c10565b3480156103c857600080fd5b507f9016d09d72d40fdae2fd8ceac6b6234c7706214fd39c1cd1e609a0528c1993005473ffffffffffffffffffffffffffffffffffffffff166101dc565b34801561041257600080fd5b50610426610421366004612cd1565b610d1b565b604080519384526020840192909252908201526060016101fd565b34801561044d57600080fd5b5061046161045c366004612b85565b610dc1565b6040516101fd9190600060c08201905073ffffffffffffffffffffffffffffffffffffffff8351168252602083015160208301526040830151604083015273ffffffffffffffffffffffffffffffffffffffff606084015116606083015273ffffffffffffffffffffffffffffffffffffffff608084015116608083015260a083015160a083015292915050565b3480156104fb57600080fd5b506105386040518060400160405280600581526020017f352e302e3000000000000000000000000000000000000000000000000000000081525081565b6040516101fd9190612d0a565b34801561055157600080fd5b50610565610560366004612d1d565b610e62565b6040805192835273ffffffffffffffffffffffffffffffffffffffff9091166020830152016101fd565b34801561059b57600080fd5b5061027a6105aa366004612a72565b610fb4565b3480156105bb57600080fd5b5061027a6105ca366004612b85565b61105b565b3480156105db57600080fd5b5061024c6105ea366004612b85565b611256565b6102266105fd366004612cd1565b611499565b34801561060e57600080fd5b506101dc61061d366004612b85565b60016020526000908152604090205473ffffffffffffffffffffffffffffffffffffffff1681565b34801561065157600080fd5b5061027a610660366004612b85565b61153d565b61024c610673366004612d5a565b6115a1565b60006106b87f9016d09d72d40fdae2fd8ceac6b6234c7706214fd39c1cd1e609a0528c1993005473ffffffffffffffffffffffffffffffffffffffff1690565b905090565b6040517f23b872dd00000000000000000000000000000000000000000000000000000000815233600482015273ffffffffffffffffffffffffffffffffffffffff85811660248301526044820183905260009182918516906323b872dd906064016020604051808303816000875af115801561073d573d6000803e3d6000fd5b505050506040513d601f19601f820116820180604052508101906107619190612daf565b506040517f6a62784200000000000000000000000000000000000000000000000000000000815273ffffffffffffffffffffffffffffffffffffffff8681166004830152871690636a6278429060240160408051808303816000875af11580156107cf573d6000803e3d6000fd5b505050506040513d601f19601f820116820180604052508101906107f39190612dd1565b9150915094509492505050565b610808611622565b60405173ffffffffffffffffffffffffffffffffffffffff83169082156108fc029083906000818181858888f1935050505015801561084b573d6000803e3d6000fd5b505050565b610858611622565b6040517fe010f1020000000000000000000000000000000000000000000000000000000081526004810182905273ffffffffffffffffffffffffffffffffffffffff83169063e010f10290602401600060405180830381600087803b1580156108c057600080fd5b505af11580156108d4573d6000803e3d6000fd5b505050505050565b6000806108ed8733888888886116b0565b6040517f23b872dd00000000000000000000000000000000000000000000000000000000815233600482015273ffffffffffffffffffffffffffffffffffffffff8a81166024830152604482018890528816906323b872dd906064016020604051808303816000875af1158015610968573d6000803e3d6000fd5b505050506040513d601f19601f8201168201806040525081019061098c9190612daf565b506040517f6a62784200000000000000000000000000000000000000000000000000000000815273ffffffffffffffffffffffffffffffffffffffff89811660048301528a1690636a6278429060240160408051808303816000875af11580156109fa573d6000803e3d6000fd5b505050506040513d601f19601f82011682018060405250810190610a1e9190612dd1565b9150915097509795505050505050565b60006106b86116e3565b610a40611622565b610a4f878787878787876116ed565b50505050505050565b610a60611859565b610a698261195d565b610a738282611965565b5050565b6000610a81611a9e565b507f360894a13ba1a3210667c828492db98dca3e2076cc3735a920a3ca505d382bbc90565b6040517ff6b911bc00000000000000000000000000000000000000000000000000000000815233600482015273ffffffffffffffffffffffffffffffffffffffff8381166024830152604482018390526000919085169063f6b911bc906064016020604051808303816000875af1158015610b25573d6000803e3d6000fd5b505050506040513d601f19601f82011682018060405250810190610b499190612df5565b90505b9392505050565b610b5b611622565b610b69888a898886866116b0565b610b78898989898989896116ed565b505050505050505050565b610b8b611622565b610b956000611b0d565b565b60008181548110610ba757600080fd5b60009182526020909120015473ffffffffffffffffffffffffffffffffffffffff16905081565b73ffffffffffffffffffffffffffffffffffffffff811660009081527f5ab42ced628888259c08ac98db1eb0cf702fc1501344311d8b100cd1bfe4bb0060205260408120545b92915050565b600060608082808083817fa16a46d94261c7517cc8ff89f61c0ce93598e3c849801011dee649a6a557d1008054909150158015610c5957506001810154155b610cc4576040517f08c379a000000000000000000000000000000000000000000000000000000000815260206004820152601560248201527f4549503731323a20556e696e697469616c697a6564000000000000000000000060448201526064015b60405180910390fd5b610ccc611ba3565b610cd4611c78565b604080516000808252602082019092527f0f000000000000000000000000000000000000000000000000000000000000009c939b5091995046985030975095509350915050565b6040517ffbcbc0f100000000000000000000000000000000000000000000000000000000815273ffffffffffffffffffffffffffffffffffffffff8281166004830152600091829182919086169063fbcbc0f190602401606060405180830381865afa158015610d8f573d6000803e3d6000fd5b505050506040513d601f19601f82011682018060405250810190610db39190612e0e565b9250925092505b9250925092565b6040805160c081018252600080825260208201819052918101829052606081018290526080810182905260a08101919091528173ffffffffffffffffffffffffffffffffffffffff1663077510706040518163ffffffff1660e01b815260040160c060405180830381865afa158015610e3e573d6000803e3d6000fd5b505050506040513d601f19601f82011682018060405250810190610c149190612e3c565b600080610e6d611622565b8251602084018181209182916000f5915060008273ffffffffffffffffffffffffffffffffffffffff16638129fc1c6040518163ffffffff1660e01b81526004016020604051808303816000875af1158015610ecd573d6000803e3d6000fd5b505050506040513d601f19601f82011682018060405250810190610ef19190612ed5565b6000805473ffffffffffffffffffffffffffffffffffffffff80871680845260016020819052604080862080549488167fffffffffffffffffffffffff0000000000000000000000000000000000000000958616179055855491820186558580527f290decd9548b62a8d60345a988386fc84ba6bc95484008f6362f93160ef3e56390910180549093168217909255905191975092935086917fb2717551cae9cbea884db7f3e7caba91bf864fefa32dc97702947780bb7d1dc291a35050915091565b610fbc611622565b6040517fa9059cbb00000000000000000000000000000000000000000000000000000000815273ffffffffffffffffffffffffffffffffffffffff84811660048301526024820183905283169063a9059cbb906044016020604051808303816000875af1158015611031573d6000803e3d6000fd5b505050506040513d601f19601f820116820180604052508101906110559190612daf565b50505050565b7ff0c57e16840df040f15088dc2f81fe391c3923bec73e23a9662efc9c229c6a00805468010000000000000000810460ff16159067ffffffffffffffff166000811580156110a65750825b905060008267ffffffffffffffff1660011480156110c35750303b155b9050811580156110d1575080155b15611108576040517ff92ee8a900000000000000000000000000000000000000000000000000000000815260040160405180910390fd5b84547fffffffffffffffffffffffffffffffffffffffffffffffff000000000000000016600117855583156111695784547fffffffffffffffffffffffffffffffffffffffffffffff00ffffffffffffffff16680100000000000000001785555b61117286611cc9565b61117a611cda565b6111ee6040518060400160405280600581526020017f656e7472790000000000000000000000000000000000000000000000000000008152506040518060400160405280600181526020017f3100000000000000000000000000000000000000000000000000000000000000815250611ce2565b83156108d45784547fffffffffffffffffffffffffffffffffffffffffffffff00ffffffffffffffff168555604051600181527fc7f505b2f371ae2175ee4913f4499e1f2633a7b5936321eed1cdaeb6115181d29060200160405180910390a1505050505050565b6000808273ffffffffffffffffffffffffffffffffffffffff16638129fc1c6040518163ffffffff1660e01b81526004016020604051808303816000875af11580156112a6573d6000803e3d6000fd5b505050506040513d601f19601f820116820180604052508101906112ca9190612ed5565b905073ffffffffffffffffffffffffffffffffffffffff8116611349576040517f08c379a000000000000000000000000000000000000000000000000000000000815260206004820152601560248201527f696e7661696c6420746f6b656e206164647265737300000000000000000000006044820152606401610cbb565b73ffffffffffffffffffffffffffffffffffffffff83811660009081526001602052604090205416156113d8576040517f08c379a000000000000000000000000000000000000000000000000000000000815260206004820152600e60248201527f6578697374207468652066756e640000000000000000000000000000000000006044820152606401610cbb565b6000805473ffffffffffffffffffffffffffffffffffffffff80861680845260016020819052604080862080549488167fffffffffffffffffffffffff0000000000000000000000000000000000000000958616179055855491820186558580527f290decd9548b62a8d60345a988386fc84ba6bc95484008f6362f93160ef3e5639091018054909316821790925590519194509184917fb2717551cae9cbea884db7f3e7caba91bf864fefa32dc97702947780bb7d1dc29190a350919050565b6040517f6a62784200000000000000000000000000000000000000000000000000000000815273ffffffffffffffffffffffffffffffffffffffff82811660048301526000918291851690636a627842903490602401604080518083038185885af115801561150c573d6000803e3d6000fd5b50505050506040513d601f19601f820116820180604052508101906115319190612dd1565b915091505b9250929050565b611545611622565b73ffffffffffffffffffffffffffffffffffffffff8116611595576040517f1e4fbdf700000000000000000000000000000000000000000000000000000000815260006004820152602401610cbb565b61159e81611b0d565b50565b60008373ffffffffffffffffffffffffffffffffffffffff16634f418e0d3485856040518463ffffffff1660e01b81526004016115df929190612ef2565b60206040518083038185885af11580156115fd573d6000803e3d6000fd5b50505050506040513d601f19601f82011682018060405250810190610b499190612df5565b336116617f9016d09d72d40fdae2fd8ceac6b6234c7706214fd39c1cd1e609a0528c1993005473ffffffffffffffffffffffffffffffffffffffff1690565b73ffffffffffffffffffffffffffffffffffffffff1614610b95576040517f118cdaa7000000000000000000000000000000000000000000000000000000008152336004820152602401610cbb565b604181146116c0576116c0612f3f565b606082015160208301359060408401359060001a610b7889898989858888611d55565b60006106b8611e0a565b6116fc87878787878787611e7e565b6040517f23b872dd00000000000000000000000000000000000000000000000000000000815273ffffffffffffffffffffffffffffffffffffffff8881166004830152306024830152604482018790528716906323b872dd906064016020604051808303816000875af1158015611777573d6000803e3d6000fd5b505050506040513d601f19601f8201168201806040525081019061179b9190612daf565b5060405173ffffffffffffffffffffffffffffffffffffffff88169085156108fc029086906000818181858888f193505050501580156117df573d6000803e3d6000fd5b508573ffffffffffffffffffffffffffffffffffffffff168773ffffffffffffffffffffffffffffffffffffffff167f9173a42b413c615faa9b1be56906b5d7f45ee241043462388b06dc7d417132b58787604051611848929190918252602082015260400190565b60405180910390a350505050505050565b3073ffffffffffffffffffffffffffffffffffffffff7f000000000000000000000000000000000000000000000000000000000000000016148061192657507f000000000000000000000000000000000000000000000000000000000000000073ffffffffffffffffffffffffffffffffffffffff1661190d7f360894a13ba1a3210667c828492db98dca3e2076cc3735a920a3ca505d382bbc5473ffffffffffffffffffffffffffffffffffffffff1690565b73ffffffffffffffffffffffffffffffffffffffff1614155b15610b95576040517fe07c8dba00000000000000000000000000000000000000000000000000000000815260040160405180910390fd5b61159e611622565b8173ffffffffffffffffffffffffffffffffffffffff166352d1902d6040518163ffffffff1660e01b8152600401602060405180830381865afa9250505080156119ea575060408051601f3d9081017fffffffffffffffffffffffffffffffffffffffffffffffffffffffffffffffe01682019092526119e791810190612df5565b60015b611a38576040517f4c9c8ce300000000000000000000000000000000000000000000000000000000815273ffffffffffffffffffffffffffffffffffffffff83166004820152602401610cbb565b7f360894a13ba1a3210667c828492db98dca3e2076cc3735a920a3ca505d382bbc8114611a94576040517faa1d49a400000000000000000000000000000000000000000000000000000000815260048101829052602401610cbb565b61084b83836120b6565b3073ffffffffffffffffffffffffffffffffffffffff7f00000000000000000000000000000000000000000000000000000000000000001614610b95576040517fe07c8dba00000000000000000000000000000000000000000000000000000000815260040160405180910390fd5b7f9016d09d72d40fdae2fd8ceac6b6234c7706214fd39c1cd1e609a0528c19930080547fffffffffffffffffffffffff0000000000000000000000000000000000000000811673ffffffffffffffffffffffffffffffffffffffff848116918217845560405192169182907f8be0079c531659141344cd1fd0a4f28419497f9722a3daafe3b4186f6b6457e090600090a3505050565b7fa16a46d94261c7517cc8ff89f61c0ce93598e3c849801011dee649a6a557d10280546060917fa16a46d94261c7517cc8ff89f61c0ce93598e3c849801011dee649a6a557d10091611bf490612f6e565b80601f0160208091040260200160405190810160405280929190818152602001828054611c2090612f6e565b8015611c6d5780601f10611c4257610100808354040283529160200191611c6d565b820191906000526020600020905b815481529060010190602001808311611c5057829003601f168201915b505050505091505090565b7fa16a46d94261c7517cc8ff89f61c0ce93598e3c849801011dee649a6a557d10380546060917fa16a46d94261c7517cc8ff89f61c0ce93598e3c849801011dee649a6a557d10091611bf490612f6e565b611cd1612119565b61159e81612180565b610b95612119565b611cea612119565b7fa16a46d94261c7517cc8ff89f61c0ce93598e3c849801011dee649a6a557d1007fa16a46d94261c7517cc8ff89f61c0ce93598e3c849801011dee649a6a557d102611d36848261300f565b5060038101611d45838261300f565b5060008082556001909101555050565b6040517fd505accf00000000000000000000000000000000000000000000000000000000815273ffffffffffffffffffffffffffffffffffffffff8781166004830152306024830152604482018790526064820186905260ff8516608483015260a4820184905260c4820183905288169063d505accf9060e401600060405180830381600087803b158015611de957600080fd5b505af1158015611dfd573d6000803e3d6000fd5b5050505050505050505050565b60007f8b73c3c69bb8fe3d512ecc4cf759cc79239f7b179b0ffacaa9a75d522b39400f611e35612188565b611e3d612204565b60408051602081019490945283019190915260608201524660808201523060a082015260c00160405160208183030381529060405280519060200120905090565b824210611ee7576040517f08c379a000000000000000000000000000000000000000000000000000000000815260206004820152601160248201527f7369676e617475726520657870697265640000000000000000000000000000006044820152606401610cbb565b60007f5bf710dd57140042e9dd710a28ed5e8a21684b685713ddb70be7badd0c1a64f988888888611f618d73ffffffffffffffffffffffffffffffffffffffff1660009081527f5ab42ced628888259c08ac98db1eb0cf702fc1501344311d8b100cd1bfe4bb006020526040902080546001810190915590565b60408051602081019790975273ffffffffffffffffffffffffffffffffffffffff95861690870152939092166060850152608084015260a083015260c082015260e08101859052610100016040516020818303038152906040528051906020012090506000611fcf8261225a565b905060006120138286868080601f0160208091040260200160405190810160405280939291908181526020018383808284376000920191909152506122a292505050565b90508973ffffffffffffffffffffffffffffffffffffffff168173ffffffffffffffffffffffffffffffffffffffff16146120aa576040517f08c379a000000000000000000000000000000000000000000000000000000000815260206004820152600e60248201527f696e76616c6964207369676e65720000000000000000000000000000000000006044820152606401610cbb565b50505050505050505050565b6120bf826122cc565b60405173ffffffffffffffffffffffffffffffffffffffff8316907fbc7cd75a20ee27fd9adebab32041f755214dbc6bffa90cc0225b39da2e5c2d3b90600090a28051156121115761084b828261239b565b610a7361241e565b7ff0c57e16840df040f15088dc2f81fe391c3923bec73e23a9662efc9c229c6a005468010000000000000000900460ff16610b95576040517fd7e6bcf800000000000000000000000000000000000000000000000000000000815260040160405180910390fd5b611545612119565b60007fa16a46d94261c7517cc8ff89f61c0ce93598e3c849801011dee649a6a557d100816121b4611ba3565b8051909150156121cc57805160209091012092915050565b815480156121db579392505050565b7fc5d2460186f7233c927e7db2dcc703c0e500b653ca82273b7bfad8045d85a470935050505090565b60007fa16a46d94261c7517cc8ff89f61c0ce93598e3c849801011dee649a6a557d10081612230611c78565b80519091501561224857805160209091012092915050565b600182015480156121db579392505050565b6000610c146122676116e3565b836040517f19010000000000000000000000000000000000000000000000000000000000008152600281019290925260228201526042902090565b6000806000806122b28686612456565b9250925092506122c282826124a0565b5090949350505050565b8073ffffffffffffffffffffffffffffffffffffffff163b600003612335576040517f4c9c8ce300000000000000000000000000000000000000000000000000000000815273ffffffffffffffffffffffffffffffffffffffff82166004820152602401610cbb565b7f360894a13ba1a3210667c828492db98dca3e2076cc3735a920a3ca505d382bbc80547fffffffffffffffffffffffff00000000000000000000000000000000000000001673ffffffffffffffffffffffffffffffffffffffff92909216919091179055565b60606000808473ffffffffffffffffffffffffffffffffffffffff16846040516123c59190613128565b600060405180830381855af49150503d8060008114612400576040519150601f19603f3d011682016040523d82523d6000602084013e612405565b606091505b50915091506124158583836125a4565b95945050505050565b3415610b95576040517fb398979f00000000000000000000000000000000000000000000000000000000815260040160405180910390fd5b600080600083516041036124905760208401516040850151606086015160001a61248288828585612633565b955095509550505050610dba565b5050815160009150600290610dba565b60008260038111156124b4576124b4613144565b036124bd575050565b60018260038111156124d1576124d1613144565b03612508576040517ff645eedf00000000000000000000000000000000000000000000000000000000815260040160405180910390fd5b600282600381111561251c5761251c613144565b03612556576040517ffce698f700000000000000000000000000000000000000000000000000000000815260048101829052602401610cbb565b600382600381111561256a5761256a613144565b03610a73576040517fd78bce0c00000000000000000000000000000000000000000000000000000000815260048101829052602401610cbb565b6060826125b9576125b48261272d565b610b4c565b81511580156125dd575073ffffffffffffffffffffffffffffffffffffffff84163b155b1561262c576040517f9996b31500000000000000000000000000000000000000000000000000000000815273ffffffffffffffffffffffffffffffffffffffff85166004820152602401610cbb565b5080610b4c565b600080807f7fffffffffffffffffffffffffffffff5d576e7357a4501ddfe92f46681b20a084111561266e5750600091506003905082612723565b604080516000808252602082018084528a905260ff891692820192909252606081018790526080810186905260019060a0016020604051602081039080840390855afa1580156126c2573d6000803e3d6000fd5b50506040517fffffffffffffffffffffffffffffffffffffffffffffffffffffffffffffffe0015191505073ffffffffffffffffffffffffffffffffffffffff811661271957506000925060019150829050612723565b9250600091508190505b9450945094915050565b80511561273d5780518082602001fd5b6040517fd6bda27500000000000000000000000000000000000000000000000000000000815260040160405180910390fd5b73ffffffffffffffffffffffffffffffffffffffff8116811461159e57600080fd5b600080600080608085870312156127a757600080fd5b84356127b28161276f565b935060208501356127c28161276f565b925060408501356127d28161276f565b9396929550929360600135925050565b600080604083850312156127f557600080fd5b82356128008161276f565b946020939093013593505050565b60008083601f84011261282057600080fd5b50813567ffffffffffffffff81111561283857600080fd5b60208301915083602082850101111561153657600080fd5b600080600080600080600060c0888a03121561286b57600080fd5b87356128768161276f565b965060208801356128868161276f565b955060408801356128968161276f565b9450606088013593506080880135925060a088013567ffffffffffffffff8111156128c057600080fd5b6128cc8a828b0161280e565b989b979a50959850939692959293505050565b600080600080600080600060c0888a0312156128fa57600080fd5b87356129058161276f565b965060208801356129158161276f565b955060408801359450606088013593506080880135925060a088013567ffffffffffffffff8111156128c057600080fd5b7f4e487b7100000000000000000000000000000000000000000000000000000000600052604160045260246000fd5b600082601f83011261298657600080fd5b813567ffffffffffffffff8111156129a0576129a0612946565b604051601f82017fffffffffffffffffffffffffffffffffffffffffffffffffffffffffffffffe0908116603f0116810167ffffffffffffffff811182821017156129ed576129ed612946565b604052818152838201602001851015612a0557600080fd5b816020850160208301376000918101602001919091529392505050565b60008060408385031215612a3557600080fd5b8235612a408161276f565b9150602083013567ffffffffffffffff811115612a5c57600080fd5b612a6885828601612975565b9150509250929050565b600080600060608486031215612a8757600080fd5b8335612a928161276f565b92506020840135612aa28161276f565b929592945050506040919091013590565b600080600080600080600080600060e08a8c031215612ad157600080fd5b8935612adc8161276f565b985060208a0135612aec8161276f565b975060408a0135965060608a0135955060808a0135945060a08a013567ffffffffffffffff811115612b1d57600080fd5b612b298c828d0161280e565b90955093505060c08a013567ffffffffffffffff811115612b4957600080fd5b612b558c828d0161280e565b915080935050809150509295985092959850929598565b600060208284031215612b7e57600080fd5b5035919050565b600060208284031215612b9757600080fd5b8135610b4c8161276f565b60005b83811015612bbd578181015183820152602001612ba5565b50506000910152565b60008151808452612bde816020860160208601612ba2565b601f017fffffffffffffffffffffffffffffffffffffffffffffffffffffffffffffffe0169290920160200192915050565b7fff000000000000000000000000000000000000000000000000000000000000008816815260e060208201526000612c4b60e0830189612bc6565b8281036040840152612c5d8189612bc6565b6060840188905273ffffffffffffffffffffffffffffffffffffffff8716608085015260a0840186905283810360c08501528451808252602080870193509091019060005b81811015612cc0578351835260209384019390920191600101612ca2565b50909b9a5050505050505050505050565b60008060408385031215612ce457600080fd5b8235612cef8161276f565b91506020830135612cff8161276f565b809150509250929050565b602081526000610b4c6020830184612bc6565b600060208284031215612d2f57600080fd5b813567ffffffffffffffff811115612d4657600080fd5b612d5284828501612975565b949350505050565b600080600060408486031215612d6f57600080fd5b8335612d7a8161276f565b9250602084013567ffffffffffffffff811115612d9657600080fd5b612da28682870161280e565b9497909650939450505050565b600060208284031215612dc157600080fd5b81518015158114610b4c57600080fd5b60008060408385031215612de457600080fd5b505080516020909101519092909150565b600060208284031215612e0757600080fd5b5051919050565b600080600060608486031215612e2357600080fd5b5050815160208301516040909301519094929350919050565b600060c0828403128015612e4f57600080fd5b5060405160009060c0810167ffffffffffffffff81118282101715612e7657612e76612946565b6040528351612e848161276f565b815260208481015190820152604080850151908201526060840151612ea88161276f565b60608201526080840151612ebb8161276f565b608082015260a09384015193810193909352509092915050565b600060208284031215612ee757600080fd5b8151610b4c8161276f565b60208152816020820152818360408301376000818301604090810191909152601f9092017fffffffffffffffffffffffffffffffffffffffffffffffffffffffffffffffe0160101919050565b7f4e487b7100000000000000000000000000000000000000000000000000000000600052600160045260246000fd5b600181811c90821680612f8257607f821691505b602082108103612fbb577f4e487b7100000000000000000000000000000000000000000000000000000000600052602260045260246000fd5b50919050565b601f82111561084b57806000526020600020601f840160051c81016020851015612fe85750805b601f840160051c820191505b818110156130085760008155600101612ff4565b5050505050565b815167ffffffffffffffff81111561302957613029612946565b61303d816130378454612f6e565b84612fc1565b6020601f82116001811461308f57600083156130595750848201515b7fffffffffffffffffffffffffffffffffffffffffffffffffffffffffffffffff600385901b1c1916600184901b178455613008565b6000848152602081207fffffffffffffffffffffffffffffffffffffffffffffffffffffffffffffffe08516915b828110156130dd57878501518255602094850194600190920191016130bd565b508482101561311957868401517fffffffffffffffffffffffffffffffffffffffffffffffffffffffffffffffff600387901b60f8161c191681555b50505050600190811b01905550565b6000825161313a818460208701612ba2565b9190910192915050565b7f4e487b7100000000000000000000000000000000000000000000000000000000600052602160045260246000fdfea264697066735822122046ab66fccbe70e9f6d2ac4661212f6844f75b9d06c2f21537aa4d1644bb8d0d564736f6c634300081c0033",
  "linkReferences": {},
  "deployedLinkReferences": {}
}