{
  "_format": "hh-sol-artifact-1",
  "contractName": "Entry",
  "sourceName": "contracts/Entry.sol",
  "abi": [
    {
      "inputs": [],
      "stateMutability": "nonpayable",
      "type": "constructor"
    },
    {
      "inputs": [
        {
          "internalType": "address",
          "name": "target",
          "type": "address"
        }
      ],
      "name": "AddressEmptyCode",
      "type": "error"
    },
    {
      "inputs": [],
      "name": "ECDSAInvalidSignature",
      "type": "error"
    },
    {
      "inputs": [
        {
          "internalType": "uint256",
          "name": "length",
          "type": "uint256"
        }
      ],
      "name": "ECDSAInvalidSignatureLength",
      "type": "error"
    },
    {
      "inputs": [
        {
          "internalType": "bytes32",
          "name": "s",
          "type": "bytes32"
        }
      ],
      "name": "ECDSAInvalidSignatureS",
      "type": "error"
    },
    {
      "inputs": [
        {
          "internalType": "address",
          "name": "implementation",
          "type": "address"
        }
      ],
      "name": "ERC1967InvalidImplementation",
      "type": "error"
    },
    {
      "inputs": [],
      "name": "ERC1967NonPayable",
      "type": "error"
    },
    {
      "inputs": [],
      "name": "FailedCall",
      "type": "error"
    },
    {
      "inputs": [
        {
          "internalType": "address",
          "name": "account",
          "type": "address"
        },
        {
          "internalType": "uint256",
          "name": "currentNonce",
          "type": "uint256"
        }
      ],
      "name": "InvalidAccountNonce",
      "type": "error"
    },
    {
      "inputs": [],
      "name": "InvalidInitialization",
      "type": "error"
    },
    {
      "inputs": [],
      "name": "NotInitializing",
      "type": "error"
    },
    {
      "inputs": [
        {
          "internalType": "address",
          "name": "owner",
          "type": "address"
        }
      ],
      "name": "OwnableInvalidOwner",
      "type": "error"
    },
    {
      "inputs": [
        {
          "internalType": "address",
          "name": "account",
          "type": "address"
        }
      ],
      "name": "OwnableUnauthorizedAccount",
      "type": "error"
    },
    {
      "inputs": [],
      "name": "UUPSUnauthorizedCallContext",
      "type": "error"
    },
    {
      "inputs": [
        {
          "internalType": "bytes32",
          "name": "slot",
          "type": "bytes32"
        }
      ],
      "name": "UUPSUnsupportedProxiableUUID",
      "type": "error"
    },
    {
      "anonymous": false,
      "inputs": [],
      "name": "EIP712DomainChanged",
      "type": "event"
    },
    {
      "anonymous": false,
      "inputs": [
        {
          "indexed": true,
          "internalType": "uint256",
          "name": "index",
          "type": "uint256"
        },
        {
          "indexed": true,
          "internalType": "address",
          "name": "fund",
          "type": "address"
        }
      ],
      "name": "FundCreated",
      "type": "event"
    },
    {
      "anonymous": false,
      "inputs": [
        {
          "indexed": false,
          "internalType": "uint64",
          "name": "version",
          "type": "uint64"
        }
      ],
      "name": "Initialized",
      "type": "event"
    },
    {
      "anonymous": false,
      "inputs": [
        {
          "indexed": true,
          "internalType": "address",
          "name": "previousOwner",
          "type": "address"
        },
        {
          "indexed": true,
          "internalType": "address",
          "name": "newOwner",
          "type": "address"
        }
      ],
      "name": "OwnershipTransferred",
      "type": "event"
    },
    {
      "anonymous": false,
      "inputs": [
        {
          "indexed": true,
          "internalType": "address",
          "name": "owner",
          "type": "address"
        },
        {
          "indexed": true,
          "internalType": "address",
          "name": "token",
          "type": "address"
        },
        {
          "indexed": false,
          "internalType": "uint256",
          "name": "amountIn",
          "type": "uint256"
        },
        {
          "indexed": false,
          "internalType": "uint256",
          "name": "amountOut",
          "type": "uint256"
        }
      ],
      "name": "SwapETH",
      "type": "event"
    },
    {
      "anonymous": false,
      "inputs": [
        {
          "indexed": true,
          "internalType": "address",
          "name": "implementation",
          "type": "address"
        }
      ],
      "name": "Upgraded",
      "type": "event"
    },
    {
      "inputs": [],
      "name": "DOMAIN_SEPARATOR",
      "outputs": [
        {
          "internalType": "bytes32",
          "name": "",
          "type": "bytes32"
        }
      ],
      "stateMutability": "view",
      "type": "function"
    },
    {
      "inputs": [],
      "name": "UPGRADE_INTERFACE_VERSION",
      "outputs": [
        {
          "internalType": "string",
          "name": "",
          "type": "string"
        }
      ],
      "stateMutability": "view",
      "type": "function"
    },
    {
      "inputs": [
        {
          "internalType": "address",
          "name": "fund",
          "type": "address"
        },
        {
          "internalType": "address",
          "name": "to",
          "type": "address"
        },
        {
          "internalType": "address",
          "name": "token",
          "type": "address"
        },
        {
          "internalType": "uint256",
          "name": "amount",
          "type": "uint256"
        }
      ],
      "name": "buyFund",
      "outputs": [
        {
          "internalType": "uint256",
          "name": "shares",
          "type": "uint256"
        },
        {
          "internalType": "uint256",
          "name": "value",
          "type": "uint256"
        }
      ],
      "stateMutability": "nonpayable",
      "type": "function"
    },
    {
      "inputs": [
        {
          "internalType": "address",
          "name": "fund",
          "type": "address"
        },
        {
          "internalType": "address",
          "name": "to",
          "type": "address"
        },
        {
          "internalType": "address",
          "name": "token",
          "type": "address"
        },
        {
          "internalType": "uint256",
          "name": "amount",
          "type": "uint256"
        },
        {
          "internalType": "uint256",
          "name": "deadline",
          "type": "uint256"
        },
        {
          "internalType": "bytes",
          "name": "permit",
          "type": "bytes"
        }
      ],
      "name": "buyFund",
      "outputs": [
        {
          "internalType": "uint256",
          "name": "shares",
          "type": "uint256"
        },
        {
          "internalType": "uint256",
          "name": "value",
          "type": "uint256"
        }
      ],
      "stateMutability": "nonpayable",
      "type": "function"
    },
    {
      "inputs": [
        {
          "internalType": "address",
          "name": "fund",
          "type": "address"
        },
        {
          "internalType": "address",
          "name": "to",
          "type": "address"
        }
      ],
      "name": "buyFund",
      "outputs": [
        {
          "internalType": "uint256",
          "name": "shares",
          "type": "uint256"
        },
        {
          "internalType": "uint256",
          "name": "value",
          "type": "uint256"
        }
      ],
      "stateMutability": "payable",
      "type": "function"
    },
    {
      "inputs": [
        {
          "internalType": "bytes",
          "name": "code",
          "type": "bytes"
        }
      ],
      "name": "createFund",
      "outputs": [
        {
          "internalType": "uint256",
          "name": "index",
          "type": "uint256"
        },
        {
          "internalType": "address",
          "name": "fund",
          "type": "address"
        }
      ],
      "stateMutability": "nonpayable",
      "type": "function"
    },
    {
      "inputs": [],
      "name": "eip712Domain",
      "outputs": [
        {
          "internalType": "bytes1",
          "name": "fields",
          "type": "bytes1"
        },
        {
          "internalType": "string",
          "name": "name",
          "type": "string"
        },
        {
          "internalType": "string",
          "name": "version",
          "type": "string"
        },
        {
          "internalType": "uint256",
          "name": "chainId",
          "type": "uint256"
        },
        {
          "internalType": "address",
          "name": "verifyingContract",
          "type": "address"
        },
        {
          "internalType": "bytes32",
          "name": "salt",
          "type": "bytes32"
        },
        {
          "internalType": "uint256[]",
          "name": "extensions",
          "type": "uint256[]"
        }
      ],
      "stateMutability": "view",
      "type": "function"
    },
    {
      "inputs": [],
      "name": "feeTo",
      "outputs": [
        {
          "internalType": "address",
          "name": "",
          "type": "address"
        }
      ],
      "stateMutability": "view",
      "type": "function"
    },
    {
      "inputs": [
        {
          "internalType": "uint256",
          "name": "",
          "type": "uint256"
        }
      ],
      "name": "funds",
      "outputs": [
        {
          "internalType": "address",
          "name": "",
          "type": "address"
        }
      ],
      "stateMutability": "view",
      "type": "function"
    },
    {
      "inputs": [],
      "name": "fundsLength",
      "outputs": [
        {
          "internalType": "uint256",
          "name": "",
          "type": "uint256"
        }
      ],
      "stateMutability": "view",
      "type": "function"
    },
    {
      "inputs": [
        {
          "internalType": "address",
          "name": "fund",
          "type": "address"
        },
        {
          "internalType": "address",
          "name": "owner",
          "type": "address"
        }
      ],
      "name": "getFundAccount",
      "outputs": [
        {
          "internalType": "uint256",
          "name": "shares",
          "type": "uint256"
        },
        {
          "internalType": "uint256",
          "name": "value",
          "type": "uint256"
        },
        {
          "internalType": "uint256",
          "name": "cost",
          "type": "uint256"
        }
      ],
      "stateMutability": "view",
      "type": "function"
    },
    {
      "inputs": [
        {
          "internalType": "address",
          "name": "fund",
          "type": "address"
        }
      ],
      "name": "getFundProperty",
      "outputs": [
        {
          "components": [
            {
              "internalType": "address",
              "name": "token",
              "type": "address"
            },
            {
              "internalType": "uint256",
              "name": "value",
              "type": "uint256"
            },
            {
              "internalType": "uint256",
              "name": "shares",
              "type": "uint256"
            },
            {
              "internalType": "address",
              "name": "entry",
              "type": "address"
            },
            {
              "internalType": "address",
              "name": "provider",
              "type": "address"
            },
            {
              "internalType": "uint256",
              "name": "maxAPR",
              "type": "uint256"
            }
          ],
          "internalType": "struct IFund.Property",
          "name": "",
          "type": "tuple"
        }
      ],
      "stateMutability": "view",
      "type": "function"
    },
    {
      "inputs": [
        {
          "internalType": "address",
          "name": "",
          "type": "address"
        }
      ],
      "name": "getFundToken",
      "outputs": [
        {
          "internalType": "address",
          "name": "",
          "type": "address"
        }
      ],
      "stateMutability": "view",
      "type": "function"
    },
    {
      "inputs": [
        {
          "internalType": "address",
          "name": "initialOwner",
          "type": "address"
        }
      ],
      "name": "initialize",
      "outputs": [],
      "stateMutability": "nonpayable",
      "type": "function"
    },
    {
      "inputs": [
        {
          "internalType": "address",
          "name": "owner",
          "type": "address"
        }
      ],
      "name": "nonces",
      "outputs": [
        {
          "internalType": "uint256",
          "name": "",
          "type": "uint256"
        }
      ],
      "stateMutability": "view",
      "type": "function"
    },
    {
      "inputs": [],
      "name": "owner",
      "outputs": [
        {
          "internalType": "address",
          "name": "",
          "type": "address"
        }
      ],
      "stateMutability": "view",
      "type": "function"
    },
    {
      "inputs": [],
      "name": "proxiableUUID",
      "outputs": [
        {
          "internalType": "bytes32",
          "name": "",
          "type": "bytes32"
        }
      ],
      "stateMutability": "view",
      "type": "function"
    },
    {
      "inputs": [
        {
          "internalType": "address",
          "name": "fund",
          "type": "address"
        },
        {
          "internalType": "address",
          "name": "to",
          "type": "address"
        },
        {
          "internalType": "uint256",
          "name": "shares",
          "type": "uint256"
        }
      ],
      "name": "redeemFund",
      "outputs": [
        {
          "internalType": "uint256",
          "name": "amount",
          "type": "uint256"
        }
      ],
      "stateMutability": "nonpayable",
      "type": "function"
    },
    {
      "inputs": [
        {
          "internalType": "address",
          "name": "fund",
          "type": "address"
        }
      ],
      "name": "registerFund",
      "outputs": [
        {
          "internalType": "uint256",
          "name": "index",
          "type": "uint256"
        }
      ],
      "stateMutability": "nonpayable",
      "type": "function"
    },
    {
      "inputs": [],
      "name": "renounceOwnership",
      "outputs": [],
      "stateMutability": "nonpayable",
      "type": "function"
    },
    {
      "inputs": [
        {
          "internalType": "address",
          "name": "fund",
          "type": "address"
        },
        {
          "internalType": "uint256",
          "name": "newAPR",
          "type": "uint256"
        }
      ],
      "name": "setFundMaxAPR",
      "outputs": [],
      "stateMutability": "nonpayable",
      "type": "function"
    },
    {
      "inputs": [
        {
          "internalType": "address",
          "name": "owner",
          "type": "address"
        },
        {
          "internalType": "address",
          "name": "token",
          "type": "address"
        },
        {
          "internalType": "uint256",
          "name": "amountIn",
          "type": "uint256"
        },
        {
          "internalType": "uint256",
          "name": "amountOut",
          "type": "uint256"
        },
        {
          "internalType": "uint256",
          "name": "deadline",
          "type": "uint256"
        },
        {
          "internalType": "bytes",
          "name": "signature",
          "type": "bytes"
        }
      ],
      "name": "swapETH",
      "outputs": [],
      "stateMutability": "nonpayable",
      "type": "function"
    },
    {
      "inputs": [
        {
          "internalType": "address",
          "name": "owner",
          "type": "address"
        },
        {
          "internalType": "address",
          "name": "token",
          "type": "address"
        },
        {
          "internalType": "uint256",
          "name": "amountIn",
          "type": "uint256"
        },
        {
          "internalType": "uint256",
          "name": "amountOut",
          "type": "uint256"
        },
        {
          "internalType": "uint256",
          "name": "deadline",
          "type": "uint256"
        },
        {
          "internalType": "bytes",
          "name": "signature",
          "type": "bytes"
        },
        {
          "internalType": "bytes",
          "name": "permit",
          "type": "bytes"
        }
      ],
      "name": "swapETH",
      "outputs": [],
      "stateMutability": "nonpayable",
      "type": "function"
    },
    {
      "inputs": [
        {
          "internalType": "address",
          "name": "newOwner",
          "type": "address"
        }
      ],
      "name": "transferOwnership",
      "outputs": [],
      "stateMutability": "nonpayable",
      "type": "function"
    },
    {
      "inputs": [
        {
          "internalType": "address",
          "name": "fund",
          "type": "address"
        },
        {
          "internalType": "bytes",
          "name": "data",
          "type": "bytes"
        }
      ],
      "name": "updateFundValue",
      "outputs": [
        {
          "internalType": "uint256",
          "name": "value",
          "type": "uint256"
        }
      ],
      "stateMutability": "payable",
      "type": "function"
    },
    {
      "inputs": [
        {
          "internalType": "address",
          "name": "newImplementation",
          "type": "address"
        },
        {
          "internalType": "bytes",
          "name": "data",
          "type": "bytes"
        }
      ],
      "name": "upgradeToAndCall",
      "outputs": [],
      "stateMutability": "payable",
      "type": "function"
    },
    {
      "inputs": [
        {
          "internalType": "address",
          "name": "to",
          "type": "address"
        },
        {
          "internalType": "uint256",
          "name": "amount",
          "type": "uint256"
        }
      ],
      "name": "withdrawTo",
      "outputs": [],
      "stateMutability": "nonpayable",
      "type": "function"
    },
    {
      "inputs": [
        {
          "internalType": "address",
          "name": "to",
          "type": "address"
        },
        {
          "internalType": "address",
          "name": "token",
          "type": "address"
        },
        {
          "internalType": "uint256",
          "name": "amount",
          "type": "uint256"
        }
      ],
      "name": "withdrawTo",
      "outputs": [],
      "stateMutability": "nonpayable",
      "type": "function"
    },
    {
      "stateMutability": "payable",
      "type": "receive"
    }
  ],
  "bytecode": "0x60a06040523060805234801561001457600080fd5b5061001d610022565b6100d4565b7ff0c57e16840df040f15088dc2f81fe391c3923bec73e23a9662efc9c229c6a00805468010000000000000000900460ff16156100725760405163f92ee8a960e01b815260040160405180910390fd5b80546001600160401b03908116146100d15780546001600160401b0319166001600160401b0390811782556040519081527fc7f505b2f371ae2175ee4913f4499e1f2633a7b5936321eed1cdaeb6115181d29060200160405180910390a15b50565b6080516131c36100fd6000396000818161188b015281816118b40152611ad001526131c36000f3fe6080604052600436106101bb5760003560e01c80637ecebe00116100ec578063c3b35a7e1161008a578063d08fb78f11610064578063d08fb78f14610609578063ea8f386a1461061c578063f2fde38b1461065f578063fe0652801461067f57600080fd5b8063c3b35a7e146105a9578063c4d66de8146105c9578063c65b3ef8146105e957600080fd5b80639782e1f8116100c65780639782e1f8146104205780639b8ec8ef1461045b578063ad3cb1cc14610509578063c1c66f111461055f57600080fd5b80637ecebe001461038e57806384b0196e146103ae5780638da5cb5b146103d657600080fd5b8063422daa7311610159578063623bfc2a11610133578063623bfc2a146103195780636ce43f7614610339578063715018a6146103595780637b8e88951461036e57600080fd5b8063422daa73146102d15780634f1ef286146102f157806352d1902d1461030457600080fd5b8063205c287811610195578063205c28781461025a57806328e64e311461027c5780632c8fe1d71461029c5780633644e515146102bc57600080fd5b8063017e7e58146101c75780630241d979146102065780630905c5a01461023b57600080fd5b366101c257005b600080fd5b3480156101d357600080fd5b506101dc610692565b60405173ffffffffffffffffffffffffffffffffffffffff90911681526020015b60405180910390f35b34801561021257600080fd5b506102266102213660046127ab565b6106d7565b604080519283526020830191909152016101fd565b34801561024757600080fd5b506000545b6040519081526020016101fd565b34801561026657600080fd5b5061027a6102753660046127fc565b61081a565b005b34801561028857600080fd5b5061027a6102973660046127fc565b61086a565b3480156102a857600080fd5b506102266102b736600461286a565b6108f6565b3480156102c857600080fd5b5061024c610a48565b3480156102dd57600080fd5b5061027a6102ec3660046128f9565b610a52565b61027a6102ff366004612a3c565b610a72565b34801561031057600080fd5b5061024c610a91565b34801561032557600080fd5b5061024c610334366004612a8c565b610ac0565b34801561034557600080fd5b5061027a610354366004612acd565b610b6d565b34801561036557600080fd5b5061027a610b9d565b34801561037a57600080fd5b506101dc610389366004612b86565b610bb1565b34801561039a57600080fd5b5061024c6103a9366004612b9f565b610be8565b3480156103ba57600080fd5b506103c3610c34565b6040516101fd9796959493929190612c2a565b3480156103e257600080fd5b507f9016d09d72d40fdae2fd8ceac6b6234c7706214fd39c1cd1e609a0528c1993005473ffffffffffffffffffffffffffffffffffffffff166101dc565b34801561042c57600080fd5b5061044061043b366004612ceb565b610d35565b604080519384526020840192909252908201526060016101fd565b34801561046757600080fd5b5061047b610476366004612b9f565b610ddb565b6040516101fd9190600060c08201905073ffffffffffffffffffffffffffffffffffffffff8351168252602083015160208301526040830151604083015273ffffffffffffffffffffffffffffffffffffffff606084015116606083015273ffffffffffffffffffffffffffffffffffffffff608084015116608083015260a083015160a083015292915050565b34801561051557600080fd5b506105526040518060400160405280600581526020017f352e302e3000000000000000000000000000000000000000000000000000000081525081565b6040516101fd9190612d24565b34801561056b57600080fd5b5061057f61057a366004612d37565b610e7c565b6040805192835273ffffffffffffffffffffffffffffffffffffffff9091166020830152016101fd565b3480156105b557600080fd5b5061027a6105c4366004612a8c565b610fce565b3480156105d557600080fd5b5061027a6105e4366004612b9f565b611075565b3480156105f557600080fd5b5061024c610604366004612b9f565b611270565b610226610617366004612ceb565b6114b3565b34801561062857600080fd5b506101dc610637366004612b9f565b60016020526000908152604090205473ffffffffffffffffffffffffffffffffffffffff1681565b34801561066b57600080fd5b5061027a61067a366004612b9f565b611557565b61024c61068d366004612d74565b6115bb565b60006106d27f9016d09d72d40fdae2fd8ceac6b6234c7706214fd39c1cd1e609a0528c1993005473ffffffffffffffffffffffffffffffffffffffff1690565b905090565b6040517f23b872dd00000000000000000000000000000000000000000000000000000000815233600482015273ffffffffffffffffffffffffffffffffffffffff85811660248301526044820183905260009182918516906323b872dd906064016020604051808303816000875af1158015610757573d6000803e3d6000fd5b505050506040513d601f19601f8201168201806040525081019061077b9190612dc9565b506040517f6a62784200000000000000000000000000000000000000000000000000000000815273ffffffffffffffffffffffffffffffffffffffff8681166004830152871690636a6278429060240160408051808303816000875af11580156107e9573d6000803e3d6000fd5b505050506040513d601f19601f8201168201806040525081019061080d9190612deb565b9150915094509492505050565b61082261163c565b60405173ffffffffffffffffffffffffffffffffffffffff83169082156108fc029083906000818181858888f19350505050158015610865573d6000803e3d6000fd5b505050565b61087261163c565b6040517fe010f1020000000000000000000000000000000000000000000000000000000081526004810182905273ffffffffffffffffffffffffffffffffffffffff83169063e010f10290602401600060405180830381600087803b1580156108da57600080fd5b505af11580156108ee573d6000803e3d6000fd5b505050505050565b6000806109078733888888886116ca565b6040517f23b872dd00000000000000000000000000000000000000000000000000000000815233600482015273ffffffffffffffffffffffffffffffffffffffff8a81166024830152604482018890528816906323b872dd906064016020604051808303816000875af1158015610982573d6000803e3d6000fd5b505050506040513d601f19601f820116820180604052508101906109a69190612dc9565b506040517f6a62784200000000000000000000000000000000000000000000000000000000815273ffffffffffffffffffffffffffffffffffffffff89811660048301528a1690636a6278429060240160408051808303816000875af1158015610a14573d6000803e3d6000fd5b505050506040513d601f19601f82011682018060405250810190610a389190612deb565b9150915097509795505050505050565b60006106d26116fd565b610a5a61163c565b610a6987878787878787611707565b50505050505050565b610a7a611873565b610a8382611977565b610a8d828261197f565b5050565b6000610a9b611ab8565b507f360894a13ba1a3210667c828492db98dca3e2076cc3735a920a3ca505d382bbc90565b6040517ff6b911bc00000000000000000000000000000000000000000000000000000000815233600482015273ffffffffffffffffffffffffffffffffffffffff8381166024830152604482018390526000919085169063f6b911bc906064016020604051808303816000875af1158015610b3f573d6000803e3d6000fd5b505050506040513d601f19601f82011682018060405250810190610b639190612e0f565b90505b9392505050565b610b7561163c565b610b83888a898886866116ca565b610b9289898989898989611707565b505050505050505050565b610ba561163c565b610baf6000611b27565b565b60008181548110610bc157600080fd5b60009182526020909120015473ffffffffffffffffffffffffffffffffffffffff16905081565b73ffffffffffffffffffffffffffffffffffffffff811660009081527f5ab42ced628888259c08ac98db1eb0cf702fc1501344311d8b100cd1bfe4bb0060205260408120545b92915050565b600060608082808083817fa16a46d94261c7517cc8ff89f61c0ce93598e3c849801011dee649a6a557d1008054909150158015610c7357506001810154155b610cde576040517f08c379a000000000000000000000000000000000000000000000000000000000815260206004820152601560248201527f4549503731323a20556e696e697469616c697a6564000000000000000000000060448201526064015b60405180910390fd5b610ce6611bbd565b610cee611c92565b604080516000808252602082019092527f0f000000000000000000000000000000000000000000000000000000000000009c939b5091995046985030975095509350915050565b6040517ffbcbc0f100000000000000000000000000000000000000000000000000000000815273ffffffffffffffffffffffffffffffffffffffff8281166004830152600091829182919086169063fbcbc0f190602401606060405180830381865afa158015610da9573d6000803e3d6000fd5b505050506040513d601f19601f82011682018060405250810190610dcd9190612e28565b9250925092505b9250925092565b6040805160c081018252600080825260208201819052918101829052606081018290526080810182905260a08101919091528173ffffffffffffffffffffffffffffffffffffffff1663077510706040518163ffffffff1660e01b815260040160c060405180830381865afa158015610e58573d6000803e3d6000fd5b505050506040513d601f19601f82011682018060405250810190610c2e9190612e56565b600080610e8761163c565b8251602084018181209182916000f5915060008273ffffffffffffffffffffffffffffffffffffffff16638129fc1c6040518163ffffffff1660e01b81526004016020604051808303816000875af1158015610ee7573d6000803e3d6000fd5b505050506040513d601f19601f82011682018060405250810190610f0b9190612eef565b6000805473ffffffffffffffffffffffffffffffffffffffff80871680845260016020819052604080862080549488167fffffffffffffffffffffffff0000000000000000000000000000000000000000958616179055855491820186558580527f290decd9548b62a8d60345a988386fc84ba6bc95484008f6362f93160ef3e56390910180549093168217909255905191975092935086917fb2717551cae9cbea884db7f3e7caba91bf864fefa32dc97702947780bb7d1dc291a35050915091565b610fd661163c565b6040517fa9059cbb00000000000000000000000000000000000000000000000000000000815273ffffffffffffffffffffffffffffffffffffffff84811660048301526024820183905283169063a9059cbb906044016020604051808303816000875af115801561104b573d6000803e3d6000fd5b505050506040513d601f19601f8201168201806040525081019061106f9190612dc9565b50505050565b7ff0c57e16840df040f15088dc2f81fe391c3923bec73e23a9662efc9c229c6a00805468010000000000000000810460ff16159067ffffffffffffffff166000811580156110c05750825b905060008267ffffffffffffffff1660011480156110dd5750303b155b9050811580156110eb575080155b15611122576040517ff92ee8a900000000000000000000000000000000000000000000000000000000815260040160405180910390fd5b84547fffffffffffffffffffffffffffffffffffffffffffffffff000000000000000016600117855583156111835784547fffffffffffffffffffffffffffffffffffffffffffffff00ffffffffffffffff16680100000000000000001785555b61118c86611ce3565b611194611cf4565b6112086040518060400160405280600581526020017f656e7472790000000000000000000000000000000000000000000000000000008152506040518060400160405280600181526020017f3100000000000000000000000000000000000000000000000000000000000000815250611cfc565b83156108ee5784547fffffffffffffffffffffffffffffffffffffffffffffff00ffffffffffffffff168555604051600181527fc7f505b2f371ae2175ee4913f4499e1f2633a7b5936321eed1cdaeb6115181d29060200160405180910390a1505050505050565b6000808273ffffffffffffffffffffffffffffffffffffffff16638129fc1c6040518163ffffffff1660e01b81526004016020604051808303816000875af11580156112c0573d6000803e3d6000fd5b505050506040513d601f19601f820116820180604052508101906112e49190612eef565b905073ffffffffffffffffffffffffffffffffffffffff8116611363576040517f08c379a000000000000000000000000000000000000000000000000000000000815260206004820152601560248201527f696e7661696c6420746f6b656e206164647265737300000000000000000000006044820152606401610cd5565b73ffffffffffffffffffffffffffffffffffffffff83811660009081526001602052604090205416156113f2576040517f08c379a000000000000000000000000000000000000000000000000000000000815260206004820152600e60248201527f6578697374207468652066756e640000000000000000000000000000000000006044820152606401610cd5565b6000805473ffffffffffffffffffffffffffffffffffffffff80861680845260016020819052604080862080549488167fffffffffffffffffffffffff0000000000000000000000000000000000000000958616179055855491820186558580527f290decd9548b62a8d60345a988386fc84ba6bc95484008f6362f93160ef3e5639091018054909316821790925590519194509184917fb2717551cae9cbea884db7f3e7caba91bf864fefa32dc97702947780bb7d1dc29190a350919050565b6040517f6a62784200000000000000000000000000000000000000000000000000000000815273ffffffffffffffffffffffffffffffffffffffff82811660048301526000918291851690636a627842903490602401604080518083038185885af1158015611526573d6000803e3d6000fd5b50505050506040513d601f19601f8201168201806040525081019061154b9190612deb565b915091505b9250929050565b61155f61163c565b73ffffffffffffffffffffffffffffffffffffffff81166115af576040517f1e4fbdf700000000000000000000000000000000000000000000000000000000815260006004820152602401610cd5565b6115b881611b27565b50565b60008373ffffffffffffffffffffffffffffffffffffffff16634f418e0d3485856040518463ffffffff1660e01b81526004016115f9929190612f0c565b60206040518083038185885af1158015611617573d6000803e3d6000fd5b50505050506040513d601f19601f82011682018060405250810190610b639190612e0f565b3361167b7f9016d09d72d40fdae2fd8ceac6b6234c7706214fd39c1cd1e609a0528c1993005473ffffffffffffffffffffffffffffffffffffffff1690565b73ffffffffffffffffffffffffffffffffffffffff1614610baf576040517f118cdaa7000000000000000000000000000000000000000000000000000000008152336004820152602401610cd5565b604181146116da576116da612f59565b606082015160208301359060408401359060001a610b9289898989858888611d6f565b60006106d2611e24565b61171687878787878787611e98565b6040517f23b872dd00000000000000000000000000000000000000000000000000000000815273ffffffffffffffffffffffffffffffffffffffff8881166004830152306024830152604482018790528716906323b872dd906064016020604051808303816000875af1158015611791573d6000803e3d6000fd5b505050506040513d601f19601f820116820180604052508101906117b59190612dc9565b5060405173ffffffffffffffffffffffffffffffffffffffff88169085156108fc029086906000818181858888f193505050501580156117f9573d6000803e3d6000fd5b508573ffffffffffffffffffffffffffffffffffffffff168773ffffffffffffffffffffffffffffffffffffffff167f9173a42b413c615faa9b1be56906b5d7f45ee241043462388b06dc7d417132b58787604051611862929190918252602082015260400190565b60405180910390a350505050505050565b3073ffffffffffffffffffffffffffffffffffffffff7f000000000000000000000000000000000000000000000000000000000000000016148061194057507f000000000000000000000000000000000000000000000000000000000000000073ffffffffffffffffffffffffffffffffffffffff166119277f360894a13ba1a3210667c828492db98dca3e2076cc3735a920a3ca505d382bbc5473ffffffffffffffffffffffffffffffffffffffff1690565b73ffffffffffffffffffffffffffffffffffffffff1614155b15610baf576040517fe07c8dba00000000000000000000000000000000000000000000000000000000815260040160405180910390fd5b6115b861163c565b8173ffffffffffffffffffffffffffffffffffffffff166352d1902d6040518163ffffffff1660e01b8152600401602060405180830381865afa925050508015611a04575060408051601f3d9081017fffffffffffffffffffffffffffffffffffffffffffffffffffffffffffffffe0168201909252611a0191810190612e0f565b60015b611a52576040517f4c9c8ce300000000000000000000000000000000000000000000000000000000815273ffffffffffffffffffffffffffffffffffffffff83166004820152602401610cd5565b7f360894a13ba1a3210667c828492db98dca3e2076cc3735a920a3ca505d382bbc8114611aae576040517faa1d49a400000000000000000000000000000000000000000000000000000000815260048101829052602401610cd5565b61086583836120d0565b3073ffffffffffffffffffffffffffffffffffffffff7f00000000000000000000000000000000000000000000000000000000000000001614610baf576040517fe07c8dba00000000000000000000000000000000000000000000000000000000815260040160405180910390fd5b7f9016d09d72d40fdae2fd8ceac6b6234c7706214fd39c1cd1e609a0528c19930080547fffffffffffffffffffffffff0000000000000000000000000000000000000000811673ffffffffffffffffffffffffffffffffffffffff848116918217845560405192169182907f8be0079c531659141344cd1fd0a4f28419497f9722a3daafe3b4186f6b6457e090600090a3505050565b7fa16a46d94261c7517cc8ff89f61c0ce93598e3c849801011dee649a6a557d10280546060917fa16a46d94261c7517cc8ff89f61c0ce93598e3c849801011dee649a6a557d10091611c0e90612f88565b80601f0160208091040260200160405190810160405280929190818152602001828054611c3a90612f88565b8015611c875780601f10611c5c57610100808354040283529160200191611c87565b820191906000526020600020905b815481529060010190602001808311611c6a57829003601f168201915b505050505091505090565b7fa16a46d94261c7517cc8ff89f61c0ce93598e3c849801011dee649a6a557d10380546060917fa16a46d94261c7517cc8ff89f61c0ce93598e3c849801011dee649a6a557d10091611c0e90612f88565b611ceb612133565b6115b88161219a565b610baf612133565b611d04612133565b7fa16a46d94261c7517cc8ff89f61c0ce93598e3c849801011dee649a6a557d1007fa16a46d94261c7517cc8ff89f61c0ce93598e3c849801011dee649a6a557d102611d508482613029565b5060038101611d5f8382613029565b5060008082556001909101555050565b6040517fd505accf00000000000000000000000000000000000000000000000000000000815273ffffffffffffffffffffffffffffffffffffffff8781166004830152306024830152604482018790526064820186905260ff8516608483015260a4820184905260c4820183905288169063d505accf9060e401600060405180830381600087803b158015611e0357600080fd5b505af1158015611e17573d6000803e3d6000fd5b5050505050505050505050565b60007f8b73c3c69bb8fe3d512ecc4cf759cc79239f7b179b0ffacaa9a75d522b39400f611e4f6121a2565b611e5761221e565b60408051602081019490945283019190915260608201524660808201523060a082015260c00160405160208183030381529060405280519060200120905090565b824210611f01576040517f08c379a000000000000000000000000000000000000000000000000000000000815260206004820152601160248201527f7369676e617475726520657870697265640000000000000000000000000000006044820152606401610cd5565b60007f5bf710dd57140042e9dd710a28ed5e8a21684b685713ddb70be7badd0c1a64f988888888611f7b8d73ffffffffffffffffffffffffffffffffffffffff1660009081527f5ab42ced628888259c08ac98db1eb0cf702fc1501344311d8b100cd1bfe4bb006020526040902080546001810190915590565b60408051602081019790975273ffffffffffffffffffffffffffffffffffffffff95861690870152939092166060850152608084015260a083015260c082015260e08101859052610100016040516020818303038152906040528051906020012090506000611fe982612274565b9050600061202d8286868080601f0160208091040260200160405190810160405280939291908181526020018383808284376000920191909152506122bc92505050565b90508973ffffffffffffffffffffffffffffffffffffffff168173ffffffffffffffffffffffffffffffffffffffff16146120c4576040517f08c379a000000000000000000000000000000000000000000000000000000000815260206004820152600e60248201527f696e76616c6964207369676e65720000000000000000000000000000000000006044820152606401610cd5565b50505050505050505050565b6120d9826122e6565b60405173ffffffffffffffffffffffffffffffffffffffff8316907fbc7cd75a20ee27fd9adebab32041f755214dbc6bffa90cc0225b39da2e5c2d3b90600090a280511561212b5761086582826123b5565b610a8d612438565b7ff0c57e16840df040f15088dc2f81fe391c3923bec73e23a9662efc9c229c6a005468010000000000000000900460ff16610baf576040517fd7e6bcf800000000000000000000000000000000000000000000000000000000815260040160405180910390fd5b61155f612133565b60007fa16a46d94261c7517cc8ff89f61c0ce93598e3c849801011dee649a6a557d100816121ce611bbd565b8051909150156121e657805160209091012092915050565b815480156121f5579392505050565b7fc5d2460186f7233c927e7db2dcc703c0e500b653ca82273b7bfad8045d85a470935050505090565b60007fa16a46d94261c7517cc8ff89f61c0ce93598e3c849801011dee649a6a557d1008161224a611c92565b80519091501561226257805160209091012092915050565b600182015480156121f5579392505050565b6000610c2e6122816116fd565b836040517f19010000000000000000000000000000000000000000000000000000000000008152600281019290925260228201526042902090565b6000806000806122cc8686612470565b9250925092506122dc82826124ba565b5090949350505050565b8073ffffffffffffffffffffffffffffffffffffffff163b60000361234f576040517f4c9c8ce300000000000000000000000000000000000000000000000000000000815273ffffffffffffffffffffffffffffffffffffffff82166004820152602401610cd5565b7f360894a13ba1a3210667c828492db98dca3e2076cc3735a920a3ca505d382bbc80547fffffffffffffffffffffffff00000000000000000000000000000000000000001673ffffffffffffffffffffffffffffffffffffffff92909216919091179055565b60606000808473ffffffffffffffffffffffffffffffffffffffff16846040516123df9190613142565b600060405180830381855af49150503d806000811461241a576040519150601f19603f3d011682016040523d82523d6000602084013e61241f565b606091505b509150915061242f8583836125be565b95945050505050565b3415610baf576040517fb398979f00000000000000000000000000000000000000000000000000000000815260040160405180910390fd5b600080600083516041036124aa5760208401516040850151606086015160001a61249c8882858561264d565b955095509550505050610dd4565b5050815160009150600290610dd4565b60008260038111156124ce576124ce61315e565b036124d7575050565b60018260038111156124eb576124eb61315e565b03612522576040517ff645eedf00000000000000000000000000000000000000000000000000000000815260040160405180910390fd5b60028260038111156125365761253661315e565b03612570576040517ffce698f700000000000000000000000000000000000000000000000000000000815260048101829052602401610cd5565b60038260038111156125845761258461315e565b03610a8d576040517fd78bce0c00000000000000000000000000000000000000000000000000000000815260048101829052602401610cd5565b6060826125d3576125ce82612747565b610b66565b81511580156125f7575073ffffffffffffffffffffffffffffffffffffffff84163b155b15612646576040517f9996b31500000000000000000000000000000000000000000000000000000000815273ffffffffffffffffffffffffffffffffffffffff85166004820152602401610cd5565b5080610b66565b600080807f7fffffffffffffffffffffffffffffff5d576e7357a4501ddfe92f46681b20a0841115612688575060009150600390508261273d565b604080516000808252602082018084528a905260ff891692820192909252606081018790526080810186905260019060a0016020604051602081039080840390855afa1580156126dc573d6000803e3d6000fd5b50506040517fffffffffffffffffffffffffffffffffffffffffffffffffffffffffffffffe0015191505073ffffffffffffffffffffffffffffffffffffffff81166127335750600092506001915082905061273d565b9250600091508190505b9450945094915050565b8051156127575780518082602001fd5b6040517fd6bda27500000000000000000000000000000000000000000000000000000000815260040160405180910390fd5b73ffffffffffffffffffffffffffffffffffffffff811681146115b857600080fd5b600080600080608085870312156127c157600080fd5b84356127cc81612789565b935060208501356127dc81612789565b925060408501356127ec81612789565b9396929550929360600135925050565b6000806040838503121561280f57600080fd5b823561281a81612789565b946020939093013593505050565b60008083601f84011261283a57600080fd5b50813567ffffffffffffffff81111561285257600080fd5b60208301915083602082850101111561155057600080fd5b600080600080600080600060c0888a03121561288557600080fd5b873561289081612789565b965060208801356128a081612789565b955060408801356128b081612789565b9450606088013593506080880135925060a088013567ffffffffffffffff8111156128da57600080fd5b6128e68a828b01612828565b989b979a50959850939692959293505050565b600080600080600080600060c0888a03121561291457600080fd5b873561291f81612789565b9650602088013561292f81612789565b955060408801359450606088013593506080880135925060a088013567ffffffffffffffff8111156128da57600080fd5b7f4e487b7100000000000000000000000000000000000000000000000000000000600052604160045260246000fd5b600082601f8301126129a057600080fd5b813567ffffffffffffffff8111156129ba576129ba612960565b604051601f82017fffffffffffffffffffffffffffffffffffffffffffffffffffffffffffffffe0908116603f0116810167ffffffffffffffff81118282101715612a0757612a07612960565b604052818152838201602001851015612a1f57600080fd5b816020850160208301376000918101602001919091529392505050565b60008060408385031215612a4f57600080fd5b8235612a5a81612789565b9150602083013567ffffffffffffffff811115612a7657600080fd5b612a828582860161298f565b9150509250929050565b600080600060608486031215612aa157600080fd5b8335612aac81612789565b92506020840135612abc81612789565b929592945050506040919091013590565b600080600080600080600080600060e08a8c031215612aeb57600080fd5b8935612af681612789565b985060208a0135612b0681612789565b975060408a0135965060608a0135955060808a0135945060a08a013567ffffffffffffffff811115612b3757600080fd5b612b438c828d01612828565b90955093505060c08a013567ffffffffffffffff811115612b6357600080fd5b612b6f8c828d01612828565b915080935050809150509295985092959850929598565b600060208284031215612b9857600080fd5b5035919050565b600060208284031215612bb157600080fd5b8135610b6681612789565b60005b83811015612bd7578181015183820152602001612bbf565b50506000910152565b60008151808452612bf8816020860160208601612bbc565b601f017fffffffffffffffffffffffffffffffffffffffffffffffffffffffffffffffe0169290920160200192915050565b7fff000000000000000000000000000000000000000000000000000000000000008816815260e060208201526000612c6560e0830189612be0565b8281036040840152612c778189612be0565b6060840188905273ffffffffffffffffffffffffffffffffffffffff8716608085015260a0840186905283810360c08501528451808252602080870193509091019060005b81811015612cda578351835260209384019390920191600101612cbc565b50909b9a5050505050505050505050565b60008060408385031215612cfe57600080fd5b8235612d0981612789565b91506020830135612d1981612789565b809150509250929050565b602081526000610b666020830184612be0565b600060208284031215612d4957600080fd5b813567ffffffffffffffff811115612d6057600080fd5b612d6c8482850161298f565b949350505050565b600080600060408486031215612d8957600080fd5b8335612d9481612789565b9250602084013567ffffffffffffffff811115612db057600080fd5b612dbc86828701612828565b9497909650939450505050565b600060208284031215612ddb57600080fd5b81518015158114610b6657600080fd5b60008060408385031215612dfe57600080fd5b505080516020909101519092909150565b600060208284031215612e2157600080fd5b5051919050565b600080600060608486031215612e3d57600080fd5b5050815160208301516040909301519094929350919050565b600060c0828403128015612e6957600080fd5b5060405160009060c0810167ffffffffffffffff81118282101715612e9057612e90612960565b6040528351612e9e81612789565b815260208481015190820152604080850151908201526060840151612ec281612789565b60608201526080840151612ed581612789565b608082015260a09384015193810193909352509092915050565b600060208284031215612f0157600080fd5b8151610b6681612789565b60208152816020820152818360408301376000818301604090810191909152601f9092017fffffffffffffffffffffffffffffffffffffffffffffffffffffffffffffffe0160101919050565b7f4e487b7100000000000000000000000000000000000000000000000000000000600052600160045260246000fd5b600181811c90821680612f9c57607f821691505b602082108103612fd5577f4e487b7100000000000000000000000000000000000000000000000000000000600052602260045260246000fd5b50919050565b601f82111561086557806000526020600020601f840160051c810160208510156130025750805b601f840160051c820191505b81811015613022576000815560010161300e565b5050505050565b815167ffffffffffffffff81111561304357613043612960565b613057816130518454612f88565b84612fdb565b6020601f8211600181146130a957600083156130735750848201515b7fffffffffffffffffffffffffffffffffffffffffffffffffffffffffffffffff600385901b1c1916600184901b178455613022565b6000848152602081207fffffffffffffffffffffffffffffffffffffffffffffffffffffffffffffffe08516915b828110156130f757878501518255602094850194600190920191016130d7565b508482101561313357868401517fffffffffffffffffffffffffffffffffffffffffffffffffffffffffffffffff600387901b60f8161c191681555b50505050600190811b01905550565b60008251613154818460208701612bbc565b9190910192915050565b7f4e487b7100000000000000000000000000000000000000000000000000000000600052602160045260246000fdfea26469706673582212208c042bca9ee99ce4caa2f46135a54791f0f5da29a31db2b2b5f6131592c1290664736f6c634300081c0033",
  "linkReferences": {},
  "deployedLinkReferences": {}
}