{
  "_format": "hh-sol-artifact-1",
  "contractName": "FundTest",
  "sourceName": "contracts/FundTest.sol",
  "abi": [
    {
      "inputs": [
        {
          "internalType": "address",
          "name": "spender",
          "type": "address"
        },
        {
          "internalType": "uint256",
          "name": "allowance",
          "type": "uint256"
        },
        {
          "internalType": "uint256",
          "name": "needed",
          "type": "uint256"
        }
      ],
      "name": "ERC20InsufficientAllowance",
      "type": "error"
    },
    {
      "inputs": [
        {
          "internalType": "address",
          "name": "sender",
          "type": "address"
        },
        {
          "internalType": "uint256",
          "name": "balance",
          "type": "uint256"
        },
        {
          "internalType": "uint256",
          "name": "needed",
          "type": "uint256"
        }
      ],
      "name": "ERC20InsufficientBalance",
      "type": "error"
    },
    {
      "inputs": [
        {
          "internalType": "address",
          "name": "approver",
          "type": "address"
        }
      ],
      "name": "ERC20InvalidApprover",
      "type": "error"
    },
    {
      "inputs": [
        {
          "internalType": "address",
          "name": "receiver",
          "type": "address"
        }
      ],
      "name": "ERC20InvalidReceiver",
      "type": "error"
    },
    {
      "inputs": [
        {
          "internalType": "address",
          "name": "sender",
          "type": "address"
        }
      ],
      "name": "ERC20InvalidSender",
      "type": "error"
    },
    {
      "inputs": [
        {
          "internalType": "address",
          "name": "spender",
          "type": "address"
        }
      ],
      "name": "ERC20InvalidSpender",
      "type": "error"
    },
    {
      "anonymous": false,
      "inputs": [
        {
          "indexed": true,
          "internalType": "address",
          "name": "owner",
          "type": "address"
        },
        {
          "indexed": true,
          "internalType": "address",
          "name": "spender",
          "type": "address"
        },
        {
          "indexed": false,
          "internalType": "uint256",
          "name": "value",
          "type": "uint256"
        }
      ],
      "name": "Approval",
      "type": "event"
    },
    {
      "anonymous": false,
      "inputs": [
        {
          "indexed": false,
          "internalType": "address",
          "name": "owner",
          "type": "address"
        },
        {
          "indexed": false,
          "internalType": "uint256",
          "name": "shares",
          "type": "uint256"
        },
        {
          "indexed": false,
          "internalType": "uint256",
          "name": "value",
          "type": "uint256"
        }
      ],
      "name": "Burn",
      "type": "event"
    },
    {
      "anonymous": false,
      "inputs": [
        {
          "indexed": false,
          "internalType": "address",
          "name": "to",
          "type": "address"
        },
        {
          "indexed": false,
          "internalType": "uint256",
          "name": "shares",
          "type": "uint256"
        },
        {
          "indexed": false,
          "internalType": "uint256",
          "name": "value",
          "type": "uint256"
        }
      ],
      "name": "Mint",
      "type": "event"
    },
    {
      "anonymous": false,
      "inputs": [
        {
          "indexed": false,
          "internalType": "uint256",
          "name": "APR",
          "type": "uint256"
        }
      ],
      "name": "SetMaxAPR",
      "type": "event"
    },
    {
      "anonymous": false,
      "inputs": [
        {
          "indexed": true,
          "internalType": "address",
          "name": "from",
          "type": "address"
        },
        {
          "indexed": true,
          "internalType": "address",
          "name": "to",
          "type": "address"
        },
        {
          "indexed": false,
          "internalType": "uint256",
          "name": "value",
          "type": "uint256"
        }
      ],
      "name": "Transfer",
      "type": "event"
    },
    {
      "anonymous": false,
      "inputs": [
        {
          "indexed": false,
          "internalType": "uint256",
          "name": "value",
          "type": "uint256"
        },
        {
          "indexed": false,
          "internalType": "uint256",
          "name": "time",
          "type": "uint256"
        }
      ],
      "name": "UpdateValue",
      "type": "event"
    },
    {
      "inputs": [
        {
          "internalType": "address",
          "name": "owner",
          "type": "address"
        },
        {
          "internalType": "address",
          "name": "spender",
          "type": "address"
        }
      ],
      "name": "allowance",
      "outputs": [
        {
          "internalType": "uint256",
          "name": "",
          "type": "uint256"
        }
      ],
      "stateMutability": "view",
      "type": "function"
    },
    {
      "inputs": [
        {
          "internalType": "address",
          "name": "spender",
          "type": "address"
        },
        {
          "internalType": "uint256",
          "name": "value",
          "type": "uint256"
        }
      ],
      "name": "approve",
      "outputs": [
        {
          "internalType": "bool",
          "name": "",
          "type": "bool"
        }
      ],
      "stateMutability": "nonpayable",
      "type": "function"
    },
    {
      "inputs": [
        {
          "internalType": "address",
          "name": "account",
          "type": "address"
        }
      ],
      "name": "balanceOf",
      "outputs": [
        {
          "internalType": "uint256",
          "name": "",
          "type": "uint256"
        }
      ],
      "stateMutability": "view",
      "type": "function"
    },
    {
      "inputs": [
        {
          "internalType": "address",
          "name": "owner",
          "type": "address"
        },
        {
          "internalType": "address",
          "name": "to",
          "type": "address"
        },
        {
          "internalType": "uint256",
          "name": "shares",
          "type": "uint256"
        }
      ],
      "name": "burn",
      "outputs": [
        {
          "internalType": "uint256",
          "name": "",
          "type": "uint256"
        }
      ],
      "stateMutability": "nonpayable",
      "type": "function"
    },
    {
      "inputs": [],
      "name": "decimals",
      "outputs": [
        {
          "internalType": "uint8",
          "name": "",
          "type": "uint8"
        }
      ],
      "stateMutability": "pure",
      "type": "function"
    },
    {
      "inputs": [
        {
          "internalType": "address",
          "name": "owner",
          "type": "address"
        }
      ],
      "name": "getAccount",
      "outputs": [
        {
          "internalType": "uint256",
          "name": "shares",
          "type": "uint256"
        },
        {
          "internalType": "uint256",
          "name": "value",
          "type": "uint256"
        },
        {
          "internalType": "uint256",
          "name": "cost",
          "type": "uint256"
        }
      ],
      "stateMutability": "view",
      "type": "function"
    },
    {
      "inputs": [],
      "name": "getMaxAPR",
      "outputs": [
        {
          "internalType": "uint256",
          "name": "",
          "type": "uint256"
        }
      ],
      "stateMutability": "view",
      "type": "function"
    },
    {
      "inputs": [],
      "name": "getProperty",
      "outputs": [
        {
          "components": [
            {
              "internalType": "address",
              "name": "token",
              "type": "address"
            },
            {
              "internalType": "uint256",
              "name": "value",
              "type": "uint256"
            },
            {
              "internalType": "uint256",
              "name": "shares",
              "type": "uint256"
            },
            {
              "internalType": "address",
              "name": "entry",
              "type": "address"
            },
            {
              "internalType": "address",
              "name": "provider",
              "type": "address"
            },
            {
              "internalType": "uint256",
              "name": "maxAPR",
              "type": "uint256"
            }
          ],
          "internalType": "struct IFund.Property",
          "name": "result",
          "type": "tuple"
        }
      ],
      "stateMutability": "view",
      "type": "function"
    },
    {
      "inputs": [],
      "name": "initialize",
      "outputs": [
        {
          "internalType": "address",
          "name": "token",
          "type": "address"
        }
      ],
      "stateMutability": "nonpayable",
      "type": "function"
    },
    {
      "inputs": [
        {
          "internalType": "address",
          "name": "to",
          "type": "address"
        }
      ],
      "name": "mint",
      "outputs": [
        {
          "internalType": "uint256",
          "name": "shares",
          "type": "uint256"
        },
        {
          "internalType": "uint256",
          "name": "value",
          "type": "uint256"
        }
      ],
      "stateMutability": "payable",
      "type": "function"
    },
    {
      "inputs": [],
      "name": "name",
      "outputs": [
        {
          "internalType": "string",
          "name": "",
          "type": "string"
        }
      ],
      "stateMutability": "view",
      "type": "function"
    },
    {
      "inputs": [
        {
          "internalType": "uint256",
          "name": "newAPR",
          "type": "uint256"
        }
      ],
      "name": "setMaxAPR",
      "outputs": [],
      "stateMutability": "nonpayable",
      "type": "function"
    },
    {
      "inputs": [],
      "name": "symbol",
      "outputs": [
        {
          "internalType": "string",
          "name": "",
          "type": "string"
        }
      ],
      "stateMutability": "view",
      "type": "function"
    },
    {
      "inputs": [],
      "name": "totalSupply",
      "outputs": [
        {
          "internalType": "uint256",
          "name": "",
          "type": "uint256"
        }
      ],
      "stateMutability": "view",
      "type": "function"
    },
    {
      "inputs": [
        {
          "internalType": "address",
          "name": "to",
          "type": "address"
        },
        {
          "internalType": "uint256",
          "name": "value",
          "type": "uint256"
        }
      ],
      "name": "transfer",
      "outputs": [
        {
          "internalType": "bool",
          "name": "",
          "type": "bool"
        }
      ],
      "stateMutability": "nonpayable",
      "type": "function"
    },
    {
      "inputs": [
        {
          "internalType": "address",
          "name": "from",
          "type": "address"
        },
        {
          "internalType": "address",
          "name": "to",
          "type": "address"
        },
        {
          "internalType": "uint256",
          "name": "value",
          "type": "uint256"
        }
      ],
      "name": "transferFrom",
      "outputs": [
        {
          "internalType": "bool",
          "name": "",
          "type": "bool"
        }
      ],
      "stateMutability": "nonpayable",
      "type": "function"
    },
    {
      "inputs": [
        {
          "internalType": "bytes",
          "name": "data",
          "type": "bytes"
        }
      ],
      "name": "updateValue",
      "outputs": [
        {
          "internalType": "uint256",
          "name": "value",
          "type": "uint256"
        }
      ],
      "stateMutability": "payable",
      "type": "function"
    }
  ],
  "bytecode": "0x608060405234801561001057600080fd5b506040518060400160405280600d81526020016c119d5b9908119bdc8815195cdd609a1b81525060405180604001604052806008815260200167119d5b9915195cdd60c21b8152508160039081610067919061011b565b506004610074828261011b565b5050506101d9565b634e487b7160e01b600052604160045260246000fd5b600181811c908216806100a657607f821691505b6020821081036100c657634e487b7160e01b600052602260045260246000fd5b50919050565b601f82111561011657806000526020600020601f840160051c810160208510156100f35750805b601f840160051c820191505b8181101561011357600081556001016100ff565b50505b505050565b81516001600160401b038111156101345761013461007c565b610148816101428454610092565b846100cc565b6020601f82116001811461017c57600083156101645750848201515b600019600385901b1c1916600184901b178455610113565b600084815260208120601f198516915b828110156101ac578785015182556020948501946001909201910161018c565b50848210156101ca5786840151600019600387901b60f8161c191681555b50505050600190811b01905550565b6126b4806101e86000396000f3fe60806040526004361061010e5760003560e01c80636a627842116100a5578063a9059cbb11610074578063e010f10211610059578063e010f10214610450578063f6b911bc14610472578063fbcbc0f11461049257600080fd5b8063a9059cbb146103dd578063dd62ed3e146103fd57600080fd5b80636a6278421461032357806370a082311461034b5780638129fc1c1461038e57806395d89b41146103c857600080fd5b80631e68607a116100e15780631e68607a146102bf57806323b872dd146102d4578063313ce567146102f45780634f418e0d1461031057600080fd5b806306fdde0314610113578063077510701461013e578063095ea7b31461027057806318160ddd146102a0575b600080fd5b34801561011f57600080fd5b506101286104cd565b60405161013591906114cd565b60405180910390f35b34801561014a57600080fd5b506101e26040805160c081018252600080825260208201819052918101829052606081018290526080810182905260a0810191909152506040805160c08101825260055473ffffffffffffffffffffffffffffffffffffffff9081168252600654602083015260075492820192909252600854821660608201526009549091166080820152600a5460a0820152600254604082015290565b6040516101359190600060c08201905073ffffffffffffffffffffffffffffffffffffffff8351168252602083015160208301526040830151604083015273ffffffffffffffffffffffffffffffffffffffff606084015116606083015273ffffffffffffffffffffffffffffffffffffffff608084015116608083015260a083015160a083015292915050565b34801561027c57600080fd5b5061029061028b36600461155e565b61055f565b6040519015158152602001610135565b3480156102ac57600080fd5b506002545b604051908152602001610135565b3480156102cb57600080fd5b50600a546102b1565b3480156102e057600080fd5b506102906102ef36600461158a565b610579565b34801561030057600080fd5b5060405160068152602001610135565b6102b161031e3660046115cb565b61059d565b61033661033136600461163f565b610710565b60408051928352602083019190915201610135565b34801561035757600080fd5b506102b161036636600461163f565b73ffffffffffffffffffffffffffffffffffffffff1660009081526020819052604090205490565b34801561039a57600080fd5b506103a36107d1565b60405173ffffffffffffffffffffffffffffffffffffffff9091168152602001610135565b3480156103d457600080fd5b506101286109de565b3480156103e957600080fd5b506102906103f836600461155e565b6109ed565b34801561040957600080fd5b506102b1610418366004611663565b73ffffffffffffffffffffffffffffffffffffffff918216600090815260016020908152604080832093909416825291909152205490565b34801561045c57600080fd5b5061047061046b36600461169c565b6109fb565b005b34801561047e57600080fd5b506102b161048d36600461158a565b610ab8565b34801561049e57600080fd5b506104b26104ad36600461163f565b610cdb565b60408051938452602084019290925290820152606001610135565b6060600380546104dc906116b5565b80601f0160208091040260200160405190810160405280929190818152602001828054610508906116b5565b80156105555780601f1061052a57610100808354040283529160200191610555565b820191906000526020600020905b81548152906001019060200180831161053857829003601f168201915b5050505050905090565b60003361056d818585610d66565b60019150505b92915050565b600033610587858285610d78565b610592858585610e47565b506001949350505050565b600062014ff0600b54426105b19190611737565b11156106735760208290036106735760006105ce8385018561169c565b6009546040517f23b872dd0000000000000000000000000000000000000000000000000000000081523260048201523060248201526044810183905291925073ffffffffffffffffffffffffffffffffffffffff16906323b872dd906064016020604051808303816000875af115801561064c573d6000803e3d6000fd5b505050506040513d601f19601f82011682018060405250810190610670919061174a565b50505b6009546040517f70a0823100000000000000000000000000000000000000000000000000000000815230600482015273ffffffffffffffffffffffffffffffffffffffff909116906370a0823190602401602060405180830381865afa1580156106e1573d6000803e3d6000fd5b505050506040513d601f19601f82011682018060405250810190610705919061176c565b905061057381610ef2565b6005546040517f70a082310000000000000000000000000000000000000000000000000000000081523060048201526000918291829173ffffffffffffffffffffffffffffffffffffffff16906370a0823190602401602060405180830381865afa158015610783573d6000803e3d6000fd5b505050506040513d601f19601f820116820180604052508101906107a7919061176c565b6006549091506107b79082611737565b91506107c38483611040565b600691909155939092509050565b60085460009073ffffffffffffffffffffffffffffffffffffffff1615610859576040517f08c379a000000000000000000000000000000000000000000000000000000000815260206004820152601960248201527f66756e6420616c726561647920696e697469616c697a6564210000000000000060448201526064015b60405180910390fd5b604051610865906114c0565b604051809103906000f080158015610881573d6000803e3d6000fd5b506005805473ffffffffffffffffffffffffffffffffffffffff83167fffffffffffffffffffffffff00000000000000000000000000000000000000009182168117909255600880548216331790556009805490911682179055610578600a556040517f40c10f1900000000000000000000000000000000000000000000000000000000815232600482015269d3c21bcecceda10000006024820152919250906340c10f1990604401600060405180830381600087803b15801561094457600080fd5b505af1158015610958573d6000803e3d6000fd5b50506040517ff2fde38b00000000000000000000000000000000000000000000000000000000815232600482015273ffffffffffffffffffffffffffffffffffffffff8416925063f2fde38b9150602401600060405180830381600087803b1580156109c357600080fd5b505af11580156109d7573d6000803e3d6000fd5b5050505090565b6060600480546104dc906116b5565b60003361056d818585610e47565b60085473ffffffffffffffffffffffffffffffffffffffff163314610a7c576040517f08c379a000000000000000000000000000000000000000000000000000000000815260206004820152601360248201527f6f6e6c7920656e7472792063616e2063616c6c000000000000000000000000006044820152606401610850565b600a8190556040518181527f8cfdf6c9b142362dd3e7fb36384720ac337ff6b67a326b1dc87374c634de0198906020015b60405180910390a150565b600073ffffffffffffffffffffffffffffffffffffffff8416331480610af5575060085473ffffffffffffffffffffffffffffffffffffffff1633145b610b5b576040517f08c379a000000000000000000000000000000000000000000000000000000000815260206004820152601360248201527f63616c6c6572206973206e6f74206f776e6572000000000000000000000000006044820152606401610850565b6000610b6660025490565b600654610b739085611785565b610b7d919061179c565b90508060056001016000828254610b949190611737565b90915550610ba490508584611111565b73ffffffffffffffffffffffffffffffffffffffff84166000908152600c602052604081208054859290610bd9908490611737565b90915550506040805173ffffffffffffffffffffffffffffffffffffffff87168152602081018590529081018290527f49995e5dd6158cf69ad3e9777c46755a1a826a446c6416992167462dad033b2a9060600160405180910390a16005546040517fa9059cbb00000000000000000000000000000000000000000000000000000000815273ffffffffffffffffffffffffffffffffffffffff8681166004830152602482018490529091169063a9059cbb906044016020604051808303816000875af1158015610cae573d6000803e3d6000fd5b505050506040513d601f19601f82011682018060405250810190610cd2919061174a565b50949350505050565b6006546000908190819015610d5f5773ffffffffffffffffffffffffffffffffffffffff8416600090815260208190526040902054925082610d1c60025490565b600654610d299190611785565b610d33919061179c565b73ffffffffffffffffffffffffffffffffffffffff85166000908152600c602052604090205490925090505b9193909250565b610d738383836001611171565b505050565b73ffffffffffffffffffffffffffffffffffffffff8381166000908152600160209081526040808320938616835292905220547fffffffffffffffffffffffffffffffffffffffffffffffffffffffffffffffff8114610e415781811015610e32576040517ffb8f41b200000000000000000000000000000000000000000000000000000000815273ffffffffffffffffffffffffffffffffffffffff841660048201526024810182905260448101839052606401610850565b610e4184848484036000611171565b50505050565b73ffffffffffffffffffffffffffffffffffffffff8316610e97576040517f96c6fd1e00000000000000000000000000000000000000000000000000000000815260006004820152602401610850565b73ffffffffffffffffffffffffffffffffffffffff8216610ee7576040517fec442f0500000000000000000000000000000000000000000000000000000000815260006004820152602401610850565b610d738383836112b9565b60065481111561100657600064496cebb800600b5442610f129190611737565b600a54600654610f229190611785565b610f2c9190611785565b610f36919061179c565b600654909150610f469083611737565b81111561100057600854604080517f017e7e580000000000000000000000000000000000000000000000000000000081529051610ffe9273ffffffffffffffffffffffffffffffffffffffff169163017e7e589160048083019260209291908290030181865afa158015610fbe573d6000803e3d6000fd5b505050506040513d601f19601f82011682018060405250810190610fe291906117d7565b600654610fef9085611737565b610ff99084611737565b611040565b505b5042600b555b6006819055604080518281524260208201527f855dd4befaa13dba1a15f3b3924e22afdf7dde95379cc352e8a78af3f9e8ea5b9101610aad565b6006546000908103611053575080611070565b6006546002546110639084611785565b61106d919061179c565b90505b61107a8382611464565b73ffffffffffffffffffffffffffffffffffffffff83166000908152600c6020526040812080548492906110af9084906117f4565b90915550506040805173ffffffffffffffffffffffffffffffffffffffff85168152602081018390529081018390527f4c209b5fc8ad50758f13e2e1088ba56a560dff690a1c6fef26394f4c03821c4f9060600160405180910390a192915050565b73ffffffffffffffffffffffffffffffffffffffff8216611161576040517f96c6fd1e00000000000000000000000000000000000000000000000000000000815260006004820152602401610850565b61116d826000836112b9565b5050565b73ffffffffffffffffffffffffffffffffffffffff84166111c1576040517fe602df0500000000000000000000000000000000000000000000000000000000815260006004820152602401610850565b73ffffffffffffffffffffffffffffffffffffffff8316611211576040517f94280d6200000000000000000000000000000000000000000000000000000000815260006004820152602401610850565b73ffffffffffffffffffffffffffffffffffffffff80851660009081526001602090815260408083209387168352929052208290558015610e41578273ffffffffffffffffffffffffffffffffffffffff168473ffffffffffffffffffffffffffffffffffffffff167f8c5be1e5ebec7d5bd14f71427d1e84f3dd0314c0f7b2291e5b200ac8c7c3b925846040516112ab91815260200190565b60405180910390a350505050565b73ffffffffffffffffffffffffffffffffffffffff83166112f15780600260008282546112e691906117f4565b909155506113a39050565b73ffffffffffffffffffffffffffffffffffffffff831660009081526020819052604090205481811015611377576040517fe450d38c00000000000000000000000000000000000000000000000000000000815273ffffffffffffffffffffffffffffffffffffffff851660048201526024810182905260448101839052606401610850565b73ffffffffffffffffffffffffffffffffffffffff841660009081526020819052604090209082900390555b73ffffffffffffffffffffffffffffffffffffffff82166113cc576002805482900390556113f8565b73ffffffffffffffffffffffffffffffffffffffff821660009081526020819052604090208054820190555b8173ffffffffffffffffffffffffffffffffffffffff168373ffffffffffffffffffffffffffffffffffffffff167fddf252ad1be2c89b69c2b068fc378daa952ba7f163c4a11628f55a4df523b3ef8360405161145791815260200190565b60405180910390a3505050565b73ffffffffffffffffffffffffffffffffffffffff82166114b4576040517fec442f0500000000000000000000000000000000000000000000000000000000815260006004820152602401610850565b61116d600083836112b9565b610e778061180883390190565b602081526000825180602084015260005b818110156114fb57602081860181015160408684010152016114de565b5060006040828501015260407fffffffffffffffffffffffffffffffffffffffffffffffffffffffffffffffe0601f83011684010191505092915050565b73ffffffffffffffffffffffffffffffffffffffff8116811461155b57600080fd5b50565b6000806040838503121561157157600080fd5b823561157c81611539565b946020939093013593505050565b60008060006060848603121561159f57600080fd5b83356115aa81611539565b925060208401356115ba81611539565b929592945050506040919091013590565b600080602083850312156115de57600080fd5b823567ffffffffffffffff8111156115f557600080fd5b8301601f8101851361160657600080fd5b803567ffffffffffffffff81111561161d57600080fd5b85602082840101111561162f57600080fd5b6020919091019590945092505050565b60006020828403121561165157600080fd5b813561165c81611539565b9392505050565b6000806040838503121561167657600080fd5b823561168181611539565b9150602083013561169181611539565b809150509250929050565b6000602082840312156116ae57600080fd5b5035919050565b600181811c908216806116c957607f821691505b602082108103611702577f4e487b7100000000000000000000000000000000000000000000000000000000600052602260045260246000fd5b50919050565b7f4e487b7100000000000000000000000000000000000000000000000000000000600052601160045260246000fd5b8181038181111561057357610573611708565b60006020828403121561175c57600080fd5b8151801515811461165c57600080fd5b60006020828403121561177e57600080fd5b5051919050565b808202811582820484141761057357610573611708565b6000826117d2577f4e487b7100000000000000000000000000000000000000000000000000000000600052601260045260246000fd5b500490565b6000602082840312156117e957600080fd5b815161165c81611539565b808201808211156105735761057361170856fe608060405234801561001057600080fd5b50336040518060400160405280600a8152602001692a32b9ba102a37b5b2b760b11b81525060405180604001604052806002815260200161151560f21b815250816003908161005f919061019d565b50600461006c828261019d565b5050506001600160a01b03811661009d57604051631e4fbdf760e01b81526000600482015260240160405180910390fd5b6100a6816100ac565b5061025b565b600580546001600160a01b038381166001600160a01b0319831681179093556040519116919082907f8be0079c531659141344cd1fd0a4f28419497f9722a3daafe3b4186f6b6457e090600090a35050565b634e487b7160e01b600052604160045260246000fd5b600181811c9082168061012857607f821691505b60208210810361014857634e487b7160e01b600052602260045260246000fd5b50919050565b601f82111561019857806000526020600020601f840160051c810160208510156101755750805b601f840160051c820191505b818110156101955760008155600101610181565b50505b505050565b81516001600160401b038111156101b6576101b66100fe565b6101ca816101c48454610114565b8461014e565b6020601f8211600181146101fe57600083156101e65750848201515b600019600385901b1c1916600184901b178455610195565b600084815260208120601f198516915b8281101561022e578785015182556020948501946001909201910161020e565b508482101561024c5786840151600019600387901b60f8161c191681555b50505050600190811b01905550565b610c0d8061026a6000396000f3fe608060405234801561001057600080fd5b50600436106100ea5760003560e01c8063715018a61161008c5780639dc29fac116100665780639dc29fac146101e7578063a9059cbb146101fa578063dd62ed3e1461020d578063f2fde38b1461025357600080fd5b8063715018a6146101af5780638da5cb5b146101b757806395d89b41146101df57600080fd5b806323b872dd116100c857806323b872dd14610142578063313ce5671461015557806340c10f191461016457806370a082311461017957600080fd5b806306fdde03146100ef578063095ea7b31461010d57806318160ddd14610130575b600080fd5b6100f7610266565b60405161010491906109f9565b60405180910390f35b61012061011b366004610a8e565b6102f8565b6040519015158152602001610104565b6002545b604051908152602001610104565b610120610150366004610ab8565b610312565b60405160128152602001610104565b610177610172366004610a8e565b610336565b005b610134610187366004610af5565b73ffffffffffffffffffffffffffffffffffffffff1660009081526020819052604090205490565b61017761034c565b60055460405173ffffffffffffffffffffffffffffffffffffffff9091168152602001610104565b6100f7610360565b6101776101f5366004610a8e565b61036f565b610120610208366004610a8e565b610381565b61013461021b366004610b17565b73ffffffffffffffffffffffffffffffffffffffff918216600090815260016020908152604080832093909416825291909152205490565b610177610261366004610af5565b61038f565b60606003805461027590610b4a565b80601f01602080910402602001604051908101604052809291908181526020018280546102a190610b4a565b80156102ee5780601f106102c3576101008083540402835291602001916102ee565b820191906000526020600020905b8154815290600101906020018083116102d157829003601f168201915b5050505050905090565b6000336103068185856103f8565b60019150505b92915050565b60003361032085828561040a565b61032b8585856104d9565b506001949350505050565b61033e610584565b61034882826105d7565b5050565b610354610584565b61035e6000610633565b565b60606004805461027590610b4a565b610377610584565b61034882826106aa565b6000336103068185856104d9565b610397610584565b73ffffffffffffffffffffffffffffffffffffffff81166103ec576040517f1e4fbdf7000000000000000000000000000000000000000000000000000000008152600060048201526024015b60405180910390fd5b6103f581610633565b50565b6104058383836001610706565b505050565b73ffffffffffffffffffffffffffffffffffffffff8381166000908152600160209081526040808320938616835292905220547fffffffffffffffffffffffffffffffffffffffffffffffffffffffffffffffff81146104d357818110156104c4576040517ffb8f41b200000000000000000000000000000000000000000000000000000000815273ffffffffffffffffffffffffffffffffffffffff8416600482015260248101829052604481018390526064016103e3565b6104d384848484036000610706565b50505050565b73ffffffffffffffffffffffffffffffffffffffff8316610529576040517f96c6fd1e000000000000000000000000000000000000000000000000000000008152600060048201526024016103e3565b73ffffffffffffffffffffffffffffffffffffffff8216610579576040517fec442f05000000000000000000000000000000000000000000000000000000008152600060048201526024016103e3565b61040583838361084e565b60055473ffffffffffffffffffffffffffffffffffffffff16331461035e576040517f118cdaa70000000000000000000000000000000000000000000000000000000081523360048201526024016103e3565b73ffffffffffffffffffffffffffffffffffffffff8216610627576040517fec442f05000000000000000000000000000000000000000000000000000000008152600060048201526024016103e3565b6103486000838361084e565b6005805473ffffffffffffffffffffffffffffffffffffffff8381167fffffffffffffffffffffffff0000000000000000000000000000000000000000831681179093556040519116919082907f8be0079c531659141344cd1fd0a4f28419497f9722a3daafe3b4186f6b6457e090600090a35050565b73ffffffffffffffffffffffffffffffffffffffff82166106fa576040517f96c6fd1e000000000000000000000000000000000000000000000000000000008152600060048201526024016103e3565b6103488260008361084e565b73ffffffffffffffffffffffffffffffffffffffff8416610756576040517fe602df05000000000000000000000000000000000000000000000000000000008152600060048201526024016103e3565b73ffffffffffffffffffffffffffffffffffffffff83166107a6576040517f94280d62000000000000000000000000000000000000000000000000000000008152600060048201526024016103e3565b73ffffffffffffffffffffffffffffffffffffffff808516600090815260016020908152604080832093871683529290522082905580156104d3578273ffffffffffffffffffffffffffffffffffffffff168473ffffffffffffffffffffffffffffffffffffffff167f8c5be1e5ebec7d5bd14f71427d1e84f3dd0314c0f7b2291e5b200ac8c7c3b9258460405161084091815260200190565b60405180910390a350505050565b73ffffffffffffffffffffffffffffffffffffffff831661088657806002600082825461087b9190610b9d565b909155506109389050565b73ffffffffffffffffffffffffffffffffffffffff83166000908152602081905260409020548181101561090c576040517fe450d38c00000000000000000000000000000000000000000000000000000000815273ffffffffffffffffffffffffffffffffffffffff8516600482015260248101829052604481018390526064016103e3565b73ffffffffffffffffffffffffffffffffffffffff841660009081526020819052604090209082900390555b73ffffffffffffffffffffffffffffffffffffffff82166109615760028054829003905561098d565b73ffffffffffffffffffffffffffffffffffffffff821660009081526020819052604090208054820190555b8173ffffffffffffffffffffffffffffffffffffffff168373ffffffffffffffffffffffffffffffffffffffff167fddf252ad1be2c89b69c2b068fc378daa952ba7f163c4a11628f55a4df523b3ef836040516109ec91815260200190565b60405180910390a3505050565b602081526000825180602084015260005b81811015610a275760208186018101516040868401015201610a0a565b5060006040828501015260407fffffffffffffffffffffffffffffffffffffffffffffffffffffffffffffffe0601f83011684010191505092915050565b803573ffffffffffffffffffffffffffffffffffffffff81168114610a8957600080fd5b919050565b60008060408385031215610aa157600080fd5b610aaa83610a65565b946020939093013593505050565b600080600060608486031215610acd57600080fd5b610ad684610a65565b9250610ae460208501610a65565b929592945050506040919091013590565b600060208284031215610b0757600080fd5b610b1082610a65565b9392505050565b60008060408385031215610b2a57600080fd5b610b3383610a65565b9150610b4160208401610a65565b90509250929050565b600181811c90821680610b5e57607f821691505b602082108103610b97577f4e487b7100000000000000000000000000000000000000000000000000000000600052602260045260246000fd5b50919050565b8082018082111561030c577f4e487b7100000000000000000000000000000000000000000000000000000000600052601160045260246000fdfea264697066735822122051617050b7e6405dbe8a9627c210e3da01614d8fa9a4fb26cb85476cc6d549d264736f6c634300081c0033a26469706673582212208b5b62cfdd07bb0d5a24570a625fea542f7dd7798c0fc1a91a67d7c8a2c8877464736f6c634300081c0033",
  "linkReferences": {},
  "deployedLinkReferences": {}
}