{
  "_format": "hh-sol-artifact-1",
  "contractName": "FundETH",
  "sourceName": "contracts/FundETH.sol",
  "abi": [
    {
      "inputs": [
        {
          "internalType": "address",
          "name": "spender",
          "type": "address"
        },
        {
          "internalType": "uint256",
          "name": "allowance",
          "type": "uint256"
        },
        {
          "internalType": "uint256",
          "name": "needed",
          "type": "uint256"
        }
      ],
      "name": "ERC20InsufficientAllowance",
      "type": "error"
    },
    {
      "inputs": [
        {
          "internalType": "address",
          "name": "sender",
          "type": "address"
        },
        {
          "internalType": "uint256",
          "name": "balance",
          "type": "uint256"
        },
        {
          "internalType": "uint256",
          "name": "needed",
          "type": "uint256"
        }
      ],
      "name": "ERC20InsufficientBalance",
      "type": "error"
    },
    {
      "inputs": [
        {
          "internalType": "address",
          "name": "approver",
          "type": "address"
        }
      ],
      "name": "ERC20InvalidApprover",
      "type": "error"
    },
    {
      "inputs": [
        {
          "internalType": "address",
          "name": "receiver",
          "type": "address"
        }
      ],
      "name": "ERC20InvalidReceiver",
      "type": "error"
    },
    {
      "inputs": [
        {
          "internalType": "address",
          "name": "sender",
          "type": "address"
        }
      ],
      "name": "ERC20InvalidSender",
      "type": "error"
    },
    {
      "inputs": [
        {
          "internalType": "address",
          "name": "spender",
          "type": "address"
        }
      ],
      "name": "ERC20InvalidSpender",
      "type": "error"
    },
    {
      "anonymous": false,
      "inputs": [
        {
          "indexed": true,
          "internalType": "address",
          "name": "owner",
          "type": "address"
        },
        {
          "indexed": true,
          "internalType": "address",
          "name": "spender",
          "type": "address"
        },
        {
          "indexed": false,
          "internalType": "uint256",
          "name": "value",
          "type": "uint256"
        }
      ],
      "name": "Approval",
      "type": "event"
    },
    {
      "anonymous": false,
      "inputs": [
        {
          "indexed": false,
          "internalType": "address",
          "name": "owner",
          "type": "address"
        },
        {
          "indexed": false,
          "internalType": "uint256",
          "name": "shares",
          "type": "uint256"
        },
        {
          "indexed": false,
          "internalType": "uint256",
          "name": "value",
          "type": "uint256"
        }
      ],
      "name": "Burn",
      "type": "event"
    },
    {
      "anonymous": false,
      "inputs": [
        {
          "indexed": false,
          "internalType": "address",
          "name": "to",
          "type": "address"
        },
        {
          "indexed": false,
          "internalType": "uint256",
          "name": "shares",
          "type": "uint256"
        },
        {
          "indexed": false,
          "internalType": "uint256",
          "name": "value",
          "type": "uint256"
        }
      ],
      "name": "Mint",
      "type": "event"
    },
    {
      "anonymous": false,
      "inputs": [
        {
          "indexed": true,
          "internalType": "address",
          "name": "from",
          "type": "address"
        },
        {
          "indexed": true,
          "internalType": "address",
          "name": "to",
          "type": "address"
        },
        {
          "indexed": false,
          "internalType": "uint256",
          "name": "value",
          "type": "uint256"
        }
      ],
      "name": "Transfer",
      "type": "event"
    },
    {
      "anonymous": false,
      "inputs": [
        {
          "indexed": false,
          "internalType": "uint256",
          "name": "value",
          "type": "uint256"
        },
        {
          "indexed": false,
          "internalType": "uint256",
          "name": "oldValue",
          "type": "uint256"
        }
      ],
      "name": "ValueUpdated",
      "type": "event"
    },
    {
      "inputs": [
        {
          "internalType": "address",
          "name": "owner",
          "type": "address"
        },
        {
          "internalType": "address",
          "name": "spender",
          "type": "address"
        }
      ],
      "name": "allowance",
      "outputs": [
        {
          "internalType": "uint256",
          "name": "",
          "type": "uint256"
        }
      ],
      "stateMutability": "view",
      "type": "function"
    },
    {
      "inputs": [
        {
          "internalType": "address",
          "name": "spender",
          "type": "address"
        },
        {
          "internalType": "uint256",
          "name": "value",
          "type": "uint256"
        }
      ],
      "name": "approve",
      "outputs": [
        {
          "internalType": "bool",
          "name": "",
          "type": "bool"
        }
      ],
      "stateMutability": "nonpayable",
      "type": "function"
    },
    {
      "inputs": [
        {
          "internalType": "address",
          "name": "account",
          "type": "address"
        }
      ],
      "name": "balanceOf",
      "outputs": [
        {
          "internalType": "uint256",
          "name": "",
          "type": "uint256"
        }
      ],
      "stateMutability": "view",
      "type": "function"
    },
    {
      "inputs": [
        {
          "internalType": "address",
          "name": "owner",
          "type": "address"
        },
        {
          "internalType": "address",
          "name": "to",
          "type": "address"
        },
        {
          "internalType": "uint256",
          "name": "shares",
          "type": "uint256"
        },
        {
          "internalType": "bytes",
          "name": "data",
          "type": "bytes"
        }
      ],
      "name": "burn",
      "outputs": [
        {
          "internalType": "uint256",
          "name": "amount",
          "type": "uint256"
        }
      ],
      "stateMutability": "nonpayable",
      "type": "function"
    },
    {
      "inputs": [],
      "name": "decimals",
      "outputs": [
        {
          "internalType": "uint8",
          "name": "",
          "type": "uint8"
        }
      ],
      "stateMutability": "view",
      "type": "function"
    },
    {
      "inputs": [
        {
          "internalType": "address",
          "name": "owner",
          "type": "address"
        }
      ],
      "name": "getAccount",
      "outputs": [
        {
          "internalType": "uint256",
          "name": "shares",
          "type": "uint256"
        },
        {
          "internalType": "uint256",
          "name": "value",
          "type": "uint256"
        },
        {
          "internalType": "uint256",
          "name": "cost",
          "type": "uint256"
        }
      ],
      "stateMutability": "view",
      "type": "function"
    },
    {
      "inputs": [],
      "name": "getProperty",
      "outputs": [
        {
          "components": [
            {
              "internalType": "address",
              "name": "token",
              "type": "address"
            },
            {
              "internalType": "uint256",
              "name": "value",
              "type": "uint256"
            },
            {
              "internalType": "uint256",
              "name": "shares",
              "type": "uint256"
            },
            {
              "internalType": "uint256",
              "name": "netValue",
              "type": "uint256"
            },
            {
              "internalType": "address",
              "name": "entry",
              "type": "address"
            },
            {
              "internalType": "address",
              "name": "provider",
              "type": "address"
            }
          ],
          "internalType": "struct IFund.Property",
          "name": "",
          "type": "tuple"
        }
      ],
      "stateMutability": "view",
      "type": "function"
    },
    {
      "inputs": [
        {
          "internalType": "address",
          "name": "entry",
          "type": "address"
        },
        {
          "internalType": "bytes",
          "name": "data",
          "type": "bytes"
        }
      ],
      "name": "initialize",
      "outputs": [],
      "stateMutability": "nonpayable",
      "type": "function"
    },
    {
      "inputs": [
        {
          "internalType": "address",
          "name": "to",
          "type": "address"
        },
        {
          "internalType": "bytes",
          "name": "data",
          "type": "bytes"
        }
      ],
      "name": "mint",
      "outputs": [
        {
          "internalType": "uint256",
          "name": "shares",
          "type": "uint256"
        }
      ],
      "stateMutability": "payable",
      "type": "function"
    },
    {
      "inputs": [],
      "name": "name",
      "outputs": [
        {
          "internalType": "string",
          "name": "",
          "type": "string"
        }
      ],
      "stateMutability": "view",
      "type": "function"
    },
    {
      "inputs": [],
      "name": "symbol",
      "outputs": [
        {
          "internalType": "string",
          "name": "",
          "type": "string"
        }
      ],
      "stateMutability": "view",
      "type": "function"
    },
    {
      "inputs": [],
      "name": "totalSupply",
      "outputs": [
        {
          "internalType": "uint256",
          "name": "",
          "type": "uint256"
        }
      ],
      "stateMutability": "view",
      "type": "function"
    },
    {
      "inputs": [
        {
          "internalType": "address",
          "name": "to",
          "type": "address"
        },
        {
          "internalType": "uint256",
          "name": "value",
          "type": "uint256"
        }
      ],
      "name": "transfer",
      "outputs": [
        {
          "internalType": "bool",
          "name": "",
          "type": "bool"
        }
      ],
      "stateMutability": "nonpayable",
      "type": "function"
    },
    {
      "inputs": [
        {
          "internalType": "address",
          "name": "from",
          "type": "address"
        },
        {
          "internalType": "address",
          "name": "to",
          "type": "address"
        },
        {
          "internalType": "uint256",
          "name": "value",
          "type": "uint256"
        }
      ],
      "name": "transferFrom",
      "outputs": [
        {
          "internalType": "bool",
          "name": "",
          "type": "bool"
        }
      ],
      "stateMutability": "nonpayable",
      "type": "function"
    },
    {
      "inputs": [],
      "name": "updateValue",
      "outputs": [
        {
          "internalType": "uint256",
          "name": "value",
          "type": "uint256"
        }
      ],
      "stateMutability": "nonpayable",
      "type": "function"
    }
  ],
  "bytecode": "0x608060405234801561001057600080fd5b506040518060400160405280600981526020016815195cdd08119d5b9960ba1b815250604051806040016040528060028152602001612a2360f11b815250816003908161005d9190610111565b50600461006a8282610111565b5050506101cf565b634e487b7160e01b600052604160045260246000fd5b600181811c9082168061009c57607f821691505b6020821081036100bc57634e487b7160e01b600052602260045260246000fd5b50919050565b601f82111561010c57806000526020600020601f840160051c810160208510156100e95750805b601f840160051c820191505b8181101561010957600081556001016100f5565b50505b505050565b81516001600160401b0381111561012a5761012a610072565b61013e816101388454610088565b846100c2565b6020601f821160018114610172576000831561015a5750848201515b600019600385901b1c1916600184901b178455610109565b600084815260208120601f198516915b828110156101a25787850151825560209485019460019092019101610182565b50848210156101c05786840151600019600387901b60f8161c191681555b50505050600190811b01905550565b6111d8806101de6000396000f3fe6080604052600436106100e85760003560e01c806395d89b411161008a578063d2fc555211610059578063d2fc5552146102f3578063dd62ed3e14610313578063e8bf9be514610366578063fbcbc0f11461037a57600080fd5b806395d89b4114610289578063a9059cbb1461029e578063b510391f146102be578063d1f57894146102d157600080fd5b806318160ddd116100c657806318160ddd146101eb57806323b872dd1461020a578063313ce5671461022a57806370a082311461024657600080fd5b806306fdde03146100ed5780630775107014610118578063095ea7b3146101bb575b600080fd5b3480156100f957600080fd5b506101026103b5565b60405161010f9190610d16565b60405180910390f35b34801561012457600080fd5b5061012d610447565b60405161010f9190600060c08201905073ffffffffffffffffffffffffffffffffffffffff835116825260208301516020830152604083015160408301526060830151606083015273ffffffffffffffffffffffffffffffffffffffff608084015116608083015273ffffffffffffffffffffffffffffffffffffffff60a08401511660a083015292915050565b3480156101c757600080fd5b506101db6101d6366004610dab565b6104f2565b604051901515815260200161010f565b3480156101f757600080fd5b506002545b60405190815260200161010f565b34801561021657600080fd5b506101db610225366004610dd5565b61050c565b34801561023657600080fd5b506040516012815260200161010f565b34801561025257600080fd5b506101fc610261366004610e12565b73ffffffffffffffffffffffffffffffffffffffff1660009081526020819052604090205490565b34801561029557600080fd5b50610102610530565b3480156102aa57600080fd5b506101db6102b9366004610dab565b61053f565b6101fc6102cc366004610e7d565b61054d565b3480156102dd57600080fd5b506102f16102ec366004610eff565b6105fd565b005b3480156102ff57600080fd5b506101fc61030e366004611006565b6106ec565b34801561031f57600080fd5b506101fc61032e366004611075565b73ffffffffffffffffffffffffffffffffffffffff918216600090815260016020908152604080832093909416825291909152205490565b34801561037257600080fd5b5060006101fc565b34801561038657600080fd5b5061039a610395366004610e12565b61077f565b6040805193845260208401929092529082015260600161010f565b6060600380546103c4906110a8565b80601f01602080910402602001604051908101604052809291908181526020018280546103f0906110a8565b801561043d5780601f106104125761010080835404028352916020019161043d565b820191906000526020600020905b81548152906001019060200180831161042057829003601f168201915b5050505050905090565b6040805160c081018252600080825260208201819052918101829052606081018290526080810182905260a08101919091526040805160c08101825260055473ffffffffffffffffffffffffffffffffffffffff9081168252600654602083015260075492820192909252600854606082015260095482166080820152600a5490911660a08201526002546040820181905260208201516104e8919061112a565b6060820152919050565b6000336105008185856107db565b60019150505b92915050565b60003361051a8582856107ed565b6105258585856108bc565b506001949350505050565b6060600480546103c4906110a8565b6000336105008185856108bc565b60004761055960025490565b60000361057857600681905561057181612710611165565b91506105e6565b6000600b5482610588919061117c565b60065490915061059760025490565b6105a19083611165565b6105ab919061112a565b92506105b660025490565b6006546105c39085611165565b6105cd919061112a565b600680546000906105df90849061118f565b9091555050505b600b8190556105f58583610967565b509392505050565b60095473ffffffffffffffffffffffffffffffffffffffff1615610682576040517f08c379a000000000000000000000000000000000000000000000000000000000815260206004820152601960248201527f66756e6420616c726561647920696e697469616c697a6564210000000000000060448201526064015b60405180910390fd5b506005805473eeeeeeeeeeeeeeeeeeeeeeeeeeeeeeeeeeeeeeee7fffffffffffffffffffffffff0000000000000000000000000000000000000000918216179091556009805490911673ffffffffffffffffffffffffffffffffffffffff92909216919091179055565b60006106f760025490565b6006546107049086611165565b61070e919061112a565b905080600b6000828254610722919061117c565b90915550610732905086856109c7565b60405173ffffffffffffffffffffffffffffffffffffffff86169082156108fc029083906000818181858888f19350505050158015610775573d6000803e3d6000fd5b5095945050505050565b60008060006107b08473ffffffffffffffffffffffffffffffffffffffff1660009081526020819052604090205490565b92506107bb60025490565b6006546107c89085611165565b6107d2919061112a565b91509193909250565b6107e88383836001610a23565b505050565b73ffffffffffffffffffffffffffffffffffffffff8381166000908152600160209081526040808320938616835292905220547fffffffffffffffffffffffffffffffffffffffffffffffffffffffffffffffff81146108b657818110156108a7576040517ffb8f41b200000000000000000000000000000000000000000000000000000000815273ffffffffffffffffffffffffffffffffffffffff841660048201526024810182905260448101839052606401610679565b6108b684848484036000610a23565b50505050565b73ffffffffffffffffffffffffffffffffffffffff831661090c576040517f96c6fd1e00000000000000000000000000000000000000000000000000000000815260006004820152602401610679565b73ffffffffffffffffffffffffffffffffffffffff821661095c576040517fec442f0500000000000000000000000000000000000000000000000000000000815260006004820152602401610679565b6107e8838383610b6b565b73ffffffffffffffffffffffffffffffffffffffff82166109b7576040517fec442f0500000000000000000000000000000000000000000000000000000000815260006004820152602401610679565b6109c360008383610b6b565b5050565b73ffffffffffffffffffffffffffffffffffffffff8216610a17576040517f96c6fd1e00000000000000000000000000000000000000000000000000000000815260006004820152602401610679565b6109c382600083610b6b565b73ffffffffffffffffffffffffffffffffffffffff8416610a73576040517fe602df0500000000000000000000000000000000000000000000000000000000815260006004820152602401610679565b73ffffffffffffffffffffffffffffffffffffffff8316610ac3576040517f94280d6200000000000000000000000000000000000000000000000000000000815260006004820152602401610679565b73ffffffffffffffffffffffffffffffffffffffff808516600090815260016020908152604080832093871683529290522082905580156108b6578273ffffffffffffffffffffffffffffffffffffffff168473ffffffffffffffffffffffffffffffffffffffff167f8c5be1e5ebec7d5bd14f71427d1e84f3dd0314c0f7b2291e5b200ac8c7c3b92584604051610b5d91815260200190565b60405180910390a350505050565b73ffffffffffffffffffffffffffffffffffffffff8316610ba3578060026000828254610b98919061118f565b90915550610c559050565b73ffffffffffffffffffffffffffffffffffffffff831660009081526020819052604090205481811015610c29576040517fe450d38c00000000000000000000000000000000000000000000000000000000815273ffffffffffffffffffffffffffffffffffffffff851660048201526024810182905260448101839052606401610679565b73ffffffffffffffffffffffffffffffffffffffff841660009081526020819052604090209082900390555b73ffffffffffffffffffffffffffffffffffffffff8216610c7e57600280548290039055610caa565b73ffffffffffffffffffffffffffffffffffffffff821660009081526020819052604090208054820190555b8173ffffffffffffffffffffffffffffffffffffffff168373ffffffffffffffffffffffffffffffffffffffff167fddf252ad1be2c89b69c2b068fc378daa952ba7f163c4a11628f55a4df523b3ef83604051610d0991815260200190565b60405180910390a3505050565b602081526000825180602084015260005b81811015610d445760208186018101516040868401015201610d27565b5060006040828501015260407fffffffffffffffffffffffffffffffffffffffffffffffffffffffffffffffe0601f83011684010191505092915050565b803573ffffffffffffffffffffffffffffffffffffffff81168114610da657600080fd5b919050565b60008060408385031215610dbe57600080fd5b610dc783610d82565b946020939093013593505050565b600080600060608486031215610dea57600080fd5b610df384610d82565b9250610e0160208501610d82565b929592945050506040919091013590565b600060208284031215610e2457600080fd5b610e2d82610d82565b9392505050565b60008083601f840112610e4657600080fd5b50813567ffffffffffffffff811115610e5e57600080fd5b602083019150836020828501011115610e7657600080fd5b9250929050565b600080600060408486031215610e9257600080fd5b610e9b84610d82565b9250602084013567ffffffffffffffff811115610eb757600080fd5b610ec386828701610e34565b9497909650939450505050565b7f4e487b7100000000000000000000000000000000000000000000000000000000600052604160045260246000fd5b60008060408385031215610f1257600080fd5b610f1b83610d82565b9150602083013567ffffffffffffffff811115610f3757600080fd5b8301601f81018513610f4857600080fd5b803567ffffffffffffffff811115610f6257610f62610ed0565b6040517fffffffffffffffffffffffffffffffffffffffffffffffffffffffffffffffe0603f7fffffffffffffffffffffffffffffffffffffffffffffffffffffffffffffffe0601f8501160116810181811067ffffffffffffffff82111715610fce57610fce610ed0565b604052818152828201602001871015610fe657600080fd5b816020840160208301376000602083830101528093505050509250929050565b60008060008060006080868803121561101e57600080fd5b61102786610d82565b945061103560208701610d82565b935060408601359250606086013567ffffffffffffffff81111561105857600080fd5b61106488828901610e34565b969995985093965092949392505050565b6000806040838503121561108857600080fd5b61109183610d82565b915061109f60208401610d82565b90509250929050565b600181811c908216806110bc57607f821691505b6020821081036110f5577f4e487b7100000000000000000000000000000000000000000000000000000000600052602260045260246000fd5b50919050565b7f4e487b7100000000000000000000000000000000000000000000000000000000600052601160045260246000fd5b600082611160577f4e487b7100000000000000000000000000000000000000000000000000000000600052601260045260246000fd5b500490565b8082028115828204841417610506576105066110fb565b81810381811115610506576105066110fb565b80820180821115610506576105066110fb56fea2646970667358221220052c4d64593f6ebfc342909713fafe8734e58d9c07b1ffa9412999fa004dc4bd64736f6c634300081c0033",
  "linkReferences": {},
  "deployedLinkReferences": {}
}