{
  "_format": "hh-sol-artifact-1",
  "contractName": "FundETH",
  "sourceName": "contracts/FundETH.sol",
  "abi": [
    {
      "inputs": [
        {
          "internalType": "address",
          "name": "spender",
          "type": "address"
        },
        {
          "internalType": "uint256",
          "name": "allowance",
          "type": "uint256"
        },
        {
          "internalType": "uint256",
          "name": "needed",
          "type": "uint256"
        }
      ],
      "name": "ERC20InsufficientAllowance",
      "type": "error"
    },
    {
      "inputs": [
        {
          "internalType": "address",
          "name": "sender",
          "type": "address"
        },
        {
          "internalType": "uint256",
          "name": "balance",
          "type": "uint256"
        },
        {
          "internalType": "uint256",
          "name": "needed",
          "type": "uint256"
        }
      ],
      "name": "ERC20InsufficientBalance",
      "type": "error"
    },
    {
      "inputs": [
        {
          "internalType": "address",
          "name": "approver",
          "type": "address"
        }
      ],
      "name": "ERC20InvalidApprover",
      "type": "error"
    },
    {
      "inputs": [
        {
          "internalType": "address",
          "name": "receiver",
          "type": "address"
        }
      ],
      "name": "ERC20InvalidReceiver",
      "type": "error"
    },
    {
      "inputs": [
        {
          "internalType": "address",
          "name": "sender",
          "type": "address"
        }
      ],
      "name": "ERC20InvalidSender",
      "type": "error"
    },
    {
      "inputs": [
        {
          "internalType": "address",
          "name": "spender",
          "type": "address"
        }
      ],
      "name": "ERC20InvalidSpender",
      "type": "error"
    },
    {
      "anonymous": false,
      "inputs": [
        {
          "indexed": true,
          "internalType": "address",
          "name": "owner",
          "type": "address"
        },
        {
          "indexed": true,
          "internalType": "address",
          "name": "spender",
          "type": "address"
        },
        {
          "indexed": false,
          "internalType": "uint256",
          "name": "value",
          "type": "uint256"
        }
      ],
      "name": "Approval",
      "type": "event"
    },
    {
      "anonymous": false,
      "inputs": [
        {
          "indexed": false,
          "internalType": "address",
          "name": "owner",
          "type": "address"
        },
        {
          "indexed": false,
          "internalType": "uint256",
          "name": "shares",
          "type": "uint256"
        },
        {
          "indexed": false,
          "internalType": "uint256",
          "name": "value",
          "type": "uint256"
        }
      ],
      "name": "Burn",
      "type": "event"
    },
    {
      "anonymous": false,
      "inputs": [
        {
          "indexed": false,
          "internalType": "address",
          "name": "to",
          "type": "address"
        },
        {
          "indexed": false,
          "internalType": "uint256",
          "name": "shares",
          "type": "uint256"
        },
        {
          "indexed": false,
          "internalType": "uint256",
          "name": "value",
          "type": "uint256"
        }
      ],
      "name": "Mint",
      "type": "event"
    },
    {
      "anonymous": false,
      "inputs": [
        {
          "indexed": true,
          "internalType": "address",
          "name": "from",
          "type": "address"
        },
        {
          "indexed": true,
          "internalType": "address",
          "name": "to",
          "type": "address"
        },
        {
          "indexed": false,
          "internalType": "uint256",
          "name": "value",
          "type": "uint256"
        }
      ],
      "name": "Transfer",
      "type": "event"
    },
    {
      "anonymous": false,
      "inputs": [
        {
          "indexed": false,
          "internalType": "uint256",
          "name": "value",
          "type": "uint256"
        },
        {
          "indexed": false,
          "internalType": "uint256",
          "name": "oldValue",
          "type": "uint256"
        }
      ],
      "name": "ValueUpdated",
      "type": "event"
    },
    {
      "inputs": [
        {
          "internalType": "address",
          "name": "owner",
          "type": "address"
        },
        {
          "internalType": "address",
          "name": "spender",
          "type": "address"
        }
      ],
      "name": "allowance",
      "outputs": [
        {
          "internalType": "uint256",
          "name": "",
          "type": "uint256"
        }
      ],
      "stateMutability": "view",
      "type": "function"
    },
    {
      "inputs": [
        {
          "internalType": "address",
          "name": "spender",
          "type": "address"
        },
        {
          "internalType": "uint256",
          "name": "value",
          "type": "uint256"
        }
      ],
      "name": "approve",
      "outputs": [
        {
          "internalType": "bool",
          "name": "",
          "type": "bool"
        }
      ],
      "stateMutability": "nonpayable",
      "type": "function"
    },
    {
      "inputs": [
        {
          "internalType": "address",
          "name": "account",
          "type": "address"
        }
      ],
      "name": "balanceOf",
      "outputs": [
        {
          "internalType": "uint256",
          "name": "",
          "type": "uint256"
        }
      ],
      "stateMutability": "view",
      "type": "function"
    },
    {
      "inputs": [
        {
          "internalType": "address",
          "name": "owner",
          "type": "address"
        },
        {
          "internalType": "address",
          "name": "to",
          "type": "address"
        },
        {
          "internalType": "uint256",
          "name": "shares",
          "type": "uint256"
        },
        {
          "internalType": "bytes",
          "name": "data",
          "type": "bytes"
        }
      ],
      "name": "burn",
      "outputs": [
        {
          "internalType": "uint256",
          "name": "amount",
          "type": "uint256"
        }
      ],
      "stateMutability": "nonpayable",
      "type": "function"
    },
    {
      "inputs": [
        {
          "internalType": "address",
          "name": "owner",
          "type": "address"
        },
        {
          "internalType": "address",
          "name": "to",
          "type": "address"
        },
        {
          "internalType": "bytes",
          "name": "data",
          "type": "bytes"
        }
      ],
      "name": "claimProfit",
      "outputs": [
        {
          "internalType": "uint256",
          "name": "amount",
          "type": "uint256"
        }
      ],
      "stateMutability": "nonpayable",
      "type": "function"
    },
    {
      "inputs": [],
      "name": "decimals",
      "outputs": [
        {
          "internalType": "uint8",
          "name": "",
          "type": "uint8"
        }
      ],
      "stateMutability": "view",
      "type": "function"
    },
    {
      "inputs": [
        {
          "internalType": "address",
          "name": "owner",
          "type": "address"
        }
      ],
      "name": "getAccount",
      "outputs": [
        {
          "internalType": "uint256",
          "name": "value",
          "type": "uint256"
        },
        {
          "internalType": "uint256",
          "name": "shares",
          "type": "uint256"
        }
      ],
      "stateMutability": "view",
      "type": "function"
    },
    {
      "inputs": [
        {
          "internalType": "address",
          "name": "owner",
          "type": "address"
        }
      ],
      "name": "getProfit",
      "outputs": [
        {
          "internalType": "uint256",
          "name": "profit",
          "type": "uint256"
        }
      ],
      "stateMutability": "view",
      "type": "function"
    },
    {
      "inputs": [],
      "name": "getProperty",
      "outputs": [
        {
          "components": [
            {
              "internalType": "address",
              "name": "token",
              "type": "address"
            },
            {
              "internalType": "uint256",
              "name": "value",
              "type": "uint256"
            },
            {
              "internalType": "uint256",
              "name": "shares",
              "type": "uint256"
            },
            {
              "internalType": "uint256",
              "name": "netValue",
              "type": "uint256"
            },
            {
              "internalType": "address",
              "name": "entry",
              "type": "address"
            },
            {
              "internalType": "address",
              "name": "provider",
              "type": "address"
            }
          ],
          "internalType": "struct IFund.Property",
          "name": "",
          "type": "tuple"
        }
      ],
      "stateMutability": "view",
      "type": "function"
    },
    {
      "inputs": [
        {
          "internalType": "address",
          "name": "entry",
          "type": "address"
        },
        {
          "internalType": "bytes",
          "name": "data",
          "type": "bytes"
        }
      ],
      "name": "initialize",
      "outputs": [],
      "stateMutability": "nonpayable",
      "type": "function"
    },
    {
      "inputs": [
        {
          "internalType": "address",
          "name": "to",
          "type": "address"
        },
        {
          "internalType": "bytes",
          "name": "data",
          "type": "bytes"
        }
      ],
      "name": "mint",
      "outputs": [
        {
          "internalType": "uint256",
          "name": "shares",
          "type": "uint256"
        }
      ],
      "stateMutability": "payable",
      "type": "function"
    },
    {
      "inputs": [],
      "name": "name",
      "outputs": [
        {
          "internalType": "string",
          "name": "",
          "type": "string"
        }
      ],
      "stateMutability": "view",
      "type": "function"
    },
    {
      "inputs": [],
      "name": "symbol",
      "outputs": [
        {
          "internalType": "string",
          "name": "",
          "type": "string"
        }
      ],
      "stateMutability": "view",
      "type": "function"
    },
    {
      "inputs": [],
      "name": "totalSupply",
      "outputs": [
        {
          "internalType": "uint256",
          "name": "",
          "type": "uint256"
        }
      ],
      "stateMutability": "view",
      "type": "function"
    },
    {
      "inputs": [
        {
          "internalType": "address",
          "name": "to",
          "type": "address"
        },
        {
          "internalType": "uint256",
          "name": "value",
          "type": "uint256"
        }
      ],
      "name": "transfer",
      "outputs": [
        {
          "internalType": "bool",
          "name": "",
          "type": "bool"
        }
      ],
      "stateMutability": "nonpayable",
      "type": "function"
    },
    {
      "inputs": [
        {
          "internalType": "address",
          "name": "from",
          "type": "address"
        },
        {
          "internalType": "address",
          "name": "to",
          "type": "address"
        },
        {
          "internalType": "uint256",
          "name": "value",
          "type": "uint256"
        }
      ],
      "name": "transferFrom",
      "outputs": [
        {
          "internalType": "bool",
          "name": "",
          "type": "bool"
        }
      ],
      "stateMutability": "nonpayable",
      "type": "function"
    },
    {
      "inputs": [],
      "name": "updateValue",
      "outputs": [
        {
          "internalType": "uint256",
          "name": "value",
          "type": "uint256"
        }
      ],
      "stateMutability": "nonpayable",
      "type": "function"
    }
  ],
  "bytecode": "0x608060405234801561001057600080fd5b506040518060400160405280600981526020016815195cdd08119d5b9960ba1b815250604051806040016040528060028152602001612a2360f11b815250816003908161005d9190610111565b50600461006a8282610111565b5050506101cf565b634e487b7160e01b600052604160045260246000fd5b600181811c9082168061009c57607f821691505b6020821081036100bc57634e487b7160e01b600052602260045260246000fd5b50919050565b601f82111561010c57806000526020600020601f840160051c810160208510156100e95750805b601f840160051c820191505b8181101561010957600081556001016100f5565b50505b505050565b81516001600160401b0381111561012a5761012a610072565b61013e816101388454610088565b846100c2565b6020601f821160018114610172576000831561015a5750848201515b600019600385901b1c1916600184901b178455610109565b600084815260208120601f198516915b828110156101a25787850151825560209485019460019092019101610182565b50848210156101c05786840151600019600387901b60f8161c191681555b50505050600190811b01905550565b611355806101de6000396000f3fe60806040526004361061010e5760003560e01c8063a9059cbb116100a5578063d1f5789411610074578063dd62ed3e11610059578063dd62ed3e14610379578063e8bf9be5146103cc578063fbcbc0f1146103e057600080fd5b8063d1f5789414610337578063d2fc55521461035957600080fd5b8063a9059cbb146102c4578063b510391f146102e4578063bfa0d720146102f7578063c600e1dc1461031757600080fd5b806323b872dd116100e157806323b872dd14610230578063313ce5671461025057806370a082311461026c57806395d89b41146102af57600080fd5b806306fdde0314610113578063077510701461013e578063095ea7b3146101e157806318160ddd14610211575b600080fd5b34801561011f57600080fd5b50610128610415565b6040516101359190610e22565b60405180910390f35b34801561014a57600080fd5b506101536104a7565b6040516101359190600060c08201905073ffffffffffffffffffffffffffffffffffffffff835116825260208301516020830152604083015160408301526060830151606083015273ffffffffffffffffffffffffffffffffffffffff608084015116608083015273ffffffffffffffffffffffffffffffffffffffff60a08401511660a083015292915050565b3480156101ed57600080fd5b506102016101fc366004610eb7565b610552565b6040519015158152602001610135565b34801561021d57600080fd5b506002545b604051908152602001610135565b34801561023c57600080fd5b5061020161024b366004610ee1565b61056c565b34801561025c57600080fd5b5060405160128152602001610135565b34801561027857600080fd5b50610222610287366004610f1e565b73ffffffffffffffffffffffffffffffffffffffff1660009081526020819052604090205490565b3480156102bb57600080fd5b50610128610590565b3480156102d057600080fd5b506102016102df366004610eb7565b61059f565b6102226102f2366004610f89565b6105ad565b34801561030357600080fd5b506102226103123660046110d7565b61065d565b34801561032357600080fd5b50610222610332366004610f1e565b6106ae565b34801561034357600080fd5b50610357610352366004611135565b61071e565b005b34801561036557600080fd5b50610222610374366004611183565b61080d565b34801561038557600080fd5b506102226103943660046111f2565b73ffffffffffffffffffffffffffffffffffffffff918216600090815260016020908152604080832093909416825291909152205490565b3480156103d857600080fd5b506000610222565b3480156103ec57600080fd5b506104006103fb366004610f1e565b6108a0565b60408051928352602083019190915201610135565b60606003805461042490611225565b80601f016020809104026020016040519081016040528092919081815260200182805461045090611225565b801561049d5780601f106104725761010080835404028352916020019161049d565b820191906000526020600020905b81548152906001019060200180831161048057829003601f168201915b5050505050905090565b6040805160c081018252600080825260208201819052918101829052606081018290526080810182905260a08101919091526040805160c08101825260055473ffffffffffffffffffffffffffffffffffffffff9081168252600654602083015260075492820192909252600854606082015260095482166080820152600a5490911660a082015260025460408201819052602082015161054891906112a7565b6060820152919050565b6000336105608185856108e7565b60019150505b92915050565b60003361057a8582856108f9565b6105858585856109c8565b506001949350505050565b60606004805461042490611225565b6000336105608185856109c8565b6000476105b960025490565b6000036105d85760068190556105d1816127106112e2565b9150610646565b6000600b54826105e891906112f9565b6006549091506105f760025490565b61060190836112e2565b61060b91906112a7565b925061061660025490565b60065461062390856112e2565b61062d91906112a7565b6006805460009061063f90849061130c565b9091555050505b600b8190556106558583610a73565b509392505050565b6000610668846106ae565b60405190915073ffffffffffffffffffffffffffffffffffffffff84169082156108fc029083906000818181858888f19350505050158015610655573d6000803e3d6000fd5b73ffffffffffffffffffffffffffffffffffffffff81166000908152600c60205260408120546002546006546106e491906112a7565b6106ee91906112f9565b73ffffffffffffffffffffffffffffffffffffffff831660009081526020819052604090205461056691906112e2565b60095473ffffffffffffffffffffffffffffffffffffffff16156107a3576040517f08c379a000000000000000000000000000000000000000000000000000000000815260206004820152601960248201527f66756e6420616c726561647920696e697469616c697a6564210000000000000060448201526064015b60405180910390fd5b506005805473eeeeeeeeeeeeeeeeeeeeeeeeeeeeeeeeeeeeeeee7fffffffffffffffffffffffff0000000000000000000000000000000000000000918216179091556009805490911673ffffffffffffffffffffffffffffffffffffffff92909216919091179055565b600061081860025490565b60065461082590866112e2565b61082f91906112a7565b905080600b600082825461084391906112f9565b9091555061085390508685610ad3565b60405173ffffffffffffffffffffffffffffffffffffffff86169082156108fc029083906000818181858888f19350505050158015610896573d6000803e3d6000fd5b5095945050505050565b73ffffffffffffffffffffffffffffffffffffffff81166000908152602081905260408120546002546006546108d690836112e2565b6108e091906112a7565b9150915091565b6108f48383836001610b2f565b505050565b73ffffffffffffffffffffffffffffffffffffffff8381166000908152600160209081526040808320938616835292905220547fffffffffffffffffffffffffffffffffffffffffffffffffffffffffffffffff81146109c257818110156109b3576040517ffb8f41b200000000000000000000000000000000000000000000000000000000815273ffffffffffffffffffffffffffffffffffffffff84166004820152602481018290526044810183905260640161079a565b6109c284848484036000610b2f565b50505050565b73ffffffffffffffffffffffffffffffffffffffff8316610a18576040517f96c6fd1e0000000000000000000000000000000000000000000000000000000081526000600482015260240161079a565b73ffffffffffffffffffffffffffffffffffffffff8216610a68576040517fec442f050000000000000000000000000000000000000000000000000000000081526000600482015260240161079a565b6108f4838383610c77565b73ffffffffffffffffffffffffffffffffffffffff8216610ac3576040517fec442f050000000000000000000000000000000000000000000000000000000081526000600482015260240161079a565b610acf60008383610c77565b5050565b73ffffffffffffffffffffffffffffffffffffffff8216610b23576040517f96c6fd1e0000000000000000000000000000000000000000000000000000000081526000600482015260240161079a565b610acf82600083610c77565b73ffffffffffffffffffffffffffffffffffffffff8416610b7f576040517fe602df050000000000000000000000000000000000000000000000000000000081526000600482015260240161079a565b73ffffffffffffffffffffffffffffffffffffffff8316610bcf576040517f94280d620000000000000000000000000000000000000000000000000000000081526000600482015260240161079a565b73ffffffffffffffffffffffffffffffffffffffff808516600090815260016020908152604080832093871683529290522082905580156109c2578273ffffffffffffffffffffffffffffffffffffffff168473ffffffffffffffffffffffffffffffffffffffff167f8c5be1e5ebec7d5bd14f71427d1e84f3dd0314c0f7b2291e5b200ac8c7c3b92584604051610c6991815260200190565b60405180910390a350505050565b73ffffffffffffffffffffffffffffffffffffffff8316610caf578060026000828254610ca4919061130c565b90915550610d619050565b73ffffffffffffffffffffffffffffffffffffffff831660009081526020819052604090205481811015610d35576040517fe450d38c00000000000000000000000000000000000000000000000000000000815273ffffffffffffffffffffffffffffffffffffffff85166004820152602481018290526044810183905260640161079a565b73ffffffffffffffffffffffffffffffffffffffff841660009081526020819052604090209082900390555b73ffffffffffffffffffffffffffffffffffffffff8216610d8a57600280548290039055610db6565b73ffffffffffffffffffffffffffffffffffffffff821660009081526020819052604090208054820190555b8173ffffffffffffffffffffffffffffffffffffffff168373ffffffffffffffffffffffffffffffffffffffff167fddf252ad1be2c89b69c2b068fc378daa952ba7f163c4a11628f55a4df523b3ef83604051610e1591815260200190565b60405180910390a3505050565b602081526000825180602084015260005b81811015610e505760208186018101516040868401015201610e33565b5060006040828501015260407fffffffffffffffffffffffffffffffffffffffffffffffffffffffffffffffe0601f83011684010191505092915050565b803573ffffffffffffffffffffffffffffffffffffffff81168114610eb257600080fd5b919050565b60008060408385031215610eca57600080fd5b610ed383610e8e565b946020939093013593505050565b600080600060608486031215610ef657600080fd5b610eff84610e8e565b9250610f0d60208501610e8e565b929592945050506040919091013590565b600060208284031215610f3057600080fd5b610f3982610e8e565b9392505050565b60008083601f840112610f5257600080fd5b50813567ffffffffffffffff811115610f6a57600080fd5b602083019150836020828501011115610f8257600080fd5b9250929050565b600080600060408486031215610f9e57600080fd5b610fa784610e8e565b9250602084013567ffffffffffffffff811115610fc357600080fd5b610fcf86828701610f40565b9497909650939450505050565b7f4e487b7100000000000000000000000000000000000000000000000000000000600052604160045260246000fd5b600082601f83011261101c57600080fd5b813567ffffffffffffffff81111561103657611036610fdc565b6040517fffffffffffffffffffffffffffffffffffffffffffffffffffffffffffffffe0603f7fffffffffffffffffffffffffffffffffffffffffffffffffffffffffffffffe0601f8501160116810181811067ffffffffffffffff821117156110a2576110a2610fdc565b6040528181528382016020018510156110ba57600080fd5b816020850160208301376000918101602001919091529392505050565b6000806000606084860312156110ec57600080fd5b6110f584610e8e565b925061110360208501610e8e565b9150604084013567ffffffffffffffff81111561111f57600080fd5b61112b8682870161100b565b9150509250925092565b6000806040838503121561114857600080fd5b61115183610e8e565b9150602083013567ffffffffffffffff81111561116d57600080fd5b6111798582860161100b565b9150509250929050565b60008060008060006080868803121561119b57600080fd5b6111a486610e8e565b94506111b260208701610e8e565b935060408601359250606086013567ffffffffffffffff8111156111d557600080fd5b6111e188828901610f40565b969995985093965092949392505050565b6000806040838503121561120557600080fd5b61120e83610e8e565b915061121c60208401610e8e565b90509250929050565b600181811c9082168061123957607f821691505b602082108103611272577f4e487b7100000000000000000000000000000000000000000000000000000000600052602260045260246000fd5b50919050565b7f4e487b7100000000000000000000000000000000000000000000000000000000600052601160045260246000fd5b6000826112dd577f4e487b7100000000000000000000000000000000000000000000000000000000600052601260045260246000fd5b500490565b808202811582820484141761056657610566611278565b8181038181111561056657610566611278565b808201808211156105665761056661127856fea2646970667358221220bd15131f377515c7db22c4b0531152863b8a7f84800db42207f36857045d7e5f64736f6c634300081c0033",
  "linkReferences": {},
  "deployedLinkReferences": {}
}