{
  "_format": "hh-sol-artifact-1",
  "contractName": "FundUsual",
  "sourceName": "contracts/FundUsual.sol",
  "abi": [
    {
      "inputs": [
        {
          "internalType": "address",
          "name": "spender",
          "type": "address"
        },
        {
          "internalType": "uint256",
          "name": "allowance",
          "type": "uint256"
        },
        {
          "internalType": "uint256",
          "name": "needed",
          "type": "uint256"
        }
      ],
      "name": "ERC20InsufficientAllowance",
      "type": "error"
    },
    {
      "inputs": [
        {
          "internalType": "address",
          "name": "sender",
          "type": "address"
        },
        {
          "internalType": "uint256",
          "name": "balance",
          "type": "uint256"
        },
        {
          "internalType": "uint256",
          "name": "needed",
          "type": "uint256"
        }
      ],
      "name": "ERC20InsufficientBalance",
      "type": "error"
    },
    {
      "inputs": [
        {
          "internalType": "address",
          "name": "approver",
          "type": "address"
        }
      ],
      "name": "ERC20InvalidApprover",
      "type": "error"
    },
    {
      "inputs": [
        {
          "internalType": "address",
          "name": "receiver",
          "type": "address"
        }
      ],
      "name": "ERC20InvalidReceiver",
      "type": "error"
    },
    {
      "inputs": [
        {
          "internalType": "address",
          "name": "sender",
          "type": "address"
        }
      ],
      "name": "ERC20InvalidSender",
      "type": "error"
    },
    {
      "inputs": [
        {
          "internalType": "address",
          "name": "spender",
          "type": "address"
        }
      ],
      "name": "ERC20InvalidSpender",
      "type": "error"
    },
    {
      "inputs": [],
      "name": "InvalidInitialization",
      "type": "error"
    },
    {
      "inputs": [],
      "name": "NotInitializing",
      "type": "error"
    },
    {
      "anonymous": false,
      "inputs": [
        {
          "indexed": true,
          "internalType": "address",
          "name": "owner",
          "type": "address"
        },
        {
          "indexed": true,
          "internalType": "address",
          "name": "spender",
          "type": "address"
        },
        {
          "indexed": false,
          "internalType": "uint256",
          "name": "value",
          "type": "uint256"
        }
      ],
      "name": "Approval",
      "type": "event"
    },
    {
      "anonymous": false,
      "inputs": [
        {
          "indexed": false,
          "internalType": "address",
          "name": "owner",
          "type": "address"
        },
        {
          "indexed": false,
          "internalType": "uint256",
          "name": "shares",
          "type": "uint256"
        },
        {
          "indexed": false,
          "internalType": "uint256",
          "name": "value",
          "type": "uint256"
        }
      ],
      "name": "Burn",
      "type": "event"
    },
    {
      "anonymous": false,
      "inputs": [
        {
          "indexed": false,
          "internalType": "uint64",
          "name": "version",
          "type": "uint64"
        }
      ],
      "name": "Initialized",
      "type": "event"
    },
    {
      "anonymous": false,
      "inputs": [
        {
          "indexed": false,
          "internalType": "address",
          "name": "to",
          "type": "address"
        },
        {
          "indexed": false,
          "internalType": "uint256",
          "name": "shares",
          "type": "uint256"
        },
        {
          "indexed": false,
          "internalType": "uint256",
          "name": "value",
          "type": "uint256"
        }
      ],
      "name": "Mint",
      "type": "event"
    },
    {
      "anonymous": false,
      "inputs": [
        {
          "indexed": false,
          "internalType": "uint256",
          "name": "APR",
          "type": "uint256"
        }
      ],
      "name": "SetMaxAPR",
      "type": "event"
    },
    {
      "anonymous": false,
      "inputs": [
        {
          "indexed": false,
          "internalType": "address",
          "name": "tokenIn",
          "type": "address"
        },
        {
          "indexed": false,
          "internalType": "uint256",
          "name": "amountIn",
          "type": "uint256"
        },
        {
          "indexed": false,
          "internalType": "address",
          "name": "tokenOut",
          "type": "address"
        },
        {
          "indexed": false,
          "internalType": "uint256",
          "name": "amountOut",
          "type": "uint256"
        }
      ],
      "name": "Swapped",
      "type": "event"
    },
    {
      "anonymous": false,
      "inputs": [
        {
          "indexed": true,
          "internalType": "address",
          "name": "from",
          "type": "address"
        },
        {
          "indexed": true,
          "internalType": "address",
          "name": "to",
          "type": "address"
        },
        {
          "indexed": false,
          "internalType": "uint256",
          "name": "value",
          "type": "uint256"
        }
      ],
      "name": "Transfer",
      "type": "event"
    },
    {
      "anonymous": false,
      "inputs": [
        {
          "indexed": false,
          "internalType": "uint256",
          "name": "value",
          "type": "uint256"
        },
        {
          "indexed": false,
          "internalType": "uint256",
          "name": "time",
          "type": "uint256"
        }
      ],
      "name": "UpdateValue",
      "type": "event"
    },
    {
      "inputs": [
        {
          "internalType": "address",
          "name": "owner",
          "type": "address"
        },
        {
          "internalType": "address",
          "name": "spender",
          "type": "address"
        }
      ],
      "name": "allowance",
      "outputs": [
        {
          "internalType": "uint256",
          "name": "",
          "type": "uint256"
        }
      ],
      "stateMutability": "view",
      "type": "function"
    },
    {
      "inputs": [
        {
          "internalType": "address",
          "name": "spender",
          "type": "address"
        },
        {
          "internalType": "uint256",
          "name": "value",
          "type": "uint256"
        }
      ],
      "name": "approve",
      "outputs": [
        {
          "internalType": "bool",
          "name": "",
          "type": "bool"
        }
      ],
      "stateMutability": "nonpayable",
      "type": "function"
    },
    {
      "inputs": [
        {
          "internalType": "address",
          "name": "account",
          "type": "address"
        }
      ],
      "name": "balanceOf",
      "outputs": [
        {
          "internalType": "uint256",
          "name": "",
          "type": "uint256"
        }
      ],
      "stateMutability": "view",
      "type": "function"
    },
    {
      "inputs": [
        {
          "internalType": "address",
          "name": "owner",
          "type": "address"
        },
        {
          "internalType": "address",
          "name": "to",
          "type": "address"
        },
        {
          "internalType": "uint256",
          "name": "shares",
          "type": "uint256"
        }
      ],
      "name": "burn",
      "outputs": [
        {
          "internalType": "uint256",
          "name": "amount",
          "type": "uint256"
        }
      ],
      "stateMutability": "nonpayable",
      "type": "function"
    },
    {
      "inputs": [],
      "name": "decimals",
      "outputs": [
        {
          "internalType": "uint8",
          "name": "",
          "type": "uint8"
        }
      ],
      "stateMutability": "pure",
      "type": "function"
    },
    {
      "inputs": [
        {
          "internalType": "address",
          "name": "owner",
          "type": "address"
        }
      ],
      "name": "getAccount",
      "outputs": [
        {
          "internalType": "uint256",
          "name": "shares",
          "type": "uint256"
        },
        {
          "internalType": "uint256",
          "name": "value",
          "type": "uint256"
        },
        {
          "internalType": "uint256",
          "name": "cost",
          "type": "uint256"
        }
      ],
      "stateMutability": "view",
      "type": "function"
    },
    {
      "inputs": [],
      "name": "getMaxAPR",
      "outputs": [
        {
          "internalType": "uint256",
          "name": "",
          "type": "uint256"
        }
      ],
      "stateMutability": "view",
      "type": "function"
    },
    {
      "inputs": [],
      "name": "getProperty",
      "outputs": [
        {
          "components": [
            {
              "internalType": "address",
              "name": "entry",
              "type": "address"
            },
            {
              "internalType": "address",
              "name": "token",
              "type": "address"
            },
            {
              "internalType": "address",
              "name": "provider",
              "type": "address"
            },
            {
              "internalType": "uint256",
              "name": "value",
              "type": "uint256"
            },
            {
              "internalType": "uint256",
              "name": "shares",
              "type": "uint256"
            },
            {
              "internalType": "uint256",
              "name": "maxAPR",
              "type": "uint256"
            },
            {
              "internalType": "uint256",
              "name": "createdAt",
              "type": "uint256"
            },
            {
              "internalType": "uint256",
              "name": "updatedAt",
              "type": "uint256"
            }
          ],
          "internalType": "struct IFund.Property",
          "name": "result",
          "type": "tuple"
        }
      ],
      "stateMutability": "view",
      "type": "function"
    },
    {
      "inputs": [],
      "name": "initialize",
      "outputs": [
        {
          "internalType": "address",
          "name": "token",
          "type": "address"
        }
      ],
      "stateMutability": "nonpayable",
      "type": "function"
    },
    {
      "inputs": [
        {
          "internalType": "address",
          "name": "to",
          "type": "address"
        }
      ],
      "name": "mint",
      "outputs": [
        {
          "internalType": "uint256",
          "name": "shares",
          "type": "uint256"
        },
        {
          "internalType": "uint256",
          "name": "value",
          "type": "uint256"
        }
      ],
      "stateMutability": "payable",
      "type": "function"
    },
    {
      "inputs": [],
      "name": "name",
      "outputs": [
        {
          "internalType": "string",
          "name": "",
          "type": "string"
        }
      ],
      "stateMutability": "view",
      "type": "function"
    },
    {
      "inputs": [
        {
          "internalType": "uint256",
          "name": "newAPR",
          "type": "uint256"
        }
      ],
      "name": "setMaxAPR",
      "outputs": [],
      "stateMutability": "nonpayable",
      "type": "function"
    },
    {
      "inputs": [],
      "name": "symbol",
      "outputs": [
        {
          "internalType": "string",
          "name": "",
          "type": "string"
        }
      ],
      "stateMutability": "view",
      "type": "function"
    },
    {
      "inputs": [],
      "name": "totalSupply",
      "outputs": [
        {
          "internalType": "uint256",
          "name": "",
          "type": "uint256"
        }
      ],
      "stateMutability": "view",
      "type": "function"
    },
    {
      "inputs": [
        {
          "internalType": "address",
          "name": "to",
          "type": "address"
        },
        {
          "internalType": "uint256",
          "name": "value",
          "type": "uint256"
        }
      ],
      "name": "transfer",
      "outputs": [
        {
          "internalType": "bool",
          "name": "",
          "type": "bool"
        }
      ],
      "stateMutability": "nonpayable",
      "type": "function"
    },
    {
      "inputs": [
        {
          "internalType": "address",
          "name": "from",
          "type": "address"
        },
        {
          "internalType": "address",
          "name": "to",
          "type": "address"
        },
        {
          "internalType": "uint256",
          "name": "value",
          "type": "uint256"
        }
      ],
      "name": "transferFrom",
      "outputs": [
        {
          "internalType": "bool",
          "name": "",
          "type": "bool"
        }
      ],
      "stateMutability": "nonpayable",
      "type": "function"
    },
    {
      "inputs": [
        {
          "internalType": "bytes",
          "name": "data",
          "type": "bytes"
        }
      ],
      "name": "updateValue",
      "outputs": [
        {
          "internalType": "uint256",
          "name": "value",
          "type": "uint256"
        }
      ],
      "stateMutability": "payable",
      "type": "function"
    }
  ],
  "bytecode": "0x6080604052348015600f57600080fd5b5061266d8061001f6000396000f3fe60806040526004361061010e5760003560e01c80636a627842116100a5578063a9059cbb11610074578063e010f10211610059578063e010f10214610433578063f6b911bc14610455578063fbcbc0f11461047557600080fd5b8063a9059cbb146103a1578063dd62ed3e146103c157600080fd5b80636a627842146102c857806370a08231146102f05780638129fc1c1461035257806395d89b411461038c57600080fd5b80631e68607a116100e15780631e68607a1461026457806323b872dd14610279578063313ce567146102995780634f418e0d146102b557600080fd5b806306fdde0314610113578063077510701461013e578063095ea7b3146101f657806318160ddd14610226575b600080fd5b34801561011f57600080fd5b506101286104b0565b6040516101359190612010565b60405180910390f35b34801561014a57600080fd5b50610153610585565b604051610135919060006101008201905073ffffffffffffffffffffffffffffffffffffffff835116825273ffffffffffffffffffffffffffffffffffffffff602084015116602083015273ffffffffffffffffffffffffffffffffffffffff6040840151166040830152606083015160608301526080830151608083015260a083015160a083015260c083015160c083015260e083015160e083015292915050565b34801561020257600080fd5b5061021661021136600461204f565b610697565b6040519015158152602001610135565b34801561023257600080fd5b507f52c63247e1f47db19d5ce0460030c497f067ca4cebf71ba98eeadabe20bace02545b604051908152602001610135565b34801561027057600080fd5b50600554610256565b34801561028557600080fd5b5061021661029436600461207b565b6106b1565b3480156102a557600080fd5b5060405160068152602001610135565b6102566102c33660046120bc565b6106d5565b6102db6102d6366004612130565b6108a6565b60408051928352602083019190915201610135565b3480156102fc57600080fd5b5061025661030b366004612130565b73ffffffffffffffffffffffffffffffffffffffff1660009081527f52c63247e1f47db19d5ce0460030c497f067ca4cebf71ba98eeadabe20bace00602052604090205490565b34801561035e57600080fd5b506103676109f3565b60405173ffffffffffffffffffffffffffffffffffffffff9091168152602001610135565b34801561039857600080fd5b50610128610ab6565b3480156103ad57600080fd5b506102166103bc36600461204f565b610b07565b3480156103cd57600080fd5b506102566103dc36600461214d565b73ffffffffffffffffffffffffffffffffffffffff91821660009081527f52c63247e1f47db19d5ce0460030c497f067ca4cebf71ba98eeadabe20bace016020908152604080832093909416825291909152205490565b34801561043f57600080fd5b5061045361044e366004612186565b610b15565b005b34801561046157600080fd5b5061025661047036600461207b565b610bd7565b34801561048157600080fd5b50610495610490366004612130565b610bf9565b60408051938452602084019290925290820152606001610135565b7f52c63247e1f47db19d5ce0460030c497f067ca4cebf71ba98eeadabe20bace0380546060917f52c63247e1f47db19d5ce0460030c497f067ca4cebf71ba98eeadabe20bace00916105019061219f565b80601f016020809104026020016040519081016040528092919081815260200182805461052d9061219f565b801561057a5780601f1061054f5761010080835404028352916020019161057a565b820191906000526020600020905b81548152906001019060200180831161055d57829003601f168201915b505050505091505090565b61060f604051806101000160405280600073ffffffffffffffffffffffffffffffffffffffff168152602001600073ffffffffffffffffffffffffffffffffffffffff168152602001600073ffffffffffffffffffffffffffffffffffffffff16815260200160008152602001600081526020016000815260200160008152602001600081525090565b50604080516101008101825260005473ffffffffffffffffffffffffffffffffffffffff9081168252600154811660208301526002541691810191909152600354606082015260055460a082015260065460c082015260075460e08201527f52c63247e1f47db19d5ce0460030c497f067ca4cebf71ba98eeadabe20bace0254608082015290565b6000336106a5818585610cc1565b60019150505b92915050565b6000336106bf858285610cd3565b6106ca858585610dc1565b506001949350505050565b600062014ff06106e460075490565b6106ee9042612221565b111561080f57608082111561080f5761070b600460008486612234565b6107149161225e565b7fffffffff00000000000000000000000000000000000000000000000000000000167fed99f469000000000000000000000000000000000000000000000000000000000361080f5760007375cc0c0ddd2ccafe6ec415be686267588011e36a73ffffffffffffffffffffffffffffffffffffffff1684846040516107999291906122c4565b6000604051808303816000865af19150503d80600081146107d6576040519150601f19603f3d011682016040523d82523d6000602084013e6107db565b606091505b50509050801561080d5760006107f5604460248688612234565b6107fe916122d4565b905061080a3082610e6c565b50505b505b6040517f70a082310000000000000000000000000000000000000000000000000000000081523060048201527335d8949372d46b7a3d5a56006ae77b215fc69bc0906370a0823190602401602060405180830381865afa158015610877573d6000803e3d6000fd5b505050506040513d601f19601f8201168201806040525081019061089b9190612310565b90506106ab81611060565b6040517f70a082310000000000000000000000000000000000000000000000000000000081523060048201526000908190819073a0b86991c6218b36c1d19d4a2e9eb0ce3606eb48906370a0823190602401602060405180830381865afa158015610915573d6000803e3d6000fd5b505050506040513d601f19601f820116820180604052508101906109399190612310565b9050801561094d5761094b308261119d565b505b6040517f70a082310000000000000000000000000000000000000000000000000000000081523060048201526000907335d8949372d46b7a3d5a56006ae77b215fc69bc0906370a0823190602401602060405180830381865afa1580156109b8573d6000803e3d6000fd5b505050506040513d601f19601f820116820180604052508101906109dc9190612310565b90506109e88582611319565b935093505050915091565b600073a0b86991c6218b36c1d19d4a2e9eb0ce3606eb48905060006105789050610ab273a0b86991c6218b36c1d19d4a2e9eb0ce3606eb487335d8949372d46b7a3d5a56006ae77b215fc69bc0836040518060400160405280601281526020017f5772617070656420557375616c2046756e6400000000000000000000000000008152506040518060400160405280600981526020017f46756e64557375616c0000000000000000000000000000000000000000000000815250611423565b5090565b7f52c63247e1f47db19d5ce0460030c497f067ca4cebf71ba98eeadabe20bace0480546060917f52c63247e1f47db19d5ce0460030c497f067ca4cebf71ba98eeadabe20bace00916105019061219f565b6000336106a5818585610dc1565b60005473ffffffffffffffffffffffffffffffffffffffff163314610b9b576040517f08c379a000000000000000000000000000000000000000000000000000000000815260206004820152601360248201527f6f6e6c7920656e7472792063616e2063616c6c0000000000000000000000000060448201526064015b60405180910390fd5b60058190556040518181527f8cfdf6c9b142362dd3e7fb36384720ac337ff6b67a326b1dc87374c634de0198906020015b60405180910390a150565b600080610be48584611615565b9050610bf08482611790565b95945050505050565b6003546000908190819015610cba5773ffffffffffffffffffffffffffffffffffffffff841660009081527f52c63247e1f47db19d5ce0460030c497f067ca4cebf71ba98eeadabe20bace0060205260409020549250610c777f52c63247e1f47db19d5ce0460030c497f067ca4cebf71ba98eeadabe20bace025490565b600354610c849085612329565b610c8e919061236f565b73ffffffffffffffffffffffffffffffffffffffff851660009081526008602052604090205490925090505b9193909250565b610cce838383600161190c565b505050565b73ffffffffffffffffffffffffffffffffffffffff83811660009081527f52c63247e1f47db19d5ce0460030c497f067ca4cebf71ba98eeadabe20bace0160209081526040808320938616835292905220547fffffffffffffffffffffffffffffffffffffffffffffffffffffffffffffffff8114610dbb5781811015610dac576040517ffb8f41b200000000000000000000000000000000000000000000000000000000815273ffffffffffffffffffffffffffffffffffffffff841660048201526024810182905260448101839052606401610b92565b610dbb8484848403600061190c565b50505050565b73ffffffffffffffffffffffffffffffffffffffff8316610e11576040517f96c6fd1e00000000000000000000000000000000000000000000000000000000815260006004820152602401610b92565b73ffffffffffffffffffffffffffffffffffffffff8216610e61576040517fec442f0500000000000000000000000000000000000000000000000000000000815260006004820152602401610b92565b610cce838383611a79565b600081156106ab576040517fa9059cbb0000000000000000000000000000000000000000000000000000000081527314154c15fc0fd3f91de557a1b6fdd2059972cd0b60048201526024810183905273c4441c2be5d8fa8126822b9929ca0b81ea0de38e9063a9059cbb906044016020604051808303816000875af1158015610ef9573d6000803e3d6000fd5b505050506040513d601f19601f82011682018060405250810190610f1d91906123aa565b50610f537314154c15fc0fd3f91de557a1b6fdd2059972cd0b60007388e6a0c2ddd26feeb64f039a2c41296fcb3f564085611c4a565b9050610f8a7388e6a0c2ddd26feeb64f039a2c41296fcb3f564060007314100f81e33c33ecc7cdac70181fb45b6e78569f84611c4a565b9050610fc17314100f81e33c33ecc7cdac70181fb45b6e78569f6000731d08e7adc263cfc70b1babe6dc5bb339c16eec5284611d36565b9050610fe4731d08e7adc263cfc70b1babe6dc5bb339c16eec5260018584611d36565b6040805173c4441c2be5d8fa8126822b9929ca0b81ea0de38e8152602081018590527335d8949372d46b7a3d5a56006ae77b215fc69bc091810191909152606081018290529091507fdb587d878116df0bdd4fe154699aa2c5f439da001cc811dfd05d9f589fc5a8ee906080015b60405180910390a192915050565b600354811015611072576110726123cc565b600064496cebb800600060070154420360006005015460006003015402028161109d5761109d612340565b0490506000600301548203811015611159576003805482019055600054604080517f017e7e5800000000000000000000000000000000000000000000000000000000815290516111529273ffffffffffffffffffffffffffffffffffffffff169163017e7e589160048083019260209291908290030181865afa158015611128573d6000803e3d6000fd5b505050506040513d601f19601f8201168201806040525081019061114c91906123fb565b83611319565b505061115f565b60038290555b504260078190556040805183815260208101929092527f855dd4befaa13dba1a15f3b3924e22afdf7dde95379cc352e8a78af3f9e8ea5b9101610bcc565b600081156106ab576040517fa9059cbb0000000000000000000000000000000000000000000000000000000081527314100f81e33c33ecc7cdac70181fb45b6e78569f60048201526024810183905273a0b86991c6218b36c1d19d4a2e9eb0ce3606eb489063a9059cbb906044016020604051808303816000875af115801561122a573d6000803e3d6000fd5b505050506040513d601f19601f8201168201806040525081019061124e91906123aa565b506112847314100f81e33c33ecc7cdac70181fb45b6e78569f6000731d08e7adc263cfc70b1babe6dc5bb339c16eec5285611d36565b90506112a7731d08e7adc263cfc70b1babe6dc5bb339c16eec5260018584611d36565b6040805173a0b86991c6218b36c1d19d4a2e9eb0ce3606eb488152602081018590527335d8949372d46b7a3d5a56006ae77b215fc69bc091810191909152606081018290529091507fdb587d878116df0bdd4fe154699aa2c5f439da001cc811dfd05d9f589fc5a8ee90608001611052565b600354600090819061132b9084612221565b6003549091506000036113405780915061137c565b6003547f52c63247e1f47db19d5ce0460030c497f067ca4cebf71ba98eeadabe20bace025461136f9083612329565b611379919061236f565b91505b73ffffffffffffffffffffffffffffffffffffffff8416600090815260086020526040812080548392906113b1908490612418565b909155505060038390556113c58483611e12565b6040805173ffffffffffffffffffffffffffffffffffffffff86168152602081018490529081018290527f4c209b5fc8ad50758f13e2e1088ba56a560dff690a1c6fef26394f4c03821c4f9060600160405180910390a19250929050565b7ff0c57e16840df040f15088dc2f81fe391c3923bec73e23a9662efc9c229c6a00805468010000000000000000810460ff16159067ffffffffffffffff1660008115801561146e5750825b905060008267ffffffffffffffff16600114801561148b5750303b155b905081158015611499575080155b156114d0576040517ff92ee8a900000000000000000000000000000000000000000000000000000000815260040160405180910390fd5b84547fffffffffffffffffffffffffffffffffffffffffffffffff000000000000000016600117855583156115315784547fffffffffffffffffffffffffffffffffffffffffffffff00ffffffffffffffff16680100000000000000001785555b60008054337fffffffffffffffffffffffff00000000000000000000000000000000000000009182161790915560018054821673ffffffffffffffffffffffffffffffffffffffff8d81169190911790915560028054909216908b1617905560058890554260068190556007556115a88787611e72565b83156116095784547fffffffffffffffffffffffffffffffffffffffffffffff00ffffffffffffffff168555604051600181527fc7f505b2f371ae2175ee4913f4499e1f2633a7b5936321eed1cdaeb6115181d29060200160405180910390a15b50505050505050505050565b600073ffffffffffffffffffffffffffffffffffffffff8316331480611652575060005473ffffffffffffffffffffffffffffffffffffffff1633145b6116b8576040517f08c379a000000000000000000000000000000000000000000000000000000000815260206004820152601c60248201527f63616c6c6572206973206e6f74206f776e6572206f7220656e747279000000006044820152606401610b92565b7f52c63247e1f47db19d5ce0460030c497f067ca4cebf71ba98eeadabe20bace02546003546116e79084612329565b6116f1919061236f565b90506116fd8383611e84565b73ffffffffffffffffffffffffffffffffffffffff8316600090815260086020526040812081905560038054839290611737908490612221565b90915550506040805173ffffffffffffffffffffffffffffffffffffffff85168152602081018490529081018290527f49995e5dd6158cf69ad3e9777c46755a1a826a446c6416992167462dad033b2a90606001611052565b600081156106ab576040517fa9059cbb000000000000000000000000000000000000000000000000000000008152731d08e7adc263cfc70b1babe6dc5bb339c16eec526004820152602481018390527335d8949372d46b7a3d5a56006ae77b215fc69bc09063a9059cbb906044016020604051808303816000875af115801561181d573d6000803e3d6000fd5b505050506040513d601f19601f8201168201806040525081019061184191906123aa565b50611877731d08e7adc263cfc70b1babe6dc5bb339c16eec5260007314100f81e33c33ecc7cdac70181fb45b6e78569f85611d36565b905061189a7314100f81e33c33ecc7cdac70181fb45b6e78569f60018584611d36565b604080517335d8949372d46b7a3d5a56006ae77b215fc69bc081526020810185905273a0b86991c6218b36c1d19d4a2e9eb0ce3606eb4891810191909152606081018290529091507fdb587d878116df0bdd4fe154699aa2c5f439da001cc811dfd05d9f589fc5a8ee90608001611052565b7f52c63247e1f47db19d5ce0460030c497f067ca4cebf71ba98eeadabe20bace0073ffffffffffffffffffffffffffffffffffffffff851661197d576040517fe602df0500000000000000000000000000000000000000000000000000000000815260006004820152602401610b92565b73ffffffffffffffffffffffffffffffffffffffff84166119cd576040517f94280d6200000000000000000000000000000000000000000000000000000000815260006004820152602401610b92565b73ffffffffffffffffffffffffffffffffffffffff808616600090815260018301602090815260408083209388168352929052208390558115611a72578373ffffffffffffffffffffffffffffffffffffffff168573ffffffffffffffffffffffffffffffffffffffff167f8c5be1e5ebec7d5bd14f71427d1e84f3dd0314c0f7b2291e5b200ac8c7c3b92585604051611a6991815260200190565b60405180910390a35b5050505050565b7f52c63247e1f47db19d5ce0460030c497f067ca4cebf71ba98eeadabe20bace0073ffffffffffffffffffffffffffffffffffffffff8416611ad45781816002016000828254611ac99190612418565b90915550611b869050565b73ffffffffffffffffffffffffffffffffffffffff841660009081526020829052604090205482811015611b5a576040517fe450d38c00000000000000000000000000000000000000000000000000000000815273ffffffffffffffffffffffffffffffffffffffff861660048201526024810182905260448101849052606401610b92565b73ffffffffffffffffffffffffffffffffffffffff851660009081526020839052604090209083900390555b73ffffffffffffffffffffffffffffffffffffffff8316611bb1576002810180548390039055611bdd565b73ffffffffffffffffffffffffffffffffffffffff831660009081526020829052604090208054830190555b8273ffffffffffffffffffffffffffffffffffffffff168473ffffffffffffffffffffffffffffffffffffffff167fddf252ad1be2c89b69c2b068fc378daa952ba7f163c4a11628f55a4df523b3ef84604051611c3c91815260200190565b60405180910390a350505050565b6000808073ffffffffffffffffffffffffffffffffffffffff871663128acb0886888773fffd8963efd1fc6a506488495d951d5263988d25866040519080825280601f01601f191660200182016040528015611cad576020820181803683370190505b506040518663ffffffff1660e01b8152600401611cce95949392919061245a565b60408051808303816000875af1158015611cec573d6000803e3d6000fd5b505050506040513d601f19601f82011682018060405250810190611d1091906124b3565b915091506000821315611d2557509050611d2e565b9150611d2e9050565b949350505050565b600080600085611d495760016000611d4e565b600060015b6040517fafb43012000000000000000000000000000000000000000000000000000000008152600f83810b600483015282900b6024820152604481018790526001606482015273ffffffffffffffffffffffffffffffffffffffff88811660848301529294509092509088169063afb430129060a4016020604051808303816000875af1158015611de3573d6000803e3d6000fd5b505050506040513d601f19601f82011682018060405250810190611e079190612310565b979650505050505050565b73ffffffffffffffffffffffffffffffffffffffff8216611e62576040517fec442f0500000000000000000000000000000000000000000000000000000000815260006004820152602401610b92565b611e6e60008383611a79565b5050565b611e7a611ee0565b611e6e8282611f49565b73ffffffffffffffffffffffffffffffffffffffff8216611ed4576040517f96c6fd1e00000000000000000000000000000000000000000000000000000000815260006004820152602401610b92565b611e6e82600083611a79565b7ff0c57e16840df040f15088dc2f81fe391c3923bec73e23a9662efc9c229c6a005468010000000000000000900460ff16611f47576040517fd7e6bcf800000000000000000000000000000000000000000000000000000000815260040160405180910390fd5b565b611f51611ee0565b7f52c63247e1f47db19d5ce0460030c497f067ca4cebf71ba98eeadabe20bace007f52c63247e1f47db19d5ce0460030c497f067ca4cebf71ba98eeadabe20bace03611f9d848261251e565b5060048101610dbb838261251e565b6000815180845260005b81811015611fd257602081850181015186830182015201611fb6565b5060006020828601015260207fffffffffffffffffffffffffffffffffffffffffffffffffffffffffffffffe0601f83011685010191505092915050565b6020815260006120236020830184611fac565b9392505050565b73ffffffffffffffffffffffffffffffffffffffff8116811461204c57600080fd5b50565b6000806040838503121561206257600080fd5b823561206d8161202a565b946020939093013593505050565b60008060006060848603121561209057600080fd5b833561209b8161202a565b925060208401356120ab8161202a565b929592945050506040919091013590565b600080602083850312156120cf57600080fd5b823567ffffffffffffffff8111156120e657600080fd5b8301601f810185136120f757600080fd5b803567ffffffffffffffff81111561210e57600080fd5b85602082840101111561212057600080fd5b6020919091019590945092505050565b60006020828403121561214257600080fd5b81356120238161202a565b6000806040838503121561216057600080fd5b823561216b8161202a565b9150602083013561217b8161202a565b809150509250929050565b60006020828403121561219857600080fd5b5035919050565b600181811c908216806121b357607f821691505b6020821081036121ec577f4e487b7100000000000000000000000000000000000000000000000000000000600052602260045260246000fd5b50919050565b7f4e487b7100000000000000000000000000000000000000000000000000000000600052601160045260246000fd5b818103818111156106ab576106ab6121f2565b6000808585111561224457600080fd5b8386111561225157600080fd5b5050820193919092039150565b80357fffffffff0000000000000000000000000000000000000000000000000000000081169060048410156122bd577fffffffff00000000000000000000000000000000000000000000000000000000808560040360031b1b82161691505b5092915050565b8183823760009101908152919050565b803560208310156106ab577fffffffffffffffffffffffffffffffffffffffffffffffffffffffffffffffff602084900360031b1b1692915050565b60006020828403121561232257600080fd5b5051919050565b80820281158282048414176106ab576106ab6121f2565b7f4e487b7100000000000000000000000000000000000000000000000000000000600052601260045260246000fd5b6000826123a5577f4e487b7100000000000000000000000000000000000000000000000000000000600052601260045260246000fd5b500490565b6000602082840312156123bc57600080fd5b8151801515811461202357600080fd5b7f4e487b7100000000000000000000000000000000000000000000000000000000600052600160045260246000fd5b60006020828403121561240d57600080fd5b81516120238161202a565b808201808211156106ab576106ab6121f2565b7f4e487b7100000000000000000000000000000000000000000000000000000000600052604160045260246000fd5b73ffffffffffffffffffffffffffffffffffffffff86168152841515602082015283604082015273ffffffffffffffffffffffffffffffffffffffff8316606082015260a060808201526000611e0760a0830184611fac565b600080604083850312156124c657600080fd5b505080516020909101519092909150565b601f821115610cce57806000526020600020601f840160051c810160208510156124fe5750805b601f840160051c820191505b81811015611a72576000815560010161250a565b815167ffffffffffffffff8111156125385761253861242b565b61254c81612546845461219f565b846124d7565b6020601f82116001811461259e57600083156125685750848201515b7fffffffffffffffffffffffffffffffffffffffffffffffffffffffffffffffff600385901b1c1916600184901b178455611a72565b6000848152602081207fffffffffffffffffffffffffffffffffffffffffffffffffffffffffffffffe08516915b828110156125ec57878501518255602094850194600190920191016125cc565b508482101561262857868401517fffffffffffffffffffffffffffffffffffffffffffffffffffffffffffffffff600387901b60f8161c191681555b50505050600190811b0190555056fea26469706673582212207d57549fc2594a7908e9ae73e5cf3535586ac5def48b698ad40aacbcc8699f1f64736f6c634300081c0033",
  "linkReferences": {},
  "deployedLinkReferences": {}
}